{
  "contractName": "ERC721WithIERC1155",
  "abi": [
    {
      "inputs": [
        {
          "internalType": "string",
          "name": "name_",
          "type": "string"
        },
        {
          "internalType": "string",
          "name": "symbol_",
          "type": "string"
        },
        {
          "internalType": "string",
          "name": "uri_",
          "type": "string"
        }
      ],
      "stateMutability": "nonpayable",
      "type": "constructor"
    },
    {
      "anonymous": false,
      "inputs": [
        {
          "indexed": true,
          "internalType": "address",
          "name": "owner",
          "type": "address"
        },
        {
          "indexed": true,
          "internalType": "address",
          "name": "approved",
          "type": "address"
        },
        {
          "indexed": true,
          "internalType": "uint256",
          "name": "tokenId",
          "type": "uint256"
        }
      ],
      "name": "Approval",
      "type": "event"
    },
    {
      "anonymous": false,
      "inputs": [
        {
          "indexed": true,
          "internalType": "address",
          "name": "owner",
          "type": "address"
        },
        {
          "indexed": true,
          "internalType": "address",
          "name": "operator",
          "type": "address"
        },
        {
          "indexed": false,
          "internalType": "bool",
          "name": "approved",
          "type": "bool"
        }
      ],
      "name": "ApprovalForAll",
      "type": "event"
    },
    {
      "anonymous": false,
      "inputs": [
        {
          "indexed": true,
          "internalType": "address",
          "name": "from",
          "type": "address"
        },
        {
          "indexed": true,
          "internalType": "address",
          "name": "to",
          "type": "address"
        },
        {
          "indexed": true,
          "internalType": "uint256",
          "name": "tokenId",
          "type": "uint256"
        }
      ],
      "name": "Transfer",
      "type": "event"
    },
    {
      "anonymous": false,
      "inputs": [
        {
          "indexed": true,
          "internalType": "address",
          "name": "operator",
          "type": "address"
        },
        {
          "indexed": true,
          "internalType": "address",
          "name": "from",
          "type": "address"
        },
        {
          "indexed": true,
          "internalType": "address",
          "name": "to",
          "type": "address"
        },
        {
          "indexed": false,
          "internalType": "uint256[]",
          "name": "ids",
          "type": "uint256[]"
        },
        {
          "indexed": false,
          "internalType": "uint256[]",
          "name": "values",
          "type": "uint256[]"
        }
      ],
      "name": "TransferBatch",
      "type": "event"
    },
    {
      "anonymous": false,
      "inputs": [
        {
          "indexed": true,
          "internalType": "address",
          "name": "operator",
          "type": "address"
        },
        {
          "indexed": true,
          "internalType": "address",
          "name": "from",
          "type": "address"
        },
        {
          "indexed": true,
          "internalType": "address",
          "name": "to",
          "type": "address"
        },
        {
          "indexed": false,
          "internalType": "uint256",
          "name": "id",
          "type": "uint256"
        },
        {
          "indexed": false,
          "internalType": "uint256",
          "name": "value",
          "type": "uint256"
        }
      ],
      "name": "TransferSingle",
      "type": "event"
    },
    {
      "anonymous": false,
      "inputs": [
        {
          "indexed": false,
          "internalType": "string",
          "name": "value",
          "type": "string"
        },
        {
          "indexed": true,
          "internalType": "uint256",
          "name": "id",
          "type": "uint256"
        }
      ],
      "name": "URI",
      "type": "event"
    },
    {
      "inputs": [
        {
          "internalType": "address",
          "name": "to",
          "type": "address"
        },
        {
          "internalType": "uint256",
          "name": "tokenId",
          "type": "uint256"
        }
      ],
      "name": "approve",
      "outputs": [],
      "stateMutability": "nonpayable",
      "type": "function"
    },
    {
      "inputs": [
        {
          "internalType": "uint256",
          "name": "tokenId",
          "type": "uint256"
        }
      ],
      "name": "getApproved",
      "outputs": [
        {
          "internalType": "address",
          "name": "",
          "type": "address"
        }
      ],
      "stateMutability": "view",
      "type": "function"
    },
    {
      "inputs": [
        {
          "internalType": "address",
          "name": "owner",
          "type": "address"
        },
        {
          "internalType": "address",
          "name": "operator",
          "type": "address"
        }
      ],
      "name": "isApprovedForAll",
      "outputs": [
        {
          "internalType": "bool",
          "name": "",
          "type": "bool"
        }
      ],
      "stateMutability": "view",
      "type": "function"
    },
    {
      "inputs": [],
      "name": "name",
      "outputs": [
        {
          "internalType": "string",
          "name": "",
          "type": "string"
        }
      ],
      "stateMutability": "view",
      "type": "function"
    },
    {
      "inputs": [
        {
          "internalType": "uint256",
          "name": "tokenId",
          "type": "uint256"
        }
      ],
      "name": "ownerOf",
      "outputs": [
        {
          "internalType": "address",
          "name": "",
          "type": "address"
        }
      ],
      "stateMutability": "view",
      "type": "function"
    },
    {
      "inputs": [
        {
          "internalType": "address",
          "name": "operator",
          "type": "address"
        },
        {
          "internalType": "bool",
          "name": "approved",
          "type": "bool"
        }
      ],
      "name": "setApprovalForAll",
      "outputs": [],
      "stateMutability": "nonpayable",
      "type": "function"
    },
    {
      "inputs": [],
      "name": "symbol",
      "outputs": [
        {
          "internalType": "string",
          "name": "",
          "type": "string"
        }
      ],
      "stateMutability": "view",
      "type": "function"
    },
    {
      "inputs": [
        {
          "internalType": "uint256",
          "name": "tokenId",
          "type": "uint256"
        }
      ],
      "name": "tokenURI",
      "outputs": [
        {
          "internalType": "string",
          "name": "",
          "type": "string"
        }
      ],
      "stateMutability": "view",
      "type": "function"
    },
    {
      "inputs": [
        {
          "internalType": "bytes4",
          "name": "interfaceId",
          "type": "bytes4"
        }
      ],
      "name": "supportsInterface",
      "outputs": [
        {
          "internalType": "bool",
          "name": "",
          "type": "bool"
        }
      ],
      "stateMutability": "view",
      "type": "function"
    },
    {
      "inputs": [
        {
          "internalType": "uint256",
          "name": "tokenId",
          "type": "uint256"
        }
      ],
      "name": "uri",
      "outputs": [
        {
          "internalType": "string",
          "name": "",
          "type": "string"
        }
      ],
      "stateMutability": "view",
      "type": "function"
    },
    {
      "inputs": [
        {
          "internalType": "address",
          "name": "account",
          "type": "address"
        },
        {
          "internalType": "uint256",
          "name": "id",
          "type": "uint256"
        }
      ],
      "name": "balanceOf",
      "outputs": [
        {
          "internalType": "uint256",
          "name": "",
          "type": "uint256"
        }
      ],
      "stateMutability": "view",
      "type": "function"
    },
    {
      "inputs": [
        {
          "internalType": "address",
          "name": "owner",
          "type": "address"
        }
      ],
      "name": "balanceOf",
      "outputs": [
        {
          "internalType": "uint256",
          "name": "",
          "type": "uint256"
        }
      ],
      "stateMutability": "view",
      "type": "function"
    },
    {
      "inputs": [
        {
          "internalType": "address[]",
          "name": "accounts",
          "type": "address[]"
        },
        {
          "internalType": "uint256[]",
          "name": "ids",
          "type": "uint256[]"
        }
      ],
      "name": "balanceOfBatch",
      "outputs": [
        {
          "internalType": "uint256[]",
          "name": "",
          "type": "uint256[]"
        }
      ],
      "stateMutability": "view",
      "type": "function"
    },
    {
      "inputs": [
        {
          "internalType": "address",
          "name": "from",
          "type": "address"
        },
        {
          "internalType": "address",
          "name": "to",
          "type": "address"
        },
        {
          "internalType": "uint256",
          "name": "tokenId",
          "type": "uint256"
        }
      ],
      "name": "safeTransferFrom",
      "outputs": [],
      "stateMutability": "nonpayable",
      "type": "function"
    },
    {
      "inputs": [
        {
          "internalType": "address",
          "name": "from",
          "type": "address"
        },
        {
          "internalType": "address",
          "name": "to",
          "type": "address"
        },
        {
          "internalType": "uint256",
          "name": "tokenId",
          "type": "uint256"
        },
        {
          "internalType": "bytes",
          "name": "_data",
          "type": "bytes"
        }
      ],
      "name": "safeTransferFrom",
      "outputs": [],
      "stateMutability": "nonpayable",
      "type": "function"
    },
    {
      "inputs": [
        {
          "internalType": "address",
          "name": "from",
          "type": "address"
        },
        {
          "internalType": "address",
          "name": "to",
          "type": "address"
        },
        {
          "internalType": "uint256",
          "name": "id",
          "type": "uint256"
        },
        {
          "internalType": "uint256",
          "name": "amount",
          "type": "uint256"
        },
        {
          "internalType": "bytes",
          "name": "data",
          "type": "bytes"
        }
      ],
      "name": "safeTransferFrom",
      "outputs": [],
      "stateMutability": "nonpayable",
      "type": "function"
    },
    {
      "inputs": [
        {
          "internalType": "address",
          "name": "from",
          "type": "address"
        },
        {
          "internalType": "address",
          "name": "to",
          "type": "address"
        },
        {
          "internalType": "uint256[]",
          "name": "ids",
          "type": "uint256[]"
        },
        {
          "internalType": "uint256[]",
          "name": "amounts",
          "type": "uint256[]"
        },
        {
          "internalType": "bytes",
          "name": "data",
          "type": "bytes"
        }
      ],
      "name": "safeBatchTransferFrom",
      "outputs": [],
      "stateMutability": "nonpayable",
      "type": "function"
    },
    {
      "inputs": [
        {
          "internalType": "address",
          "name": "from",
          "type": "address"
        },
        {
          "internalType": "address",
          "name": "to",
          "type": "address"
        },
        {
          "internalType": "uint256",
          "name": "tokenId",
          "type": "uint256"
        }
      ],
      "name": "transferFrom",
      "outputs": [],
      "stateMutability": "nonpayable",
      "type": "function"
    }
  ],
  "bytecode": "0x60806040523480156200001157600080fd5b50604051620042ff380380620042ff8339818101604052810190620000379190620001c5565b8282816000908051906020019062000051929190620000a3565b5080600190805190602001906200006a929190620000a3565b5050506200007e816200008760201b60201c565b505050620003d6565b80600690805190602001906200009f929190620000a3565b5050565b828054620000b190620002fb565b90600052602060002090601f016020900481019282620000d5576000855562000121565b82601f10620000f057805160ff191683800117855562000121565b8280016001018555821562000121579182015b828111156200012057825182559160200191906001019062000103565b5b50905062000130919062000134565b5090565b5b808211156200014f57600081600090555060010162000135565b5090565b60006200016a62000164846200028f565b62000266565b9050828152602081018484840111156200018357600080fd5b62000190848285620002c5565b509392505050565b600082601f830112620001aa57600080fd5b8151620001bc84826020860162000153565b91505092915050565b600080600060608486031215620001db57600080fd5b600084015167ffffffffffffffff811115620001f657600080fd5b620002048682870162000198565b935050602084015167ffffffffffffffff8111156200022257600080fd5b620002308682870162000198565b925050604084015167ffffffffffffffff8111156200024e57600080fd5b6200025c8682870162000198565b9150509250925092565b60006200027262000285565b905062000280828262000331565b919050565b6000604051905090565b600067ffffffffffffffff821115620002ad57620002ac62000396565b5b620002b882620003c5565b9050602081019050919050565b60005b83811015620002e5578082015181840152602081019050620002c8565b83811115620002f5576000848401525b50505050565b600060028204905060018216806200031457607f821691505b602082108114156200032b576200032a62000367565b5b50919050565b6200033c82620003c5565b810181811067ffffffffffffffff821117156200035e576200035d62000396565b5b80604052505050565b7f4e487b7100000000000000000000000000000000000000000000000000000000600052602260045260246000fd5b7f4e487b7100000000000000000000000000000000000000000000000000000000600052604160045260246000fd5b6000601f19601f8301169050919050565b613f1980620003e66000396000f3fe608060405234801561001057600080fd5b50600436106101155760003560e01c80634e1273f4116100a2578063a22cb46511610071578063a22cb46514610316578063b88d4fde14610332578063c87b56dd1461034e578063e985e9c51461037e578063f242432a146103ae57610115565b80634e1273f4146102685780636352211e1461029857806370a08231146102c857806395d89b41146102f857610115565b8063095ea7b3116100e9578063095ea7b3146101c85780630e89341c146101e457806323b872dd146102145780632eb2c2d61461023057806342842e0e1461024c57610115565b8062fdd58e1461011a57806301ffc9a71461014a57806306fdde031461017a578063081812fc14610198575b600080fd5b610134600480360381019061012f9190612854565b6103ca565b6040516101419190613280565b60405180910390f35b610164600480360381019061015f91906128fc565b61044d565b6040516101719190612f83565b60405180910390f35b61018261052f565b60405161018f9190612f9e565b60405180910390f35b6101b260048036038101906101ad919061294e565b6105c1565b6040516101bf9190612e01565b60405180910390f35b6101e260048036038101906101dd9190612854565b610646565b005b6101fe60048036038101906101f9919061294e565b61075e565b60405161020b9190612f9e565b60405180910390f35b61022e600480360381019061022991906126bf565b610770565b005b61024a60048036038101906102459190612600565b610806565b005b610266600480360381019061026191906126bf565b6108a7565b005b610282600480360381019061027d9190612890565b6108c7565b60405161028f9190612f2a565b60405180910390f35b6102b260048036038101906102ad919061294e565b610a78565b6040516102bf9190612e01565b60405180910390f35b6102e260048036038101906102dd919061259b565b610b2a565b6040516102ef9190613280565b60405180910390f35b610300610be2565b60405161030d9190612f9e565b60405180910390f35b610330600480360381019061032b9190612818565b610c74565b005b61034c6004803603810190610347919061270e565b610df5565b005b6103686004803603810190610363919061294e565b610e57565b6040516103759190612f9e565b60405180910390f35b610398600480360381019061039391906125c4565b610efe565b6040516103a59190612f83565b60405180910390f35b6103c860048036038101906103c39190612789565b610f92565b005b60008073ffffffffffffffffffffffffffffffffffffffff168373ffffffffffffffffffffffffffffffffffffffff16141561043b576040517f08c379a000000000000000000000000000000000000000000000000000000000815260040161043290613020565b60405180910390fd5b6104458383611033565b905092915050565b60007fd9b67a26000000000000000000000000000000000000000000000000000000007bffffffffffffffffffffffffffffffffffffffffffffffffffffffff1916827bffffffffffffffffffffffffffffffffffffffffffffffffffffffff1916148061051857507f0e89341c000000000000000000000000000000000000000000000000000000007bffffffffffffffffffffffffffffffffffffffffffffffffffffffff1916827bffffffffffffffffffffffffffffffffffffffffffffffffffffffff1916145b8061052857506105278261108b565b5b9050919050565b60606000805461053e9061359a565b80601f016020809104026020016040519081016040528092919081815260200182805461056a9061359a565b80156105b75780601f1061058c576101008083540402835291602001916105b7565b820191906000526020600020905b81548152906001019060200180831161059a57829003601f168201915b5050505050905090565b60006105cc8261116d565b61060b576040517f08c379a000000000000000000000000000000000000000000000000000000000815260040161060290613180565b60405180910390fd5b6004600083815260200190815260200160002060009054906101000a900473ffffffffffffffffffffffffffffffffffffffff169050919050565b600061065182610a78565b90508073ffffffffffffffffffffffffffffffffffffffff168373ffffffffffffffffffffffffffffffffffffffff1614156106c2576040517f08c379a00000000000000000000000000000000000000000000000000000000081526004016106b9906131e0565b60405180910390fd5b8073ffffffffffffffffffffffffffffffffffffffff166106e16111d9565b73ffffffffffffffffffffffffffffffffffffffff161480610710575061070f8161070a6111d9565b610efe565b5b61074f576040517f08c379a0000000000000000000000000000000000000000000000000000000008152600401610746906130c0565b60405180910390fd5b61075983836111e1565b505050565b606061076982610e57565b9050919050565b61077b83838361129a565b8173ffffffffffffffffffffffffffffffffffffffff168373ffffffffffffffffffffffffffffffffffffffff166107b16111d9565b73ffffffffffffffffffffffffffffffffffffffff167fc3d58168c5ae7397731d063d5bbf3d657854427343f4c083240f7aacaa2d0f628460016040516107f992919061329b565b60405180910390a4505050565b61080e6111d9565b73ffffffffffffffffffffffffffffffffffffffff168573ffffffffffffffffffffffffffffffffffffffff16148061085457506108538561084e6111d9565b610efe565b5b610893576040517f08c379a000000000000000000000000000000000000000000000000000000000815260040161088a90613100565b60405180910390fd5b6108a085858585856112fa565b5050505050565b6108c283838360405180602001604052806000815250610df5565b505050565b6060815183511461090d576040517f08c379a000000000000000000000000000000000000000000000000000000000815260040161090490613220565b60405180910390fd5b6000835167ffffffffffffffff811115610950577f4e487b7100000000000000000000000000000000000000000000000000000000600052604160045260246000fd5b60405190808252806020026020018201604052801561097e5781602001602082028036833780820191505090505b50905060005b8451811015610a6d57610a178582815181106109c9577f4e487b7100000000000000000000000000000000000000000000000000000000600052603260045260246000fd5b6020026020010151858381518110610a0a577f4e487b7100000000000000000000000000000000000000000000000000000000600052603260045260246000fd5b60200260200101516103ca565b828281518110610a50577f4e487b7100000000000000000000000000000000000000000000000000000000600052603260045260246000fd5b60200260200101818152505080610a66906135fd565b9050610984565b508091505092915050565b6000806002600084815260200190815260200160002060009054906101000a900473ffffffffffffffffffffffffffffffffffffffff169050600073ffffffffffffffffffffffffffffffffffffffff168173ffffffffffffffffffffffffffffffffffffffff161415610b21576040517f08c379a0000000000000000000000000000000000000000000000000000000008152600401610b1890613140565b60405180910390fd5b80915050919050565b60008073ffffffffffffffffffffffffffffffffffffffff168273ffffffffffffffffffffffffffffffffffffffff161415610b9b576040517f08c379a0000000000000000000000000000000000000000000000000000000008152600401610b9290613120565b60405180910390fd5b600360008373ffffffffffffffffffffffffffffffffffffffff1673ffffffffffffffffffffffffffffffffffffffff168152602001908152602001600020549050919050565b606060018054610bf19061359a565b80601f0160208091040260200160405190810160405280929190818152602001828054610c1d9061359a565b8015610c6a5780601f10610c3f57610100808354040283529160200191610c6a565b820191906000526020600020905b815481529060010190602001808311610c4d57829003601f168201915b5050505050905090565b610c7c6111d9565b73ffffffffffffffffffffffffffffffffffffffff168273ffffffffffffffffffffffffffffffffffffffff161415610cea576040517f08c379a0000000000000000000000000000000000000000000000000000000008152600401610ce190613080565b60405180910390fd5b8060056000610cf76111d9565b73ffffffffffffffffffffffffffffffffffffffff1673ffffffffffffffffffffffffffffffffffffffff16815260200190815260200160002060008473ffffffffffffffffffffffffffffffffffffffff1673ffffffffffffffffffffffffffffffffffffffff16815260200190815260200160002060006101000a81548160ff0219169083151502179055508173ffffffffffffffffffffffffffffffffffffffff16610da46111d9565b73ffffffffffffffffffffffffffffffffffffffff167f17307eab39ab6107e8899845ad3d59bd9653f200f220920489ca2b5937696c3183604051610de99190612f83565b60405180910390a35050565b610e06610e006111d9565b83611599565b610e45576040517f08c379a0000000000000000000000000000000000000000000000000000000008152600401610e3c90613200565b60405180910390fd5b610e5184848484611677565b50505050565b6060610e628261116d565b610ea1576040517f08c379a0000000000000000000000000000000000000000000000000000000008152600401610e98906131c0565b60405180910390fd5b6000610eab61170f565b90506000815111610ecb5760405180602001604052806000815250610ef6565b80610ed5846117a1565b604051602001610ee6929190612ddd565b6040516020818303038152906040525b915050919050565b6000600560008473ffffffffffffffffffffffffffffffffffffffff1673ffffffffffffffffffffffffffffffffffffffff16815260200190815260200160002060008373ffffffffffffffffffffffffffffffffffffffff1673ffffffffffffffffffffffffffffffffffffffff16815260200190815260200160002060009054906101000a900460ff16905092915050565b610f9a6111d9565b73ffffffffffffffffffffffffffffffffffffffff168573ffffffffffffffffffffffffffffffffffffffff161480610fe05750610fdf85610fda6111d9565b610efe565b5b61101f576040517f08c379a000000000000000000000000000000000000000000000000000000000815260040161101690613040565b60405180910390fd5b61102c858585858561194e565b5050505050565b60008061103f83610a78565b90508073ffffffffffffffffffffffffffffffffffffffff168473ffffffffffffffffffffffffffffffffffffffff16141561107f576001915050611085565b60009150505b92915050565b60007f80ac58cd000000000000000000000000000000000000000000000000000000007bffffffffffffffffffffffffffffffffffffffffffffffffffffffff1916827bffffffffffffffffffffffffffffffffffffffffffffffffffffffff1916148061115657507f5b5e139f000000000000000000000000000000000000000000000000000000007bffffffffffffffffffffffffffffffffffffffffffffffffffffffff1916827bffffffffffffffffffffffffffffffffffffffffffffffffffffffff1916145b80611166575061116582611aff565b5b9050919050565b60008073ffffffffffffffffffffffffffffffffffffffff166002600084815260200190815260200160002060009054906101000a900473ffffffffffffffffffffffffffffffffffffffff1673ffffffffffffffffffffffffffffffffffffffff1614159050919050565b600033905090565b816004600083815260200190815260200160002060006101000a81548173ffffffffffffffffffffffffffffffffffffffff021916908373ffffffffffffffffffffffffffffffffffffffff160217905550808273ffffffffffffffffffffffffffffffffffffffff1661125483610a78565b73ffffffffffffffffffffffffffffffffffffffff167f8c5be1e5ebec7d5bd14f71427d1e84f3dd0314c0f7b2291e5b200ac8c7c3b92560405160405180910390a45050565b6112ab6112a56111d9565b82611599565b6112ea576040517f08c379a00000000000000000000000000000000000000000000000000000000081526004016112e190613200565b60405180910390fd5b6112f5838383611b69565b505050565b815183511461133e576040517f08c379a000000000000000000000000000000000000000000000000000000000815260040161133590613260565b60405180910390fd5b600073ffffffffffffffffffffffffffffffffffffffff168473ffffffffffffffffffffffffffffffffffffffff1614156113ae576040517f08c379a00000000000000000000000000000000000000000000000000000000081526004016113a5906130e0565b60405180910390fd5b60006113b86111d9565b905060005b8451811015611504576000858281518110611401577f4e487b7100000000000000000000000000000000000000000000000000000000600052603260045260246000fd5b602002602001015190506000858381518110611446577f4e487b7100000000000000000000000000000000000000000000000000000000600052603260045260246000fd5b602002602001015190506001811015611494576040517f08c379a000000000000000000000000000000000000000000000000000000000815260040161148b90613240565b60405180910390fd5b60006114a08a846103ca565b9050818110156114e5576040517f08c379a00000000000000000000000000000000000000000000000000000000081526004016114dc90613160565b60405180910390fd5b6114f08a8a85611b69565b505050806114fd906135fd565b90506113bd565b508473ffffffffffffffffffffffffffffffffffffffff168673ffffffffffffffffffffffffffffffffffffffff168273ffffffffffffffffffffffffffffffffffffffff167f4a39dc06d4c0dbc64b70af90fd698a233a518aa5d07e595d983b8c0526c8f7fb878760405161157b929190612f4c565b60405180910390a4611591818787878787611dc5565b505050505050565b60006115a48261116d565b6115e3576040517f08c379a00000000000000000000000000000000000000000000000000000000081526004016115da906130a0565b60405180910390fd5b60006115ee83610a78565b90508073ffffffffffffffffffffffffffffffffffffffff168473ffffffffffffffffffffffffffffffffffffffff16148061165d57508373ffffffffffffffffffffffffffffffffffffffff16611645846105c1565b73ffffffffffffffffffffffffffffffffffffffff16145b8061166e575061166d8185610efe565b5b91505092915050565b61168384848484611fac565b8273ffffffffffffffffffffffffffffffffffffffff168473ffffffffffffffffffffffffffffffffffffffff166116b96111d9565b73ffffffffffffffffffffffffffffffffffffffff167fc3d58168c5ae7397731d063d5bbf3d657854427343f4c083240f7aacaa2d0f6285600160405161170192919061329b565b60405180910390a450505050565b60606006805461171e9061359a565b80601f016020809104026020016040519081016040528092919081815260200182805461174a9061359a565b80156117975780601f1061176c57610100808354040283529160200191611797565b820191906000526020600020905b81548152906001019060200180831161177a57829003601f168201915b5050505050905090565b606060008214156117e9576040518060400160405280600181526020017f30000000000000000000000000000000000000000000000000000000000000008152509050611949565b600082905060005b6000821461181b578080611804906135fd565b915050600a82611814919061346d565b91506117f1565b60008167ffffffffffffffff81111561185d577f4e487b7100000000000000000000000000000000000000000000000000000000600052604160045260246000fd5b6040519080825280601f01601f19166020018201604052801561188f5781602001600182028036833780820191505090505b5090505b60008514611942576001826118a8919061349e565b9150600a856118b79190613646565b60306118c39190613417565b60f81b8183815181106118ff577f4e487b7100000000000000000000000000000000000000000000000000000000600052603260045260246000fd5b60200101907effffffffffffffffffffffffffffffffffffffffffffffffffffffffffffff1916908160001a905350600a8561193b919061346d565b9450611893565b8093505050505b919050565b600073ffffffffffffffffffffffffffffffffffffffff168473ffffffffffffffffffffffffffffffffffffffff1614156119be576040517f08c379a00000000000000000000000000000000000000000000000000000000081526004016119b5906130e0565b60405180910390fd5b6001821015611a02576040517f08c379a00000000000000000000000000000000000000000000000000000000081526004016119f990613240565b60405180910390fd5b6000611a0c6111d9565b90506000611a1a87866103ca565b905083811015611a5f576040517f08c379a0000000000000000000000000000000000000000000000000000000008152600401611a5690613160565b60405180910390fd5b611a6a878787611b69565b8573ffffffffffffffffffffffffffffffffffffffff168773ffffffffffffffffffffffffffffffffffffffff168373ffffffffffffffffffffffffffffffffffffffff167fc3d58168c5ae7397731d063d5bbf3d657854427343f4c083240f7aacaa2d0f628888604051611ae09291906132c4565b60405180910390a4611af6828888888888612008565b50505050505050565b60007f01ffc9a7000000000000000000000000000000000000000000000000000000007bffffffffffffffffffffffffffffffffffffffffffffffffffffffff1916827bffffffffffffffffffffffffffffffffffffffffffffffffffffffff1916149050919050565b8273ffffffffffffffffffffffffffffffffffffffff16611b8982610a78565b73ffffffffffffffffffffffffffffffffffffffff1614611bdf576040517f08c379a0000000000000000000000000000000000000000000000000000000008152600401611bd6906131a0565b60405180910390fd5b600073ffffffffffffffffffffffffffffffffffffffff168273ffffffffffffffffffffffffffffffffffffffff161415611c4f576040517f08c379a0000000000000000000000000000000000000000000000000000000008152600401611c4690613060565b60405180910390fd5b611c5a8383836121ef565b611c656000826111e1565b6001600360008573ffffffffffffffffffffffffffffffffffffffff1673ffffffffffffffffffffffffffffffffffffffff1681526020019081526020016000206000828254611cb5919061349e565b925050819055506001600360008473ffffffffffffffffffffffffffffffffffffffff1673ffffffffffffffffffffffffffffffffffffffff1681526020019081526020016000206000828254611d0c9190613417565b92505081905550816002600083815260200190815260200160002060006101000a81548173ffffffffffffffffffffffffffffffffffffffff021916908373ffffffffffffffffffffffffffffffffffffffff160217905550808273ffffffffffffffffffffffffffffffffffffffff168473ffffffffffffffffffffffffffffffffffffffff167fddf252ad1be2c89b69c2b068fc378daa952ba7f163c4a11628f55a4df523b3ef60405160405180910390a4505050565b611de48473ffffffffffffffffffffffffffffffffffffffff166121f4565b15611fa4578373ffffffffffffffffffffffffffffffffffffffff1663bc197c8187878686866040518663ffffffff1660e01b8152600401611e2a959493929190612e1c565b602060405180830381600087803b158015611e4457600080fd5b505af1925050508015611e7557506040513d601f19601f82011682018060405250810190611e729190612925565b60015b611f1b57611e81613733565b806308c379a01415611ede5750611e96613df1565b80611ea15750611ee0565b806040517f08c379a0000000000000000000000000000000000000000000000000000000008152600401611ed59190612f9e565b60405180910390fd5b505b6040517f08c379a0000000000000000000000000000000000000000000000000000000008152600401611f1290612fc0565b60405180910390fd5b63bc197c8160e01b7bffffffffffffffffffffffffffffffffffffffffffffffffffffffff1916817bffffffffffffffffffffffffffffffffffffffffffffffffffffffff191614611fa2576040517f08c379a0000000000000000000000000000000000000000000000000000000008152600401611f9990612fe0565b60405180910390fd5b505b505050505050565b611fb7848484611b69565b611fc384848484612207565b612002576040517f08c379a0000000000000000000000000000000000000000000000000000000008152600401611ff990613000565b60405180910390fd5b50505050565b6120278473ffffffffffffffffffffffffffffffffffffffff166121f4565b156121e7578373ffffffffffffffffffffffffffffffffffffffff1663f23a6e6187878686866040518663ffffffff1660e01b815260040161206d959493929190612ed0565b602060405180830381600087803b15801561208757600080fd5b505af19250505080156120b857506040513d601f19601f820116820180604052508101906120b59190612925565b60015b61215e576120c4613733565b806308c379a0141561212157506120d9613df1565b806120e45750612123565b806040517f08c379a00000000000000000000000000000000000000000000000000000000081526004016121189190612f9e565b60405180910390fd5b505b6040517f08c379a000000000000000000000000000000000000000000000000000000000815260040161215590612fc0565b60405180910390fd5b63f23a6e6160e01b7bffffffffffffffffffffffffffffffffffffffffffffffffffffffff1916817bffffffffffffffffffffffffffffffffffffffffffffffffffffffff1916146121e5576040517f08c379a00000000000000000000000000000000000000000000000000000000081526004016121dc90612fe0565b60405180910390fd5b505b505050505050565b505050565b600080823b905060008111915050919050565b60006122288473ffffffffffffffffffffffffffffffffffffffff166121f4565b15612391578373ffffffffffffffffffffffffffffffffffffffff1663150b7a026122516111d9565b8786866040518563ffffffff1660e01b81526004016122739493929190612e84565b602060405180830381600087803b15801561228d57600080fd5b505af19250505080156122be57506040513d601f19601f820116820180604052508101906122bb9190612925565b60015b612341573d80600081146122ee576040519150601f19603f3d011682016040523d82523d6000602084013e6122f3565b606091505b50600081511415612339576040517f08c379a000000000000000000000000000000000000000000000000000000000815260040161233090613000565b60405180910390fd5b805181602001fd5b63150b7a0260e01b7bffffffffffffffffffffffffffffffffffffffffffffffffffffffff1916817bffffffffffffffffffffffffffffffffffffffffffffffffffffffff191614915050612396565b600190505b949350505050565b60006123b16123ac84613312565b6132ed565b905080838252602082019050828560208602820111156123d057600080fd5b60005b8581101561240057816123e688826124b4565b8452602084019350602083019250506001810190506123d3565b5050509392505050565b600061241d6124188461333e565b6132ed565b9050808382526020820190508285602086028201111561243c57600080fd5b60005b8581101561246c57816124528882612586565b84526020840193506020830192505060018101905061243f565b5050509392505050565b60006124896124848461336a565b6132ed565b9050828152602081018484840111156124a157600080fd5b6124ac848285613558565b509392505050565b6000813590506124c381613e87565b92915050565b600082601f8301126124da57600080fd5b81356124ea84826020860161239e565b91505092915050565b600082601f83011261250457600080fd5b813561251484826020860161240a565b91505092915050565b60008135905061252c81613e9e565b92915050565b60008135905061254181613eb5565b92915050565b60008151905061255681613eb5565b92915050565b600082601f83011261256d57600080fd5b813561257d848260208601612476565b91505092915050565b60008135905061259581613ecc565b92915050565b6000602082840312156125ad57600080fd5b60006125bb848285016124b4565b91505092915050565b600080604083850312156125d757600080fd5b60006125e5858286016124b4565b92505060206125f6858286016124b4565b9150509250929050565b600080600080600060a0868803121561261857600080fd5b6000612626888289016124b4565b9550506020612637888289016124b4565b945050604086013567ffffffffffffffff81111561265457600080fd5b612660888289016124f3565b935050606086013567ffffffffffffffff81111561267d57600080fd5b612689888289016124f3565b925050608086013567ffffffffffffffff8111156126a657600080fd5b6126b28882890161255c565b9150509295509295909350565b6000806000606084860312156126d457600080fd5b60006126e2868287016124b4565b93505060206126f3868287016124b4565b925050604061270486828701612586565b9150509250925092565b6000806000806080858703121561272457600080fd5b6000612732878288016124b4565b9450506020612743878288016124b4565b935050604061275487828801612586565b925050606085013567ffffffffffffffff81111561277157600080fd5b61277d8782880161255c565b91505092959194509250565b600080600080600060a086880312156127a157600080fd5b60006127af888289016124b4565b95505060206127c0888289016124b4565b94505060406127d188828901612586565b93505060606127e288828901612586565b925050608086013567ffffffffffffffff8111156127ff57600080fd5b61280b8882890161255c565b9150509295509295909350565b6000806040838503121561282b57600080fd5b6000612839858286016124b4565b925050602061284a8582860161251d565b9150509250929050565b6000806040838503121561286757600080fd5b6000612875858286016124b4565b925050602061288685828601612586565b9150509250929050565b600080604083850312156128a357600080fd5b600083013567ffffffffffffffff8111156128bd57600080fd5b6128c9858286016124c9565b925050602083013567ffffffffffffffff8111156128e657600080fd5b6128f2858286016124f3565b9150509250929050565b60006020828403121561290e57600080fd5b600061291c84828501612532565b91505092915050565b60006020828403121561293757600080fd5b600061294584828501612547565b91505092915050565b60006020828403121561296057600080fd5b600061296e84828501612586565b91505092915050565b60006129838383612dbf565b60208301905092915050565b612998816134d2565b82525050565b60006129a9826133ab565b6129b381856133d9565b93506129be8361339b565b8060005b838110156129ef5781516129d68882612977565b97506129e1836133cc565b9250506001810190506129c2565b5085935050505092915050565b612a05816134e4565b82525050565b6000612a16826133b6565b612a2081856133ea565b9350612a30818560208601613567565b612a3981613755565b840191505092915050565b612a4d81613546565b82525050565b6000612a5e826133c1565b612a6881856133fb565b9350612a78818560208601613567565b612a8181613755565b840191505092915050565b6000612a97826133c1565b612aa1818561340c565b9350612ab1818560208601613567565b80840191505092915050565b6000612aca6034836133fb565b9150612ad582613773565b604082019050919050565b6000612aed6028836133fb565b9150612af8826137c2565b604082019050919050565b6000612b106032836133fb565b9150612b1b82613811565b604082019050919050565b6000612b33602b836133fb565b9150612b3e82613860565b604082019050919050565b6000612b566029836133fb565b9150612b61826138af565b604082019050919050565b6000612b796024836133fb565b9150612b84826138fe565b604082019050919050565b6000612b9c6019836133fb565b9150612ba78261394d565b602082019050919050565b6000612bbf602c836133fb565b9150612bca82613976565b604082019050919050565b6000612be26038836133fb565b9150612bed826139c5565b604082019050919050565b6000612c056025836133fb565b9150612c1082613a14565b604082019050919050565b6000612c286032836133fb565b9150612c3382613a63565b604082019050919050565b6000612c4b602a836133fb565b9150612c5682613ab2565b604082019050919050565b6000612c6e6029836133fb565b9150612c7982613b01565b604082019050919050565b6000612c91602a836133fb565b9150612c9c82613b50565b604082019050919050565b6000612cb4602c836133fb565b9150612cbf82613b9f565b604082019050919050565b6000612cd76029836133fb565b9150612ce282613bee565b604082019050919050565b6000612cfa602f836133fb565b9150612d0582613c3d565b604082019050919050565b6000612d1d6021836133fb565b9150612d2882613c8c565b604082019050919050565b6000612d406031836133fb565b9150612d4b82613cdb565b604082019050919050565b6000612d636029836133fb565b9150612d6e82613d2a565b604082019050919050565b6000612d86601c836133fb565b9150612d9182613d79565b602082019050919050565b6000612da96028836133fb565b9150612db482613da2565b604082019050919050565b612dc88161353c565b82525050565b612dd78161353c565b82525050565b6000612de98285612a8c565b9150612df58284612a8c565b91508190509392505050565b6000602082019050612e16600083018461298f565b92915050565b600060a082019050612e31600083018861298f565b612e3e602083018761298f565b8181036040830152612e50818661299e565b90508181036060830152612e64818561299e565b90508181036080830152612e788184612a0b565b90509695505050505050565b6000608082019050612e99600083018761298f565b612ea6602083018661298f565b612eb36040830185612dce565b8181036060830152612ec58184612a0b565b905095945050505050565b600060a082019050612ee5600083018861298f565b612ef2602083018761298f565b612eff6040830186612dce565b612f0c6060830185612dce565b8181036080830152612f1e8184612a0b565b90509695505050505050565b60006020820190508181036000830152612f44818461299e565b905092915050565b60006040820190508181036000830152612f66818561299e565b90508181036020830152612f7a818461299e565b90509392505050565b6000602082019050612f9860008301846129fc565b92915050565b60006020820190508181036000830152612fb88184612a53565b905092915050565b60006020820190508181036000830152612fd981612abd565b9050919050565b60006020820190508181036000830152612ff981612ae0565b9050919050565b6000602082019050818103600083015261301981612b03565b9050919050565b6000602082019050818103600083015261303981612b26565b9050919050565b6000602082019050818103600083015261305981612b49565b9050919050565b6000602082019050818103600083015261307981612b6c565b9050919050565b6000602082019050818103600083015261309981612b8f565b9050919050565b600060208201905081810360008301526130b981612bb2565b9050919050565b600060208201905081810360008301526130d981612bd5565b9050919050565b600060208201905081810360008301526130f981612bf8565b9050919050565b6000602082019050818103600083015261311981612c1b565b9050919050565b6000602082019050818103600083015261313981612c3e565b9050919050565b6000602082019050818103600083015261315981612c61565b9050919050565b6000602082019050818103600083015261317981612c84565b9050919050565b6000602082019050818103600083015261319981612ca7565b9050919050565b600060208201905081810360008301526131b981612cca565b9050919050565b600060208201905081810360008301526131d981612ced565b9050919050565b600060208201905081810360008301526131f981612d10565b9050919050565b6000602082019050818103600083015261321981612d33565b9050919050565b6000602082019050818103600083015261323981612d56565b9050919050565b6000602082019050818103600083015261325981612d79565b9050919050565b6000602082019050818103600083015261327981612d9c565b9050919050565b60006020820190506132956000830184612dce565b92915050565b60006040820190506132b06000830185612dce565b6132bd6020830184612a44565b9392505050565b60006040820190506132d96000830185612dce565b6132e66020830184612dce565b9392505050565b60006132f7613308565b905061330382826135cc565b919050565b6000604051905090565b600067ffffffffffffffff82111561332d5761332c613704565b5b602082029050602081019050919050565b600067ffffffffffffffff82111561335957613358613704565b5b602082029050602081019050919050565b600067ffffffffffffffff82111561338557613384613704565b5b61338e82613755565b9050602081019050919050565b6000819050602082019050919050565b600081519050919050565b600081519050919050565b600081519050919050565b6000602082019050919050565b600082825260208201905092915050565b600082825260208201905092915050565b600082825260208201905092915050565b600081905092915050565b60006134228261353c565b915061342d8361353c565b9250827fffffffffffffffffffffffffffffffffffffffffffffffffffffffffffffffff0382111561346257613461613677565b5b828201905092915050565b60006134788261353c565b91506134838361353c565b925082613493576134926136a6565b5b828204905092915050565b60006134a98261353c565b91506134b48361353c565b9250828210156134c7576134c6613677565b5b828203905092915050565b60006134dd8261351c565b9050919050565b60008115159050919050565b60007fffffffff0000000000000000000000000000000000000000000000000000000082169050919050565b600073ffffffffffffffffffffffffffffffffffffffff82169050919050565b6000819050919050565b60006135518261353c565b9050919050565b82818337600083830152505050565b60005b8381101561358557808201518184015260208101905061356a565b83811115613594576000848401525b50505050565b600060028204905060018216806135b257607f821691505b602082108114156135c6576135c56136d5565b5b50919050565b6135d582613755565b810181811067ffffffffffffffff821117156135f4576135f3613704565b5b80604052505050565b60006136088261353c565b91507fffffffffffffffffffffffffffffffffffffffffffffffffffffffffffffffff82141561363b5761363a613677565b5b600182019050919050565b60006136518261353c565b915061365c8361353c565b92508261366c5761366b6136a6565b5b828206905092915050565b7f4e487b7100000000000000000000000000000000000000000000000000000000600052601160045260246000fd5b7f4e487b7100000000000000000000000000000000000000000000000000000000600052601260045260246000fd5b7f4e487b7100000000000000000000000000000000000000000000000000000000600052602260045260246000fd5b7f4e487b7100000000000000000000000000000000000000000000000000000000600052604160045260246000fd5b600060033d11156137525760046000803e61374f600051613766565b90505b90565b6000601f19601f8301169050919050565b60008160e01c9050919050565b7f455243313135353a207472616e7366657220746f206e6f6e204552433131353560008201527f526563656976657220696d706c656d656e746572000000000000000000000000602082015250565b7f455243313135353a204552433131353552656365697665722072656a6563746560008201527f6420746f6b656e73000000000000000000000000000000000000000000000000602082015250565b7f4552433732313a207472616e7366657220746f206e6f6e20455243373231526560008201527f63656976657220696d706c656d656e7465720000000000000000000000000000602082015250565b7f455243313135353a2062616c616e636520717565727920666f7220746865207a60008201527f65726f2061646472657373000000000000000000000000000000000000000000602082015250565b7f455243313135353a2063616c6c6572206973206e6f74206f776e6572206e6f7260008201527f20617070726f7665640000000000000000000000000000000000000000000000602082015250565b7f4552433732313a207472616e7366657220746f20746865207a65726f2061646460008201527f7265737300000000000000000000000000000000000000000000000000000000602082015250565b7f4552433732313a20617070726f766520746f2063616c6c657200000000000000600082015250565b7f4552433732313a206f70657261746f7220717565727920666f72206e6f6e657860008201527f697374656e7420746f6b656e0000000000000000000000000000000000000000602082015250565b7f4552433732313a20617070726f76652063616c6c6572206973206e6f74206f7760008201527f6e6572206e6f7220617070726f76656420666f7220616c6c0000000000000000602082015250565b7f455243313135353a207472616e7366657220746f20746865207a65726f20616460008201527f6472657373000000000000000000000000000000000000000000000000000000602082015250565b7f455243313135353a207472616e736665722063616c6c6572206973206e6f742060008201527f6f776e6572206e6f7220617070726f7665640000000000000000000000000000602082015250565b7f4552433732313a2062616c616e636520717565727920666f7220746865207a6560008201527f726f206164647265737300000000000000000000000000000000000000000000602082015250565b7f4552433732313a206f776e657220717565727920666f72206e6f6e657869737460008201527f656e7420746f6b656e0000000000000000000000000000000000000000000000602082015250565b7f455243313135353a20696e73756666696369656e742062616c616e636520666f60008201527f72207472616e7366657200000000000000000000000000000000000000000000602082015250565b7f4552433732313a20617070726f76656420717565727920666f72206e6f6e657860008201527f697374656e7420746f6b656e0000000000000000000000000000000000000000602082015250565b7f4552433732313a207472616e73666572206f6620746f6b656e2074686174206960008201527f73206e6f74206f776e0000000000000000000000000000000000000000000000602082015250565b7f4552433732314d657461646174613a2055524920717565727920666f72206e6f60008201527f6e6578697374656e7420746f6b656e0000000000000000000000000000000000602082015250565b7f4552433732313a20617070726f76616c20746f2063757272656e74206f776e6560008201527f7200000000000000000000000000000000000000000000000000000000000000602082015250565b7f4552433732313a207472616e736665722063616c6c6572206973206e6f74206f60008201527f776e6572206e6f7220617070726f766564000000000000000000000000000000602082015250565b7f455243313135353a206163636f756e747320616e6420696473206c656e67746860008201527f206d69736d617463680000000000000000000000000000000000000000000000602082015250565b7f455243313135353a207472616e73666572207a65726f20636f756e7400000000600082015250565b7f455243313135353a2069647320616e6420616d6f756e7473206c656e6774682060008201527f6d69736d61746368000000000000000000000000000000000000000000000000602082015250565b600060443d1015613e0157613e84565b613e09613308565b60043d036004823e80513d602482011167ffffffffffffffff82111715613e31575050613e84565b808201805167ffffffffffffffff811115613e4f5750505050613e84565b80602083010160043d038501811115613e6c575050505050613e84565b613e7b826020018501866135cc565b82955050505050505b90565b613e90816134d2565b8114613e9b57600080fd5b50565b613ea7816134e4565b8114613eb257600080fd5b50565b613ebe816134f0565b8114613ec957600080fd5b50565b613ed58161353c565b8114613ee057600080fd5b5056fea26469706673582212207dc507c3095a2c75457a71f32a10f6c8bb2d26844b98187ced4ef82ff6fc4d5f64736f6c63430008040033",
  "immutableReferences": {},
  "source": "// SPDX-License-Identifier: MIT\r\n\r\npragma solidity ^0.8.0;\r\n\r\nimport \"@openzeppelin/contracts/token/ERC721/ERC721.sol\";\r\n// import \"@openzeppelin/contracts/token/ERC1155/IERC1155.sol\";\r\nimport \"@openzeppelin/contracts/token/ERC1155/IERC1155Receiver.sol\";\r\nimport \"@openzeppelin/contracts/token/ERC1155/extensions/IERC1155MetadataURI.sol\";\r\nimport \"@openzeppelin/contracts/utils/Address.sol\";\r\nimport \"@openzeppelin/contracts/utils/Context.sol\";\r\nimport \"@openzeppelin/contracts/utils/introspection/ERC165.sol\";\r\nimport \"./IERC1155MetadataURIDiffIERC721.sol\";\r\n\r\n/**\r\n * @dev Based on ERC1155, Extends ERC721 with implement IERC1155.\r\n * Implementation of the basic standard multi-token.\r\n * See https://eips.ethereum.org/EIPS/eip-1155\r\n * Originally based on code by Enjin: https://github.com/enjin/erc-1155\r\n *\r\n * _Available since v3.1._\r\n */\r\ncontract ERC721WithIERC1155 is ERC721, IERC1155MetadataURIDiffIERC721 {\r\n    using Address for address;\r\n\r\n    // Used as the URI for all token types by relying on ID substitution, e.g. https://token-cdn-domain/{id}.json\r\n    string private _uri;\r\n\r\n    /**\r\n     * @dev See {_setURI}.\r\n     */\r\n    constructor(string memory name_, string memory symbol_, string memory uri_) ERC721(name_, symbol_) {\r\n        _setURI(uri_);\r\n    }\r\n\r\n    /**\r\n     * @dev See {IERC165-supportsInterface}.\r\n     */\r\n    function supportsInterface(bytes4 interfaceId) public view virtual override(ERC721, IERC165) returns (bool) {\r\n        return\r\n            interfaceId == type(IERC1155).interfaceId ||\r\n            interfaceId == type(IERC1155MetadataURI).interfaceId ||\r\n            super.supportsInterface(interfaceId);\r\n    }\r\n\r\n    /**\r\n     * @dev See {IERC1155MetadataURI-uri}.\r\n     *\r\n     * This implementation returns the same URI for *all* token types. It relies\r\n     * on the token type ID substitution mechanism\r\n     * https://eips.ethereum.org/EIPS/eip-1155#metadata[defined in the EIP].\r\n     *\r\n     * Clients calling this function must replace the `\\{id\\}` substring with the\r\n     * actual token type ID.\r\n     */\r\n    function uri(uint256 tokenId) public view virtual override returns (string memory) {\r\n        return tokenURI(tokenId);\r\n    }\r\n\r\n    /**\r\n     * @dev Base URI for computing {tokenURI}. If set, the resulting URI for each\r\n     * token will be the concatenation of the `baseURI` and the `tokenId`. Empty\r\n     * by default, can be overriden in child contracts.\r\n     */\r\n    function _baseURI() internal view virtual override returns (string memory) {\r\n        return _uri;\r\n    }\r\n\r\n\r\n    function _uncheckedBalanceOf(address account, uint256 id) internal view virtual returns (uint256) {\r\n        address owner = ERC721.ownerOf(id);\r\n        if (account == owner) {\r\n            return 1;\r\n        }\r\n        return 0;\r\n    }\r\n\r\n    /**\r\n     * @dev See {IERC1155-balanceOf}.\r\n     *\r\n     * Requirements:\r\n     *\r\n     * - `account` cannot be the zero address.\r\n     */\r\n    function balanceOf(address account, uint256 id) public view virtual override returns (uint256) {\r\n        require(account != address(0), \"ERC1155: balance query for the zero address\");\r\n        return _uncheckedBalanceOf(account, id);\r\n    }\r\n\r\n    /**\r\n     * @dev See {IERC1155-balanceOfBatch}.\r\n     *\r\n     * Requirements:\r\n     *\r\n     * - `accounts` and `ids` must have the same length.\r\n     */\r\n    function balanceOfBatch(address[] memory accounts, uint256[] memory ids)\r\n        public\r\n        view\r\n        virtual\r\n        override\r\n        returns (uint256[] memory)\r\n    {\r\n        require(accounts.length == ids.length, \"ERC1155: accounts and ids length mismatch\");\r\n\r\n        uint256[] memory batchBalances = new uint256[](accounts.length);\r\n\r\n        for (uint256 i = 0; i < accounts.length; ++i) {\r\n            batchBalances[i] = balanceOf(accounts[i], ids[i]);\r\n        }\r\n\r\n        return batchBalances;\r\n    }\r\n\r\n    /**\r\n     * @dev See {IERC1155-safeTransferFrom}.\r\n     */\r\n    function safeTransferFrom(\r\n        address from,\r\n        address to,\r\n        uint256 id,\r\n        uint256 amount,\r\n        bytes memory data\r\n    ) public virtual override {\r\n        require(\r\n            from == _msgSender() || isApprovedForAll(from, _msgSender()),\r\n            \"ERC1155: caller is not owner nor approved\"\r\n        );\r\n        _safeTransferFrom(from, to, id, amount, data);\r\n    }\r\n\r\n    /**\r\n     * @dev See {IERC1155-safeBatchTransferFrom}.\r\n     */\r\n    function safeBatchTransferFrom(\r\n        address from,\r\n        address to,\r\n        uint256[] memory ids,\r\n        uint256[] memory amounts,\r\n        bytes memory data\r\n    ) public virtual override {\r\n        require(\r\n            from == _msgSender() || isApprovedForAll(from, _msgSender()),\r\n            \"ERC1155: transfer caller is not owner nor approved\"\r\n        );\r\n        _safeBatchTransferFrom(from, to, ids, amounts, data);\r\n    }\r\n\r\n    /**\r\n     * @dev Transfers `amount` tokens of token type `id` from `from` to `to`.\r\n     *\r\n     * Emits a {TransferSingle} event.\r\n     *\r\n     * Requirements:\r\n     *\r\n     * - `to` cannot be the zero address.\r\n     * - `from` must have a balance of tokens of type `id` of at least `amount`.\r\n     * - If `to` refers to a smart contract, it must implement {IERC1155Receiver-onERC1155Received} and return the\r\n     * acceptance magic value.\r\n     */\r\n    function _safeTransferFrom(\r\n        address from,\r\n        address to,\r\n        uint256 id,\r\n        uint256 amount,\r\n        bytes memory data\r\n    ) internal virtual {\r\n        require(to != address(0), \"ERC1155: transfer to the zero address\");\r\n        require(amount >= 1, \"ERC1155: transfer zero count\");\r\n\r\n        address operator = _msgSender();\r\n\r\n        uint256 fromBalance = balanceOf(from, id);\r\n        require(fromBalance >= amount, \"ERC1155: insufficient balance for transfer\");\r\n\r\n        ERC721._transfer(from, to, id);\r\n\r\n        emit TransferSingle(operator, from, to, id, amount);\r\n\r\n        _doSafeTransferAcceptanceCheck(operator, from, to, id, amount, data);\r\n    }\r\n\r\n    /**\r\n     * @dev xref:ROOT:erc1155.adoc#batch-operations[Batched] version of {_safeTransferFrom}.\r\n     *\r\n     * Emits a {TransferBatch} event.\r\n     *\r\n     * Requirements:\r\n     *\r\n     * - If `to` refers to a smart contract, it must implement {IERC1155Receiver-onERC1155BatchReceived} and return the\r\n     * acceptance magic value.\r\n     */\r\n    function _safeBatchTransferFrom(\r\n        address from,\r\n        address to,\r\n        uint256[] memory ids,\r\n        uint256[] memory amounts,\r\n        bytes memory data\r\n    ) internal virtual {\r\n        require(ids.length == amounts.length, \"ERC1155: ids and amounts length mismatch\");\r\n        require(to != address(0), \"ERC1155: transfer to the zero address\");\r\n\r\n        address operator = _msgSender();\r\n\r\n        for (uint256 i = 0; i < ids.length; ++i) {\r\n            uint256 id = ids[i];\r\n            uint256 amount = amounts[i];\r\n            require(amount >= 1, \"ERC1155: transfer zero count\");\r\n\r\n            uint256 fromBalance = balanceOf(from, id);\r\n            require(fromBalance >= amount, \"ERC1155: insufficient balance for transfer\");\r\n            \r\n            ERC721._transfer(from, to, id);\r\n        }\r\n\r\n        emit TransferBatch(operator, from, to, ids, amounts);\r\n\r\n        _doSafeBatchTransferAcceptanceCheck(operator, from, to, ids, amounts, data);\r\n    }\r\n\r\n    /**\r\n     * @dev Sets a new URI for all token types, by relying on the token type ID\r\n     * substitution mechanism\r\n     * https://eips.ethereum.org/EIPS/eip-1155#metadata[defined in the EIP].\r\n     *\r\n     * By this mechanism, any occurrence of the `\\{id\\}` substring in either the\r\n     * URI or any of the amounts in the JSON file at said URI will be replaced by\r\n     * clients with the token type ID.\r\n     *\r\n     * For example, the `https://token-cdn-domain/\\{id\\}.json` URI would be\r\n     * interpreted by clients as\r\n     * `https://token-cdn-domain/000000000000000000000000000000000000000000000000000000000004cce0.json`\r\n     * for token type ID 0x4cce0.\r\n     *\r\n     * See {uri}.\r\n     *\r\n     * Because these URIs cannot be meaningfully represented by the {URI} event,\r\n     * this function emits no events.\r\n     */\r\n    function _setURI(string memory newuri) internal virtual {\r\n        _uri = newuri;\r\n    }\r\n\r\n    /**\r\n     * @dev xref:ROOT:erc1155.adoc#batch-operations[Batched] version of {_mint}.\r\n     *\r\n     * Requirements:\r\n     *\r\n     * - `ids` and `amounts` must have the same length.\r\n     * - If `to` refers to a smart contract, it must implement {IERC1155Receiver-onERC1155BatchReceived} and return the\r\n     * acceptance magic value.\r\n     */\r\n    function _mintBatch(\r\n        address to,\r\n        uint256[] memory ids,\r\n        uint256[] memory amounts,\r\n        bytes memory data\r\n    ) internal virtual {\r\n        require(to != address(0), \"ERC1155: mint to the zero address\");\r\n        require(ids.length == amounts.length, \"ERC1155: ids and amounts length mismatch\");\r\n\r\n        address operator = _msgSender();\r\n\r\n        for (uint256 i = 0; i < ids.length; i++) {\r\n            require(amounts[i] == 1, \"ERC721WithIERC1155: amount only support 1\");\r\n            ERC721._mint(to, ids[i]);\r\n        }\r\n\r\n        emit TransferBatch(operator, address(0), to, ids, amounts);\r\n\r\n        _doSafeBatchTransferAcceptanceCheck(operator, address(0), to, ids, amounts, data);\r\n    }\r\n\r\n\r\n    /**\r\n     * @dev Hook that is called before any token transfer. This includes minting\r\n     * and burning, as well as batched variants.\r\n     *\r\n     * The same hook is called on both single and batched variants. For single\r\n     * transfers, the length of the `id` and `amount` arrays will be 1.\r\n     *\r\n     * Calling conditions (for each `id` and `amount` pair):\r\n     *\r\n     * - When `from` and `to` are both non-zero, `amount` of ``from``'s tokens\r\n     * of token type `id` will be  transferred to `to`.\r\n     * - When `from` is zero, `amount` tokens of token type `id` will be minted\r\n     * for `to`.\r\n     * - when `to` is zero, `amount` of ``from``'s tokens of token type `id`\r\n     * will be burned.\r\n     * - `from` and `to` are never both zero.\r\n     * - `ids` and `amounts` have the same, non-zero length.\r\n     *\r\n     * To learn more about hooks, head to xref:ROOT:extending-contracts.adoc#using-hooks[Using Hooks].\r\n     */\r\n    function _beforeTokenTransfer(\r\n        address operator,\r\n        address from,\r\n        address to,\r\n        uint256[] memory ids,\r\n        uint256[] memory amounts,\r\n        bytes memory data\r\n    ) internal virtual {}\r\n\r\n    function _doSafeTransferAcceptanceCheck(\r\n        address operator,\r\n        address from,\r\n        address to,\r\n        uint256 id,\r\n        uint256 amount,\r\n        bytes memory data\r\n    ) private {\r\n        if (to.isContract()) {\r\n            try IERC1155Receiver(to).onERC1155Received(operator, from, id, amount, data) returns (bytes4 response) {\r\n                if (response != IERC1155Receiver.onERC1155Received.selector) {\r\n                    revert(\"ERC1155: ERC1155Receiver rejected tokens\");\r\n                }\r\n            } catch Error(string memory reason) {\r\n                revert(reason);\r\n            } catch {\r\n                revert(\"ERC1155: transfer to non ERC1155Receiver implementer\");\r\n            }\r\n        }\r\n    }\r\n\r\n    function _doSafeBatchTransferAcceptanceCheck(\r\n        address operator,\r\n        address from,\r\n        address to,\r\n        uint256[] memory ids,\r\n        uint256[] memory amounts,\r\n        bytes memory data\r\n    ) private {\r\n        if (to.isContract()) {\r\n            try IERC1155Receiver(to).onERC1155BatchReceived(operator, from, ids, amounts, data) returns (\r\n                bytes4 response\r\n            ) {\r\n                if (response != IERC1155Receiver.onERC1155BatchReceived.selector) {\r\n                    revert(\"ERC1155: ERC1155Receiver rejected tokens\");\r\n                }\r\n            } catch Error(string memory reason) {\r\n                revert(reason);\r\n            } catch {\r\n                revert(\"ERC1155: transfer to non ERC1155Receiver implementer\");\r\n            }\r\n        }\r\n    }\r\n\r\n    function _asSingletonArray(uint256 element) private pure returns (uint256[] memory) {\r\n        uint256[] memory array = new uint256[](1);\r\n        array[0] = element;\r\n\r\n        return array;\r\n    }\r\n\r\n\r\n    // override ERC721 make sure all ERC1155 events emit correct\r\n\r\n    /**\r\n     * @dev See {IERC721-transferFrom}.\r\n     */\r\n    function transferFrom(\r\n        address from,\r\n        address to,\r\n        uint256 tokenId\r\n    ) public virtual override {\r\n\r\n        ERC721.transferFrom(from, to, tokenId);\r\n        emit TransferSingle(_msgSender(), from, to, tokenId, 1);\r\n    }\r\n    \r\n    function _safeTransfer(\r\n        address from,\r\n        address to,\r\n        uint256 tokenId,\r\n        bytes memory _data\r\n    ) internal virtual override {\r\n        ERC721._safeTransfer(from, to, tokenId, _data);\r\n        emit TransferSingle(_msgSender(), from, to, tokenId, 1);\r\n    }\r\n\r\n    function _burn(uint256 tokenId) internal virtual override {\r\n        address owner = ERC721.ownerOf(tokenId);\r\n        ERC721._burn(tokenId);\r\n        emit TransferSingle(_msgSender(), owner, address(0), tokenId, 1);\r\n    }\r\n\r\n\r\n    function _mintERC721(address to, uint256 tokenId) internal virtual {\r\n        ERC721._mint(to, tokenId);\r\n        emit TransferSingle(_msgSender(), address(0), to, tokenId, 1);\r\n    }\r\n    \r\n    function _safeMint(\r\n        address to,\r\n        uint256 tokenId,\r\n        bytes memory _data\r\n    ) internal virtual override {\r\n        ERC721._safeMint(to, tokenId, _data);\r\n        emit TransferSingle(_msgSender(), address(0), to, tokenId, 1);\r\n    }\r\n\r\n    function _mintBatchERC721(\r\n        address to,\r\n        uint256[] memory ids\r\n    ) internal virtual {\r\n        require(to != address(0), \"ERC1155: mint to the zero address\");\r\n\r\n        address operator = _msgSender();\r\n\r\n        uint256[] memory amounts = new uint256[](ids.length);\r\n        for (uint256 i = 0; i < ids.length; i++) {\r\n            ERC721._mint(to, ids[i]);\r\n            amounts[i] = 1;\r\n        }\r\n\r\n        emit TransferBatch(operator, address(0), to, ids, amounts);\r\n    }\r\n    \r\n\r\n    function _safeMintBatchERC721(\r\n        address to,\r\n        uint256[] memory ids,\r\n        bytes memory data\r\n    ) internal virtual {\r\n        require(to != address(0), \"ERC1155: mint to the zero address\");\r\n\r\n        address operator = _msgSender();\r\n\r\n        uint256[] memory amounts = new uint256[](ids.length);\r\n        for (uint256 i = 0; i < ids.length; i++) {\r\n            ERC721._safeMint(to, ids[i], data);\r\n            amounts[i] = 1;\r\n        }\r\n\r\n        emit TransferBatch(operator, address(0), to, ids, amounts);\r\n    }\r\n}\r\n",
  "sourcePath": "C:/Users/quan/Work/WorkSpace/JoyGame/JoyTD/web/contracts/contracts/ERC721WithIERC1155.sol",
  "compiler": {
    "name": "solc",
    "version": "0.8.4+commit.c7e474f2.Emscripten.clang"
  },
  "schemaVersion": "3.3.4",
  "updatedAt": "2021-11-16T07:57:49.530Z",
  "devdoc": {
    "details": "Based on ERC1155, Extends ERC721 with implement IERC1155. Implementation of the basic standard multi-token. See https://eips.ethereum.org/EIPS/eip-1155 Originally based on code by Enjin: https://github.com/enjin/erc-1155 _Available since v3.1._",
    "kind": "dev",
    "methods": {
      "approve(address,uint256)": {
        "details": "See {IERC721-approve}."
      },
      "balanceOf(address)": {
        "details": "See {IERC721-balanceOf}."
      },
      "balanceOf(address,uint256)": {
        "details": "See {IERC1155-balanceOf}. Requirements: - `account` cannot be the zero address."
      },
      "balanceOfBatch(address[],uint256[])": {
        "details": "See {IERC1155-balanceOfBatch}. Requirements: - `accounts` and `ids` must have the same length."
      },
      "constructor": {
        "details": "See {_setURI}."
      },
      "getApproved(uint256)": {
        "details": "See {IERC721-getApproved}."
      },
      "isApprovedForAll(address,address)": {
        "details": "See {IERC721-isApprovedForAll}."
      },
      "name()": {
        "details": "See {IERC721Metadata-name}."
      },
      "ownerOf(uint256)": {
        "details": "See {IERC721-ownerOf}."
      },
      "safeBatchTransferFrom(address,address,uint256[],uint256[],bytes)": {
        "details": "See {IERC1155-safeBatchTransferFrom}."
      },
      "safeTransferFrom(address,address,uint256)": {
        "details": "See {IERC721-safeTransferFrom}."
      },
      "safeTransferFrom(address,address,uint256,bytes)": {
        "details": "See {IERC721-safeTransferFrom}."
      },
      "safeTransferFrom(address,address,uint256,uint256,bytes)": {
        "details": "See {IERC1155-safeTransferFrom}."
      },
      "setApprovalForAll(address,bool)": {
        "details": "See {IERC721-setApprovalForAll}."
      },
      "supportsInterface(bytes4)": {
        "details": "See {IERC165-supportsInterface}."
      },
      "symbol()": {
        "details": "See {IERC721Metadata-symbol}."
      },
      "tokenURI(uint256)": {
        "details": "See {IERC721Metadata-tokenURI}."
      },
      "transferFrom(address,address,uint256)": {
        "details": "See {IERC721-transferFrom}."
      },
      "uri(uint256)": {
        "details": "See {IERC1155MetadataURI-uri}. This implementation returns the same URI for *all* token types. It relies on the token type ID substitution mechanism https://eips.ethereum.org/EIPS/eip-1155#metadata[defined in the EIP]. Clients calling this function must replace the `\\{id\\}` substring with the actual token type ID."
      }
    },
    "version": 1
  },
  "userdoc": {
    "kind": "user",
    "methods": {},
    "version": 1
  }
}