{
  "contractName": "ROCBlindBox1",
  "abi": [
    {
      "inputs": [
        {
          "internalType": "address",
          "name": "admin1Address",
          "type": "address"
        },
        {
          "internalType": "address",
          "name": "admin2Address",
          "type": "address"
        },
        {
          "internalType": "address",
          "name": "rocNFTAddress",
          "type": "address"
        },
        {
          "internalType": "address",
          "name": "cateCoinTokenAddress",
          "type": "address"
        },
        {
          "internalType": "uint256[]",
          "name": "priceValues",
          "type": "uint256[]"
        }
      ],
      "stateMutability": "nonpayable",
      "type": "constructor"
    },
    {
      "anonymous": false,
      "inputs": [
        {
          "indexed": true,
          "internalType": "address",
          "name": "payer",
          "type": "address"
        },
        {
          "indexed": false,
          "internalType": "uint256",
          "name": "amount",
          "type": "uint256"
        },
        {
          "indexed": true,
          "internalType": "uint8",
          "name": "boxId",
          "type": "uint8"
        },
        {
          "indexed": false,
          "internalType": "uint8",
          "name": "count",
          "type": "uint8"
        },
        {
          "indexed": true,
          "internalType": "uint256",
          "name": "baseBoxIndex",
          "type": "uint256"
        },
        {
          "indexed": false,
          "internalType": "uint256[]",
          "name": "tokenIds",
          "type": "uint256[]"
        },
        {
          "indexed": false,
          "internalType": "uint256",
          "name": "date",
          "type": "uint256"
        }
      ],
      "name": "BlindBoxOpened",
      "type": "event"
    },
    {
      "anonymous": false,
      "inputs": [
        {
          "indexed": true,
          "internalType": "address",
          "name": "previousOwner",
          "type": "address"
        },
        {
          "indexed": true,
          "internalType": "address",
          "name": "newOwner",
          "type": "address"
        }
      ],
      "name": "OwnershipTransferred",
      "type": "event"
    },
    {
      "anonymous": false,
      "inputs": [
        {
          "indexed": false,
          "internalType": "address",
          "name": "account",
          "type": "address"
        }
      ],
      "name": "Paused",
      "type": "event"
    },
    {
      "anonymous": false,
      "inputs": [
        {
          "indexed": false,
          "internalType": "address",
          "name": "account",
          "type": "address"
        }
      ],
      "name": "Unpaused",
      "type": "event"
    },
    {
      "inputs": [],
      "name": "admin1",
      "outputs": [
        {
          "internalType": "address",
          "name": "",
          "type": "address"
        }
      ],
      "stateMutability": "view",
      "type": "function"
    },
    {
      "inputs": [],
      "name": "admin2",
      "outputs": [
        {
          "internalType": "address",
          "name": "",
          "type": "address"
        }
      ],
      "stateMutability": "view",
      "type": "function"
    },
    {
      "inputs": [
        {
          "internalType": "uint256",
          "name": "",
          "type": "uint256"
        }
      ],
      "name": "blindBoxInfos",
      "outputs": [
        {
          "internalType": "uint256",
          "name": "baseTokenId",
          "type": "uint256"
        },
        {
          "internalType": "uint32",
          "name": "nextBoxIndex",
          "type": "uint32"
        },
        {
          "internalType": "uint32",
          "name": "totalCount",
          "type": "uint32"
        },
        {
          "internalType": "uint256",
          "name": "price",
          "type": "uint256"
        }
      ],
      "stateMutability": "view",
      "type": "function"
    },
    {
      "inputs": [],
      "name": "cateCoinToken",
      "outputs": [
        {
          "internalType": "contract IERC20",
          "name": "",
          "type": "address"
        }
      ],
      "stateMutability": "view",
      "type": "function"
    },
    {
      "inputs": [],
      "name": "limitedBuyCount",
      "outputs": [
        {
          "internalType": "uint32",
          "name": "",
          "type": "uint32"
        }
      ],
      "stateMutability": "view",
      "type": "function"
    },
    {
      "inputs": [],
      "name": "owner",
      "outputs": [
        {
          "internalType": "address",
          "name": "",
          "type": "address"
        }
      ],
      "stateMutability": "view",
      "type": "function"
    },
    {
      "inputs": [],
      "name": "paused",
      "outputs": [
        {
          "internalType": "bool",
          "name": "",
          "type": "bool"
        }
      ],
      "stateMutability": "view",
      "type": "function"
    },
    {
      "inputs": [],
      "name": "renounceOwnership",
      "outputs": [],
      "stateMutability": "nonpayable",
      "type": "function"
    },
    {
      "inputs": [],
      "name": "rocNFT",
      "outputs": [
        {
          "internalType": "contract IROCNFTMint",
          "name": "",
          "type": "address"
        }
      ],
      "stateMutability": "view",
      "type": "function"
    },
    {
      "inputs": [],
      "name": "startSellTime",
      "outputs": [
        {
          "internalType": "uint256",
          "name": "",
          "type": "uint256"
        }
      ],
      "stateMutability": "view",
      "type": "function"
    },
    {
      "inputs": [
        {
          "internalType": "address",
          "name": "newOwner",
          "type": "address"
        }
      ],
      "name": "transferOwnership",
      "outputs": [],
      "stateMutability": "nonpayable",
      "type": "function"
    },
    {
      "inputs": [],
      "name": "pause",
      "outputs": [],
      "stateMutability": "nonpayable",
      "type": "function"
    },
    {
      "inputs": [],
      "name": "unpause",
      "outputs": [],
      "stateMutability": "nonpayable",
      "type": "function"
    },
    {
      "inputs": [
        {
          "internalType": "uint256",
          "name": "t",
          "type": "uint256"
        }
      ],
      "name": "setStartSellTime",
      "outputs": [],
      "stateMutability": "nonpayable",
      "type": "function"
    },
    {
      "inputs": [
        {
          "internalType": "uint8[]",
          "name": "boxIds",
          "type": "uint8[]"
        },
        {
          "internalType": "uint256[]",
          "name": "newPriceValues",
          "type": "uint256[]"
        }
      ],
      "name": "updatePrice",
      "outputs": [],
      "stateMutability": "nonpayable",
      "type": "function"
    },
    {
      "inputs": [
        {
          "internalType": "address",
          "name": "user",
          "type": "address"
        },
        {
          "internalType": "uint8",
          "name": "boxId",
          "type": "uint8"
        }
      ],
      "name": "getLeftLimitBuyCount",
      "outputs": [
        {
          "internalType": "uint32",
          "name": "",
          "type": "uint32"
        }
      ],
      "stateMutability": "view",
      "type": "function"
    },
    {
      "inputs": [
        {
          "internalType": "address",
          "name": "user",
          "type": "address"
        }
      ],
      "name": "getAllLeftLimitBuyCount",
      "outputs": [
        {
          "internalType": "uint32[]",
          "name": "",
          "type": "uint32[]"
        }
      ],
      "stateMutability": "view",
      "type": "function"
    },
    {
      "inputs": [
        {
          "internalType": "uint8",
          "name": "boxId",
          "type": "uint8"
        }
      ],
      "name": "getSoldCount",
      "outputs": [
        {
          "internalType": "uint256",
          "name": "",
          "type": "uint256"
        }
      ],
      "stateMutability": "view",
      "type": "function"
    },
    {
      "inputs": [
        {
          "internalType": "uint8",
          "name": "boxId",
          "type": "uint8"
        }
      ],
      "name": "getTotalCount",
      "outputs": [
        {
          "internalType": "uint256",
          "name": "",
          "type": "uint256"
        }
      ],
      "stateMutability": "view",
      "type": "function"
    },
    {
      "inputs": [
        {
          "internalType": "uint8",
          "name": "boxId",
          "type": "uint8"
        }
      ],
      "name": "getPrice",
      "outputs": [
        {
          "internalType": "uint256",
          "name": "",
          "type": "uint256"
        }
      ],
      "stateMutability": "view",
      "type": "function"
    },
    {
      "inputs": [],
      "name": "getBlindBoxViewInfos",
      "outputs": [
        {
          "components": [
            {
              "internalType": "uint32",
              "name": "totalCount",
              "type": "uint32"
            },
            {
              "internalType": "uint32",
              "name": "soldCount",
              "type": "uint32"
            },
            {
              "internalType": "uint256",
              "name": "price",
              "type": "uint256"
            }
          ],
          "internalType": "struct ROCBlindBox1.BlindBoxViewInfo[]",
          "name": "",
          "type": "tuple[]"
        }
      ],
      "stateMutability": "view",
      "type": "function"
    },
    {
      "inputs": [
        {
          "internalType": "uint8",
          "name": "boxId",
          "type": "uint8"
        },
        {
          "internalType": "uint8",
          "name": "count",
          "type": "uint8"
        }
      ],
      "name": "payByToken",
      "outputs": [],
      "stateMutability": "nonpayable",
      "type": "function"
    }
  ],
  "bytecode": "0x608060405260026014806101000a81548163ffffffff021916908363ffffffff1602179055503480156200003257600080fd5b5060405162003856380380620038568339818101604052810190620000589190620005a0565b600160008190555062000080620000746200035c60201b60201c565b6200036460201b60201c565b6000600160146101000a81548160ff0219169083151502179055506004815114620000e2576040517f08c379a0000000000000000000000000000000000000000000000000000000008152600401620000d99062000662565b60405180910390fd5b84601260006101000a81548173ffffffffffffffffffffffffffffffffffffffff021916908373ffffffffffffffffffffffffffffffffffffffff16021790555083601360006101000a81548173ffffffffffffffffffffffffffffffffffffffff021916908373ffffffffffffffffffffffffffffffffffffffff16021790555082601460006101000a81548173ffffffffffffffffffffffffffffffffffffffff021916908373ffffffffffffffffffffffffffffffffffffffff16021790555081601660006101000a81548173ffffffffffffffffffffffffffffffffffffffff021916908373ffffffffffffffffffffffffffffffffffffffff160217905550620002416000612711610460846000815181106200022d577f4e487b7100000000000000000000000000000000000000000000000000000000600052603260045260246000fd5b60200260200101516200042a60201b60201c565b6200029c6001613cf16104608460018151811062000288577f4e487b7100000000000000000000000000000000000000000000000000000000600052603260045260246000fd5b60200260200101516200042a60201b60201c565b620002f760026152d16101ea84600281518110620002e3577f4e487b7100000000000000000000000000000000000000000000000000000000600052603260045260246000fd5b60200260200101516200042a60201b60201c565b620003516003615c636046846003815181106200033d577f4e487b7100000000000000000000000000000000000000000000000000000000600052603260045260246000fd5b60200260200101516200042a60201b60201c565b505050505062000824565b600033905090565b6000600160009054906101000a900473ffffffffffffffffffffffffffffffffffffffff16905081600160006101000a81548173ffffffffffffffffffffffffffffffffffffffff021916908373ffffffffffffffffffffffffffffffffffffffff1602179055508173ffffffffffffffffffffffffffffffffffffffff168173ffffffffffffffffffffffffffffffffffffffff167f8be0079c531659141344cd1fd0a4f28419497f9722a3daafe3b4186f6b6457e060405160405180910390a35050565b600060028560ff16600481106200046a577f4e487b7100000000000000000000000000000000000000000000000000000000600052603260045260246000fd5b60040201905083816000018190555060008160010160006101000a81548163ffffffff021916908363ffffffff160217905550828160010160046101000a81548163ffffffff021916908363ffffffff1602179055508181600201819055505050505050565b6000620004e7620004e184620006ad565b62000684565b905080838252602082019050828560208602820111156200050757600080fd5b60005b858110156200053b578162000520888262000589565b8452602084019350602083019250506001810190506200050a565b5050509392505050565b6000815190506200055681620007f0565b92915050565b600082601f8301126200056e57600080fd5b815162000580848260208601620004d0565b91505092915050565b6000815190506200059a816200080a565b92915050565b600080600080600060a08688031215620005b957600080fd5b6000620005c98882890162000545565b9550506020620005dc8882890162000545565b9450506040620005ef8882890162000545565b9350506060620006028882890162000545565b925050608086015167ffffffffffffffff8111156200062057600080fd5b6200062e888289016200055c565b9150509295509295909350565b60006200064a602883620006dc565b91506200065782620007a1565b604082019050919050565b600060208201905081810360008301526200067d816200063b565b9050919050565b600062000690620006a3565b90506200069e82826200072b565b919050565b6000604051905090565b600067ffffffffffffffff821115620006cb57620006ca62000761565b5b602082029050602081019050919050565b600082825260208201905092915050565b6000620006fa8262000701565b9050919050565b600073ffffffffffffffffffffffffffffffffffffffff82169050919050565b6000819050919050565b620007368262000790565b810181811067ffffffffffffffff8211171562000758576200075762000761565b5b80604052505050565b7f4e487b7100000000000000000000000000000000000000000000000000000000600052604160045260246000fd5b6000601f19601f8301169050919050565b7f636f6e7374727563746f723a20707269636556616c756573206c656e6774682060008201527f6973206e6f742034000000000000000000000000000000000000000000000000602082015250565b620007fb81620006ed565b81146200080757600080fd5b50565b620008158162000721565b81146200082157600080fd5b50565b61302280620008346000396000f3fe608060405234801561001057600080fd5b50600436106101425760003560e01c8063813d88bb116100b857806397aceb681161007c57806397aceb6814610343578063ad0dc2c714610361578063d70627871461037d578063eb469d981461039b578063f2fde38b146103ce578063f470caf4146103ea57610142565b8063813d88bb146102c35780638456cb59146102e1578063871a4bf1146102eb5780638da5cb5b1461030757806393f285191461032557610142565b80633960b15a1161010a5780633960b15a146102015780633f4ba83a146102315780635152c8801461023b5780635aeafefc1461026b5780635c975abb1461029b578063715018a6146102b957610142565b806306a8f8a2146101475780630ef21c9114610165578063115976c41461019557806325c0a45e146101b357806337f1e7f2146101d1575b600080fd5b61014f610406565b60405161015c9190612447565b60405180910390f35b61017f600480360381019061017a9190611faa565b61042c565b60405161018c919061276f565b60405180910390f35b61019d6104d8565b6040516101aa9190612447565b60405180910390f35b6101bb6104fe565b6040516101c8919061281b565b60405180910390f35b6101eb60048036038101906101e69190611faa565b610512565b6040516101f8919061276f565b60405180910390f35b61021b60048036038101906102169190611e5e565b6105a8565b604051610228919061253c565b60405180910390f35b610239610742565b005b61025560048036038101906102509190611e87565b6107c8565b604051610262919061281b565b60405180910390f35b61028560048036038101906102809190611faa565b6108c7565b604051610292919061276f565b60405180910390f35b6102a3610973565b6040516102b0919061255e565b60405180910390f35b6102c161098a565b005b6102cb610a12565b6040516102d89190612594565b60405180910390f35b6102e9610a38565b005b61030560048036038101906103009190611f58565b610abe565b005b61030f610b44565b60405161031c9190612447565b60405180910390f35b61032d610b6e565b60405161033a919061276f565b60405180910390f35b61034b610b74565b604051610358919061251a565b60405180910390f35b61037b60048036038101906103769190611fd3565b610cf4565b005b6103856116e5565b6040516103929190612579565b60405180910390f35b6103b560048036038101906103b09190611f58565b61170b565b6040516103c5949392919061278a565b60405180910390f35b6103e860048036038101906103e39190611e5e565b611761565b005b61040460048036038101906103ff9190611ec3565b611859565b005b601360009054906101000a900473ffffffffffffffffffffffffffffffffffffffff1681565b60008160048160ff1610610475576040517f08c379a000000000000000000000000000000000000000000000000000000000815260040161046c906126cf565b60405180910390fd5b60028360ff16600481106104b2577f4e487b7100000000000000000000000000000000000000000000000000000000600052603260045260246000fd5b6004020160010160049054906101000a900463ffffffff1663ffffffff16915050919050565b601260009054906101000a900473ffffffffffffffffffffffffffffffffffffffff1681565b60148054906101000a900463ffffffff1681565b60008160048160ff161061055b576040517f08c379a0000000000000000000000000000000000000000000000000000000008152600401610552906126cf565b60405180910390fd5b60028360ff1660048110610598577f4e487b7100000000000000000000000000000000000000000000000000000000600052603260045260246000fd5b6004020160020154915050919050565b60606000600467ffffffffffffffff8111156105ed577f4e487b7100000000000000000000000000000000000000000000000000000000600052604160045260246000fd5b60405190808252806020026020018201604052801561061b5781602001602082028036833780820191505090505b50905060005b81518110156107385760028160048110610664577f4e487b7100000000000000000000000000000000000000000000000000000000600052603260045260246000fd5b6004020160030160008573ffffffffffffffffffffffffffffffffffffffff1673ffffffffffffffffffffffffffffffffffffffff16815260200190815260200160002060009054906101000a900463ffffffff1660148054906101000a900463ffffffff166106d49190612b0a565b82828151811061070d577f4e487b7100000000000000000000000000000000000000000000000000000000600052603260045260246000fd5b602002602001019063ffffffff16908163ffffffff16815250508061073190612c1c565b9050610621565b5080915050919050565b61074a611a8a565b73ffffffffffffffffffffffffffffffffffffffff16610768610b44565b73ffffffffffffffffffffffffffffffffffffffff16146107be576040517f08c379a00000000000000000000000000000000000000000000000000000000081526004016107b5906126ef565b60405180910390fd5b6107c6611a92565b565b60008160048160ff1610610811576040517f08c379a0000000000000000000000000000000000000000000000000000000008152600401610808906126cf565b60405180910390fd5b60028360ff166004811061084e577f4e487b7100000000000000000000000000000000000000000000000000000000600052603260045260246000fd5b6004020160030160008573ffffffffffffffffffffffffffffffffffffffff1673ffffffffffffffffffffffffffffffffffffffff16815260200190815260200160002060009054906101000a900463ffffffff1660148054906101000a900463ffffffff166108be9190612b0a565b91505092915050565b60008160048160ff1610610910576040517f08c379a0000000000000000000000000000000000000000000000000000000008152600401610907906126cf565b60405180910390fd5b60028360ff166004811061094d577f4e487b7100000000000000000000000000000000000000000000000000000000600052603260045260246000fd5b6004020160010160009054906101000a900463ffffffff1663ffffffff16915050919050565b6000600160149054906101000a900460ff16905090565b610992611a8a565b73ffffffffffffffffffffffffffffffffffffffff166109b0610b44565b73ffffffffffffffffffffffffffffffffffffffff1614610a06576040517f08c379a00000000000000000000000000000000000000000000000000000000081526004016109fd906126ef565b60405180910390fd5b610a106000611b34565b565b601460009054906101000a900473ffffffffffffffffffffffffffffffffffffffff1681565b610a40611a8a565b73ffffffffffffffffffffffffffffffffffffffff16610a5e610b44565b73ffffffffffffffffffffffffffffffffffffffff1614610ab4576040517f08c379a0000000000000000000000000000000000000000000000000000000008152600401610aab906126ef565b60405180910390fd5b610abc611bfa565b565b610ac6611a8a565b73ffffffffffffffffffffffffffffffffffffffff16610ae4610b44565b73ffffffffffffffffffffffffffffffffffffffff1614610b3a576040517f08c379a0000000000000000000000000000000000000000000000000000000008152600401610b31906126ef565b60405180910390fd5b8060158190555050565b6000600160009054906101000a900473ffffffffffffffffffffffffffffffffffffffff16905090565b60155481565b60606000600467ffffffffffffffff811115610bb9577f4e487b7100000000000000000000000000000000000000000000000000000000600052604160045260246000fd5b604051908082528060200260200182016040528015610bf257816020015b610bdf611c9c565b815260200190600190039081610bd75790505b50905060005b6004811015610cec57600060028260048110610c3d577f4e487b7100000000000000000000000000000000000000000000000000000000600052603260045260246000fd5b60040201905060405180606001604052808260010160049054906101000a900463ffffffff1663ffffffff1681526020018260010160009054906101000a900463ffffffff1663ffffffff1681526020018260020154815250838381518110610ccf577f4e487b7100000000000000000000000000000000000000000000000000000000600052603260045260246000fd5b60200260200101819052505080610ce590612c1c565b9050610bf8565b508091505090565b6000601554118015610d07575060155442115b610d46576040517f08c379a0000000000000000000000000000000000000000000000000000000008152600401610d3d9061270f565b60405180910390fd5b610d4e610973565b15610d8e576040517f08c379a0000000000000000000000000000000000000000000000000000000008152600401610d859061268f565b60405180910390fd5b8160048160ff1610610dd5576040517f08c379a0000000000000000000000000000000000000000000000000000000008152600401610dcc906126cf565b60405180910390fd5b8160018160ff1610158015610dee575060028160ff1611155b610e2d576040517f08c379a0000000000000000000000000000000000000000000000000000000008152600401610e249061272f565b60405180910390fd5b83600060028260ff1660048110610e6d577f4e487b7100000000000000000000000000000000000000000000000000000000600052603260045260246000fd5b6004020190508060010160049054906101000a900463ffffffff1663ffffffff168160010160009054906101000a900463ffffffff1663ffffffff1610610ee9576040517f08c379a0000000000000000000000000000000000000000000000000000000008152600401610ee09061260f565b60405180910390fd5b60026000541415610f2f576040517f08c379a0000000000000000000000000000000000000000000000000000000008152600401610f269061274f565b60405180910390fd5b60026000819055508460ff16610f4533886107c8565b63ffffffff161015610f8c576040517f08c379a0000000000000000000000000000000000000000000000000000000008152600401610f839061266f565b60405180910390fd5b600060028760ff1660048110610fcb577f4e487b7100000000000000000000000000000000000000000000000000000000600052603260045260246000fd5b6004020190508560ff168160010160009054906101000a900463ffffffff168260010160049054906101000a900463ffffffff166110099190612b0a565b63ffffffff161015611050576040517f08c379a0000000000000000000000000000000000000000000000000000000008152600401611047906125ef565b60405180910390fd5b60008660ff1682600201546110659190612a41565b905080601660009054906101000a900473ffffffffffffffffffffffffffffffffffffffff1673ffffffffffffffffffffffffffffffffffffffff1663dd62ed3e33306040518363ffffffff1660e01b81526004016110c5929190612462565b60206040518083038186803b1580156110dd57600080fd5b505afa1580156110f1573d6000803e3d6000fd5b505050506040513d601f19601f820116820180604052508101906111159190611f81565b1015611156576040517f08c379a000000000000000000000000000000000000000000000000000000000815260040161114d906126af565b60405180910390fd5b601660009054906101000a900473ffffffffffffffffffffffffffffffffffffffff1673ffffffffffffffffffffffffffffffffffffffff166323b872dd33601260009054906101000a900473ffffffffffffffffffffffffffffffffffffffff166002856111c59190612a10565b856111d09190612ad6565b6040518463ffffffff1660e01b81526004016111ee9392919061248b565b602060405180830381600087803b15801561120857600080fd5b505af115801561121c573d6000803e3d6000fd5b505050506040513d601f19601f820116820180604052508101906112409190611f2f565b50601660009054906101000a900473ffffffffffffffffffffffffffffffffffffffff1673ffffffffffffffffffffffffffffffffffffffff166323b872dd33601360009054906101000a900473ffffffffffffffffffffffffffffffffffffffff166002856112b09190612a10565b6040518463ffffffff1660e01b81526004016112ce9392919061248b565b602060405180830381600087803b1580156112e857600080fd5b505af11580156112fc573d6000803e3d6000fd5b505050506040513d601f19601f820116820180604052508101906113209190611f2f565b505060008160010160009054906101000a900463ffffffff1663ffffffff1690508660ff168260010160008282829054906101000a900463ffffffff1661136791906129d6565b92506101000a81548163ffffffff021916908363ffffffff1602179055508660ff168260030160003373ffffffffffffffffffffffffffffffffffffffff1673ffffffffffffffffffffffffffffffffffffffff16815260200190815260200160002060008282829054906101000a900463ffffffff166113e891906129d6565b92506101000a81548163ffffffff021916908363ffffffff16021790555060008760056114159190612a9b565b60ff1667ffffffffffffffff811115611457577f4e487b7100000000000000000000000000000000000000000000000000000000600052604160045260246000fd5b6040519080825280602002602001820160405280156114855781602001602082028036833780820191505090505b50905060008860056114979190612a9b565b60ff1667ffffffffffffffff8111156114d9577f4e487b7100000000000000000000000000000000000000000000000000000000600052604160045260246000fd5b6040519080825280602002602001820160405280156115075781602001602082028036833780820191505090505b50905060006005846115199190612a41565b85600001546115289190612980565b905060005b83518110156115e15780826115429190612980565b84828151811061157b577f4e487b7100000000000000000000000000000000000000000000000000000000600052603260045260246000fd5b60200260200101818152505060018382815181106115c2577f4e487b7100000000000000000000000000000000000000000000000000000000600052603260045260246000fd5b60200260200101818152505080806115d990612c1c565b91505061152d565b5050601460009054906101000a900473ffffffffffffffffffffffffffffffffffffffff1673ffffffffffffffffffffffffffffffffffffffff16631f7fdffa3384846040518463ffffffff1660e01b8152600401611642939291906124c2565b600060405180830381600087803b15801561165c57600080fd5b505af1158015611670573d6000803e3d6000fd5b50505050828a60ff163373ffffffffffffffffffffffffffffffffffffffff167feb25b430f73f8dc293a3daeb4ade12cc209a0ce8dbfb8d741281c33f90b8626587600201548d87426040516116c994939291906127cf565b60405180910390a4505050506001600081905550505050505050565b601660009054906101000a900473ffffffffffffffffffffffffffffffffffffffff1681565b6002816004811061171b57600080fd5b600402016000915090508060000154908060010160009054906101000a900463ffffffff16908060010160049054906101000a900463ffffffff16908060020154905084565b611769611a8a565b73ffffffffffffffffffffffffffffffffffffffff16611787610b44565b73ffffffffffffffffffffffffffffffffffffffff16146117dd576040517f08c379a00000000000000000000000000000000000000000000000000000000081526004016117d4906126ef565b60405180910390fd5b600073ffffffffffffffffffffffffffffffffffffffff168173ffffffffffffffffffffffffffffffffffffffff16141561184d576040517f08c379a0000000000000000000000000000000000000000000000000000000008152600401611844906125cf565b60405180910390fd5b61185681611b34565b50565b611861611a8a565b73ffffffffffffffffffffffffffffffffffffffff1661187f610b44565b73ffffffffffffffffffffffffffffffffffffffff16146118d5576040517f08c379a00000000000000000000000000000000000000000000000000000000081526004016118cc906126ef565b60405180910390fd5b8051825114611919576040517f08c379a00000000000000000000000000000000000000000000000000000000081526004016119109061262f565b60405180910390fd5b60005b8251811015611a85576004838281518110611960577f4e487b7100000000000000000000000000000000000000000000000000000000600052603260045260246000fd5b602002602001015160ff16106119ab576040517f08c379a00000000000000000000000000000000000000000000000000000000081526004016119a29061264f565b60405180910390fd5b8181815181106119e4577f4e487b7100000000000000000000000000000000000000000000000000000000600052603260045260246000fd5b60200260200101516002848381518110611a27577f4e487b7100000000000000000000000000000000000000000000000000000000600052603260045260246000fd5b602002602001015160ff1660048110611a69577f4e487b7100000000000000000000000000000000000000000000000000000000600052603260045260246000fd5b600402016002018190555080611a7e90612c1c565b905061191c565b505050565b600033905090565b611a9a610973565b611ad9576040517f08c379a0000000000000000000000000000000000000000000000000000000008152600401611ad0906125af565b60405180910390fd5b6000600160146101000a81548160ff0219169083151502179055507f5db9ee0a495bf2e6ff9c91a7834c1ba4fdd244a5e8aa4e537bd38aeae4b073aa611b1d611a8a565b604051611b2a9190612447565b60405180910390a1565b6000600160009054906101000a900473ffffffffffffffffffffffffffffffffffffffff16905081600160006101000a81548173ffffffffffffffffffffffffffffffffffffffff021916908373ffffffffffffffffffffffffffffffffffffffff1602179055508173ffffffffffffffffffffffffffffffffffffffff168173ffffffffffffffffffffffffffffffffffffffff167f8be0079c531659141344cd1fd0a4f28419497f9722a3daafe3b4186f6b6457e060405160405180910390a35050565b611c02610973565b15611c42576040517f08c379a0000000000000000000000000000000000000000000000000000000008152600401611c399061268f565b60405180910390fd5b60018060146101000a81548160ff0219169083151502179055507f62e78cea01bee320cd4e420270b5ea74000d11b0c9f74754ebdbfc544b05a258611c85611a8a565b604051611c929190612447565b60405180910390a1565b6040518060600160405280600063ffffffff168152602001600063ffffffff168152602001600081525090565b6000611cdc611cd78461285b565b612836565b90508083825260208201905082856020860282011115611cfb57600080fd5b60005b85811015611d2b5781611d118882611e1f565b845260208401935060208301925050600181019050611cfe565b5050509392505050565b6000611d48611d4384612887565b612836565b90508083825260208201905082856020860282011115611d6757600080fd5b60005b85811015611d975781611d7d8882611e49565b845260208401935060208301925050600181019050611d6a565b5050509392505050565b600081359050611db081612f90565b92915050565b600082601f830112611dc757600080fd5b8135611dd7848260208601611cc9565b91505092915050565b600082601f830112611df157600080fd5b8135611e01848260208601611d35565b91505092915050565b600081519050611e1981612fa7565b92915050565b600081359050611e2e81612fbe565b92915050565b600081519050611e4381612fbe565b92915050565b600081359050611e5881612fd5565b92915050565b600060208284031215611e7057600080fd5b6000611e7e84828501611da1565b91505092915050565b60008060408385031215611e9a57600080fd5b6000611ea885828601611da1565b9250506020611eb985828601611e49565b9150509250929050565b60008060408385031215611ed657600080fd5b600083013567ffffffffffffffff811115611ef057600080fd5b611efc85828601611de0565b925050602083013567ffffffffffffffff811115611f1957600080fd5b611f2585828601611db6565b9150509250929050565b600060208284031215611f4157600080fd5b6000611f4f84828501611e0a565b91505092915050565b600060208284031215611f6a57600080fd5b6000611f7884828501611e1f565b91505092915050565b600060208284031215611f9357600080fd5b6000611fa184828501611e34565b91505092915050565b600060208284031215611fbc57600080fd5b6000611fca84828501611e49565b91505092915050565b60008060408385031215611fe657600080fd5b6000611ff485828601611e49565b925050602061200585828601611e49565b9150509250929050565b600061201b83836123ba565b60608301905092915050565b600061203383836123fc565b60208301905092915050565b600061204b838361241a565b60208301905092915050565b61206081612b3e565b82525050565b6000612071826128e3565b61207b818561292b565b9350612086836128b3565b8060005b838110156120b757815161209e888261200f565b97506120a983612904565b92505060018101905061208a565b5085935050505092915050565b60006120cf826128ee565b6120d9818561293c565b93506120e4836128c3565b8060005b838110156121155781516120fc8882612027565b975061210783612911565b9250506001810190506120e8565b5085935050505092915050565b600061212d826128f9565b612137818561294d565b9350612142836128d3565b8060005b8381101561217357815161215a888261203f565b97506121658361291e565b925050600181019050612146565b5085935050505092915050565b61218981612b50565b82525050565b61219881612ba3565b82525050565b6121a781612bc7565b82525050565b60006121ba60148361296f565b91506121c582612d03565b602082019050919050565b60006121dd60268361296f565b91506121e882612d2c565b604082019050919050565b600061220060108361296f565b915061220b82612d7b565b602082019050919050565b600061222360168361296f565b915061222e82612da4565b602082019050919050565b600061224660368361296f565b915061225182612dcd565b604082019050919050565b6000612269601d8361296f565b915061227482612e1c565b602082019050919050565b600061228c60128361296f565b915061229782612e45565b602082019050919050565b60006122af60108361296f565b91506122ba82612e6e565b602082019050919050565b60006122d2601a8361296f565b91506122dd82612e97565b602082019050919050565b60006122f560128361296f565b915061230082612ec0565b602082019050919050565b600061231860208361296f565b915061232382612ee9565b602082019050919050565b600061233b600e8361296f565b915061234682612f12565b602082019050919050565b600061235e60008361295e565b915061236982612f3b565b600082019050919050565b600061238160168361296f565b915061238c82612f3e565b602082019050919050565b60006123a4601f8361296f565b91506123af82612f67565b602082019050919050565b6060820160008201516123d0600085018261241a565b5060208201516123e3602085018261241a565b5060408201516123f660408501826123fc565b50505050565b61240581612b7c565b82525050565b61241481612b7c565b82525050565b61242381612b86565b82525050565b61243281612b86565b82525050565b61244181612b96565b82525050565b600060208201905061245c6000830184612057565b92915050565b60006040820190506124776000830185612057565b6124846020830184612057565b9392505050565b60006060820190506124a06000830186612057565b6124ad6020830185612057565b6124ba604083018461240b565b949350505050565b60006080820190506124d76000830186612057565b81810360208301526124e981856120c4565b905081810360408301526124fd81846120c4565b9050818103606083015261251081612351565b9050949350505050565b600060208201905081810360008301526125348184612066565b905092915050565b600060208201905081810360008301526125568184612122565b905092915050565b60006020820190506125736000830184612180565b92915050565b600060208201905061258e600083018461218f565b92915050565b60006020820190506125a9600083018461219e565b92915050565b600060208201905081810360008301526125c8816121ad565b9050919050565b600060208201905081810360008301526125e8816121d0565b9050919050565b60006020820190508181036000830152612608816121f3565b9050919050565b6000602082019050818103600083015261262881612216565b9050919050565b6000602082019050818103600083015261264881612239565b9050919050565b600060208201905081810360008301526126688161225c565b9050919050565b600060208201905081810360008301526126888161227f565b9050919050565b600060208201905081810360008301526126a8816122a2565b9050919050565b600060208201905081810360008301526126c8816122c5565b9050919050565b600060208201905081810360008301526126e8816122e8565b9050919050565b600060208201905081810360008301526127088161230b565b9050919050565b600060208201905081810360008301526127288161232e565b9050919050565b6000602082019050818103600083015261274881612374565b9050919050565b6000602082019050818103600083015261276881612397565b9050919050565b6000602082019050612784600083018461240b565b92915050565b600060808201905061279f600083018761240b565b6127ac6020830186612429565b6127b96040830185612429565b6127c6606083018461240b565b95945050505050565b60006080820190506127e4600083018761240b565b6127f16020830186612438565b818103604083015261280381856120c4565b9050612812606083018461240b565b95945050505050565b60006020820190506128306000830184612429565b92915050565b6000612840612851565b905061284c8282612beb565b919050565b6000604051905090565b600067ffffffffffffffff82111561287657612875612cc3565b5b602082029050602081019050919050565b600067ffffffffffffffff8211156128a2576128a1612cc3565b5b602082029050602081019050919050565b6000819050602082019050919050565b6000819050602082019050919050565b6000819050602082019050919050565b600081519050919050565b600081519050919050565b600081519050919050565b6000602082019050919050565b6000602082019050919050565b6000602082019050919050565b600082825260208201905092915050565b600082825260208201905092915050565b600082825260208201905092915050565b600082825260208201905092915050565b600082825260208201905092915050565b600061298b82612b7c565b915061299683612b7c565b9250827fffffffffffffffffffffffffffffffffffffffffffffffffffffffffffffffff038211156129cb576129ca612c65565b5b828201905092915050565b60006129e182612b86565b91506129ec83612b86565b92508263ffffffff03821115612a0557612a04612c65565b5b828201905092915050565b6000612a1b82612b7c565b9150612a2683612b7c565b925082612a3657612a35612c94565b5b828204905092915050565b6000612a4c82612b7c565b9150612a5783612b7c565b9250817fffffffffffffffffffffffffffffffffffffffffffffffffffffffffffffffff0483118215151615612a9057612a8f612c65565b5b828202905092915050565b6000612aa682612b96565b9150612ab183612b96565b92508160ff0483118215151615612acb57612aca612c65565b5b828202905092915050565b6000612ae182612b7c565b9150612aec83612b7c565b925082821015612aff57612afe612c65565b5b828203905092915050565b6000612b1582612b86565b9150612b2083612b86565b925082821015612b3357612b32612c65565b5b828203905092915050565b6000612b4982612b5c565b9050919050565b60008115159050919050565b600073ffffffffffffffffffffffffffffffffffffffff82169050919050565b6000819050919050565b600063ffffffff82169050919050565b600060ff82169050919050565b6000612bae82612bb5565b9050919050565b6000612bc082612b5c565b9050919050565b6000612bd282612bd9565b9050919050565b6000612be482612b5c565b9050919050565b612bf482612cf2565b810181811067ffffffffffffffff82111715612c1357612c12612cc3565b5b80604052505050565b6000612c2782612b7c565b91507fffffffffffffffffffffffffffffffffffffffffffffffffffffffffffffffff821415612c5a57612c59612c65565b5b600182019050919050565b7f4e487b7100000000000000000000000000000000000000000000000000000000600052601160045260246000fd5b7f4e487b7100000000000000000000000000000000000000000000000000000000600052601260045260246000fd5b7f4e487b7100000000000000000000000000000000000000000000000000000000600052604160045260246000fd5b6000601f19601f8301169050919050565b7f5061757361626c653a206e6f7420706175736564000000000000000000000000600082015250565b7f4f776e61626c653a206e6577206f776e657220697320746865207a65726f206160008201527f6464726573730000000000000000000000000000000000000000000000000000602082015250565b7f73746f636b206e6f7420656e6f75676800000000000000000000000000000000600082015250565b7f426c696e6420426f782068617320736f6c64206f757400000000000000000000600082015250565b7f75706461746550726963653a20626f7849647320616e64206e6577507269636560008201527f56616c756573206c656e677468206d69736d6174636800000000000000000000602082015250565b7f75706461746550726963653a20626f78496420697320696e76616c6964000000600082015250565b7f796f752063616e277420627579206d6f72650000000000000000000000000000600082015250565b7f5061757361626c653a2070617573656400000000000000000000000000000000600082015250565b7f746f6b656e20616c6c6f77616e6365206e6f7420656e6f756768000000000000600082015250565b7f626f784964206973206e6f742076616c69640000000000000000000000000000600082015250565b7f4f776e61626c653a2063616c6c6572206973206e6f7420746865206f776e6572600082015250565b7f6e6f742073746172742073656c6c000000000000000000000000000000000000600082015250565b50565b7f62757920636f756e74206973206e6f742076616c696400000000000000000000600082015250565b7f5265656e7472616e637947756172643a207265656e7472616e742063616c6c00600082015250565b612f9981612b3e565b8114612fa457600080fd5b50565b612fb081612b50565b8114612fbb57600080fd5b50565b612fc781612b7c565b8114612fd257600080fd5b50565b612fde81612b96565b8114612fe957600080fd5b5056fea26469706673582212204cd2af119e7657465a901ffbe3f129b29451cb7f4347b989af43b422a249ad4164736f6c63430008040033",
  "immutableReferences": {},
  "source": "// SPDX-License-Identifier: MIT\r\npragma solidity ^0.8.0;\r\n\r\nimport \"@openzeppelin/contracts/token/ERC20/IERC20.sol\";\r\nimport \"@openzeppelin/contracts/security/ReentrancyGuard.sol\";\r\nimport \"@openzeppelin/contracts/access/Ownable.sol\";\r\nimport \"@openzeppelin/contracts/security/Pausable.sol\";\r\nimport './IROCNFTMint.sol';\r\n\r\ncontract ROCBlindBox1 is ReentrancyGuard, Ownable, Pausable {\r\n\r\n    struct BlindBoxInfo {\r\n        uint256 baseTokenId;\r\n        uint32 nextBoxIndex;\r\n        uint32 totalCount;\r\n        uint256 price;\r\n        mapping(address => uint32) userAlreadyBuyCount;\r\n    }\r\n    \r\n    struct BlindBoxViewInfo {\r\n        uint32 totalCount;\r\n        uint32 soldCount;\r\n        uint256 price;\r\n    }\r\n\r\n    BlindBoxInfo[4] public blindBoxInfos;\r\n    address public admin1;\r\n    address public admin2;\r\n    IROCNFTMint public rocNFT;\r\n    uint32 public limitedBuyCount = 2;\r\n    uint256 public startSellTime;\r\n\r\n    IERC20 public cateCoinToken;\r\n\r\n    event BlindBoxOpened(\r\n        address indexed payer,\r\n        uint256 amount,\r\n        uint8 indexed boxId,\r\n        uint8 count,\r\n        uint256 indexed baseBoxIndex,\r\n        uint256[] tokenIds,\r\n        uint256 date\r\n    );\r\n\r\n\r\n    constructor(address admin1Address, address admin2Address, address rocNFTAddress, address cateCoinTokenAddress, uint256[] memory priceValues) {\r\n        \r\n        require(priceValues.length == blindBoxInfos.length, \"constructor: priceValues length is not 4\");\r\n\r\n        admin1 = admin1Address;\r\n        admin2 = admin2Address;\r\n        rocNFT = IROCNFTMint(rocNFTAddress);\r\n        cateCoinToken = IERC20(cateCoinTokenAddress);\r\n        \r\n        setupBlindBoxInfo(0, 10001, 1120, priceValues[0]);\r\n        setupBlindBoxInfo(1, 15601, 1120, priceValues[1]);\r\n        setupBlindBoxInfo(2, 21201, 490, priceValues[2]);\r\n        setupBlindBoxInfo(3, 23651, 70, priceValues[3]);\r\n    }\r\n\r\n    modifier boxIdIsValid(uint8 boxId) {\r\n        require(boxId < blindBoxInfos.length, \"boxId is not valid\");\r\n        _;\r\n    }\r\n\r\n    modifier buyCountIsValid(uint8 count) {\r\n        require(count >= 1 && count <= 2, \"buy count is not valid\");\r\n        _;\r\n    }\r\n\r\n    modifier whenNotSoldOut(uint8 boxId) {\r\n        BlindBoxInfo storage boxInfo = blindBoxInfos[boxId];\r\n        require(boxInfo.nextBoxIndex < boxInfo.totalCount,\r\n            \"Blind Box has sold out\"\r\n        );\r\n        _;\r\n    }\r\n\r\n    modifier onStartSell() {\r\n        require(startSellTime > 0 && block.timestamp > startSellTime, \"not start sell\");\r\n        _;\r\n    }\r\n\r\n    function setupBlindBoxInfo(uint8 boxId, uint256 pBaseTokenId, uint32 pTotalCount, uint256 pPrice) private {\r\n        BlindBoxInfo storage boxInfo = blindBoxInfos[boxId];\r\n        boxInfo.baseTokenId = pBaseTokenId;\r\n        boxInfo.nextBoxIndex = 0;\r\n        boxInfo.totalCount = pTotalCount;\r\n        boxInfo.price = pPrice;\r\n    }\r\n    \r\n    function pause() public onlyOwner {\r\n        _pause();\r\n    }\r\n\r\n    function unpause() public onlyOwner {\r\n        _unpause();\r\n    }\r\n\r\n    function setStartSellTime(uint256 t) external onlyOwner{\r\n        startSellTime = t;\r\n    }\r\n\r\n    function updatePrice(\r\n        uint8[] memory boxIds,\r\n        uint256[] memory newPriceValues\r\n    ) external onlyOwner {\r\n        require(boxIds.length == newPriceValues.length, \"updatePrice: boxIds and newPriceValues length mismatch\");\r\n        \r\n        for (uint256 i = 0; i < boxIds.length; ++i) {\r\n            require(boxIds[i] < blindBoxInfos.length, \"updatePrice: boxId is invalid\");\r\n            blindBoxInfos[boxIds[i]].price = newPriceValues[i];\r\n        }\r\n    }\r\n\r\n    function getLeftLimitBuyCount(address user, uint8 boxId) public view boxIdIsValid(boxId) returns (uint32) {\r\n        return limitedBuyCount - blindBoxInfos[boxId].userAlreadyBuyCount[user];\r\n    }\r\n\r\n    // return all blind box user can buy\r\n    function getAllLeftLimitBuyCount(address user) public view returns (uint32[] memory) {\r\n        uint32[] memory ret = new uint32[](blindBoxInfos.length);\r\n        \r\n        for (uint256 i = 0; i < ret.length; ++i) {\r\n            ret[i] = limitedBuyCount - blindBoxInfos[i].userAlreadyBuyCount[user];\r\n        }\r\n        return ret;\r\n    }\r\n\r\n    function getSoldCount(uint8 boxId) public view boxIdIsValid(boxId) returns (uint256) {\r\n        return blindBoxInfos[boxId].nextBoxIndex;\r\n    }\r\n\r\n    function getTotalCount(uint8 boxId) public view boxIdIsValid(boxId) returns (uint256) {\r\n        return blindBoxInfos[boxId].totalCount;\r\n    }\r\n\r\n    function getPrice(uint8 boxId) public view boxIdIsValid(boxId) returns (uint256) {\r\n        return blindBoxInfos[boxId].price;\r\n    }\r\n\r\n    // return all blind box current info\r\n    function getBlindBoxViewInfos() public view returns (BlindBoxViewInfo[] memory) {\r\n        BlindBoxViewInfo[] memory ret = new BlindBoxViewInfo[](blindBoxInfos.length);\r\n        \r\n        for (uint256 i = 0; i < blindBoxInfos.length; ++i) {\r\n            BlindBoxInfo storage boxInfo = blindBoxInfos[i];\r\n            ret[i] = BlindBoxViewInfo(boxInfo.totalCount, boxInfo.nextBoxIndex, boxInfo.price);\r\n        }\r\n        return ret;\r\n    }\r\n\r\n    function payByToken(uint8 boxId, uint8 count) external onStartSell whenNotPaused boxIdIsValid(boxId) buyCountIsValid(count) whenNotSoldOut(boxId) nonReentrant {\r\n        \r\n        require(getLeftLimitBuyCount(msg.sender, boxId) >= count, \"you can't buy more\");\r\n        \r\n        BlindBoxInfo storage boxInfo = blindBoxInfos[boxId];\r\n        require(boxInfo.totalCount - boxInfo.nextBoxIndex >= count, \"stock not enough\");\r\n\r\n        {\r\n            uint256 amount = boxInfo.price * count;\r\n            require(cateCoinToken.allowance(msg.sender, address(this)) >= amount, \"token allowance not enough\");\r\n\r\n            cateCoinToken.transferFrom(msg.sender, admin1, amount - amount/2);\r\n            cateCoinToken.transferFrom(msg.sender, admin2, amount/2);\r\n        }\r\n\r\n        uint256 baseBoxInx = boxInfo.nextBoxIndex;\r\n        boxInfo.nextBoxIndex += count;\r\n        boxInfo.userAlreadyBuyCount[msg.sender] += count;\r\n\r\n        uint256[] memory ids = new uint256[](5 * count);\r\n        uint256[] memory amounts = new uint256[](5 * count);\r\n        {\r\n            uint256 baseId = boxInfo.baseTokenId + baseBoxInx * 5;\r\n            for (uint256 i = 0; i < ids.length; i++) {\r\n                ids[i] = baseId + i;\r\n                amounts[i] = 1;\r\n            }\r\n        }\r\n        rocNFT.mintBatch(msg.sender, ids, amounts, \"\");\r\n        \r\n        emit BlindBoxOpened(msg.sender, boxInfo.price, boxId, count, baseBoxInx, ids, block.timestamp);\r\n    }\r\n}\r\n",
  "sourcePath": "C:/Users/quan/Work/WorkSpace/JoyGame/JoyTD/web/contracts/contracts/ROCBlindBox1.sol",
  "compiler": {
    "name": "solc",
    "version": "0.8.4+commit.c7e474f2.Emscripten.clang"
  },
  "schemaVersion": "3.3.4",
  "updatedAt": "2021-11-16T19:36:13.656Z",
  "networkType": "ethereum",
  "devdoc": {
    "kind": "dev",
    "methods": {
      "owner()": {
        "details": "Returns the address of the current owner."
      },
      "paused()": {
        "details": "Returns true if the contract is paused, and false otherwise."
      },
      "renounceOwnership()": {
        "details": "Leaves the contract without owner. It will not be possible to call `onlyOwner` functions anymore. Can only be called by the current owner. NOTE: Renouncing ownership will leave the contract without an owner, thereby removing any functionality that is only available to the owner."
      },
      "transferOwnership(address)": {
        "details": "Transfers ownership of the contract to a new account (`newOwner`). Can only be called by the current owner."
      }
    },
    "version": 1
  },
  "userdoc": {
    "kind": "user",
    "methods": {},
    "version": 1
  }
}