{
  "contractName": "ROCBlindBoxOxbull20211115",
  "abi": [
    {
      "inputs": [
        {
          "internalType": "address",
          "name": "rocNFTAddress",
          "type": "address"
        }
      ],
      "stateMutability": "nonpayable",
      "type": "constructor"
    },
    {
      "anonymous": false,
      "inputs": [
        {
          "indexed": true,
          "internalType": "address",
          "name": "payer",
          "type": "address"
        },
        {
          "indexed": false,
          "internalType": "uint8",
          "name": "boxId",
          "type": "uint8"
        },
        {
          "indexed": false,
          "internalType": "uint8",
          "name": "count",
          "type": "uint8"
        },
        {
          "indexed": false,
          "internalType": "uint256",
          "name": "baseBoxIndex",
          "type": "uint256"
        },
        {
          "indexed": false,
          "internalType": "uint256[]",
          "name": "tokenIds",
          "type": "uint256[]"
        },
        {
          "indexed": false,
          "internalType": "uint256",
          "name": "date",
          "type": "uint256"
        }
      ],
      "name": "BlindBoxOpened",
      "type": "event"
    },
    {
      "anonymous": false,
      "inputs": [
        {
          "indexed": true,
          "internalType": "address",
          "name": "previousOwner",
          "type": "address"
        },
        {
          "indexed": true,
          "internalType": "address",
          "name": "newOwner",
          "type": "address"
        }
      ],
      "name": "OwnershipTransferred",
      "type": "event"
    },
    {
      "inputs": [
        {
          "internalType": "uint256",
          "name": "",
          "type": "uint256"
        }
      ],
      "name": "blindBoxInfos",
      "outputs": [
        {
          "internalType": "uint256",
          "name": "baseTokenId",
          "type": "uint256"
        },
        {
          "internalType": "uint32",
          "name": "nextBoxIndex",
          "type": "uint32"
        },
        {
          "internalType": "uint32",
          "name": "totalCount",
          "type": "uint32"
        }
      ],
      "stateMutability": "view",
      "type": "function"
    },
    {
      "inputs": [],
      "name": "owner",
      "outputs": [
        {
          "internalType": "address",
          "name": "",
          "type": "address"
        }
      ],
      "stateMutability": "view",
      "type": "function"
    },
    {
      "inputs": [],
      "name": "renounceOwnership",
      "outputs": [],
      "stateMutability": "nonpayable",
      "type": "function"
    },
    {
      "inputs": [],
      "name": "rocNFT",
      "outputs": [
        {
          "internalType": "contract IROCNFTMint",
          "name": "",
          "type": "address"
        }
      ],
      "stateMutability": "view",
      "type": "function"
    },
    {
      "inputs": [
        {
          "internalType": "address",
          "name": "newOwner",
          "type": "address"
        }
      ],
      "name": "transferOwnership",
      "outputs": [],
      "stateMutability": "nonpayable",
      "type": "function"
    },
    {
      "inputs": [
        {
          "internalType": "uint8",
          "name": "boxId",
          "type": "uint8"
        },
        {
          "internalType": "address[]",
          "name": "accounts",
          "type": "address[]"
        },
        {
          "internalType": "uint8[]",
          "name": "counts",
          "type": "uint8[]"
        }
      ],
      "name": "airdropBatch",
      "outputs": [],
      "stateMutability": "nonpayable",
      "type": "function"
    }
  ],
  "bytecode": "0x60806040523480156200001157600080fd5b50604051620017733803806200177383398181016040528101906200003791906200024e565b620000576200004b620000cf60201b60201c565b620000d760201b60201c565b80600560006101000a81548173ffffffffffffffffffffffffffffffffffffffff021916908373ffffffffffffffffffffffffffffffffffffffff160217905550620000b06000615dc16103e86200019b60201b60201c565b620000c860016171496101906200019b60201b60201c565b50620002c8565b600033905090565b60008060009054906101000a900473ffffffffffffffffffffffffffffffffffffffff169050816000806101000a81548173ffffffffffffffffffffffffffffffffffffffff021916908373ffffffffffffffffffffffffffffffffffffffff1602179055508173ffffffffffffffffffffffffffffffffffffffff168173ffffffffffffffffffffffffffffffffffffffff167f8be0079c531659141344cd1fd0a4f28419497f9722a3daafe3b4186f6b6457e060405160405180910390a35050565b600060018460ff1660028110620001db577f4e487b7100000000000000000000000000000000000000000000000000000000600052603260045260246000fd5b60020201905082816000018190555060008160010160006101000a81548163ffffffff021916908363ffffffff160217905550818160010160046101000a81548163ffffffff021916908363ffffffff16021790555050505050565b6000815190506200024881620002ae565b92915050565b6000602082840312156200026157600080fd5b6000620002718482850162000237565b91505092915050565b600062000287826200028e565b9050919050565b600073ffffffffffffffffffffffffffffffffffffffff82169050919050565b620002b9816200027a565b8114620002c557600080fd5b50565b61149b80620002d86000396000f3fe608060405234801561001057600080fd5b50600436106100625760003560e01c8063715018a614610067578063813d88bb146100715780638da5cb5b1461008f578063eb469d98146100ad578063f2fde38b146100df578063f3805b08146100fb575b600080fd5b61006f610117565b005b61007961019f565b6040516100869190610dfb565b60405180910390f35b6100976101c5565b6040516100a49190610d88565b60405180910390f35b6100c760048036038101906100c29190610b3e565b6101ee565b6040516100d693929190610eb6565b60405180910390f35b6100f960048036038101906100f49190610b15565b61023e565b005b61011560048036038101906101109190610b67565b610336565b005b61011f6108de565b73ffffffffffffffffffffffffffffffffffffffff1661013d6101c5565b73ffffffffffffffffffffffffffffffffffffffff1614610193576040517f08c379a000000000000000000000000000000000000000000000000000000000815260040161018a90610e96565b60405180910390fd5b61019d60006108e6565b565b600560009054906101000a900473ffffffffffffffffffffffffffffffffffffffff1681565b60008060009054906101000a900473ffffffffffffffffffffffffffffffffffffffff16905090565b600181600281106101fe57600080fd5b600202016000915090508060000154908060010160009054906101000a900463ffffffff16908060010160049054906101000a900463ffffffff16905083565b6102466108de565b73ffffffffffffffffffffffffffffffffffffffff166102646101c5565b73ffffffffffffffffffffffffffffffffffffffff16146102ba576040517f08c379a00000000000000000000000000000000000000000000000000000000081526004016102b190610e96565b60405180910390fd5b600073ffffffffffffffffffffffffffffffffffffffff168173ffffffffffffffffffffffffffffffffffffffff16141561032a576040517f08c379a000000000000000000000000000000000000000000000000000000000815260040161032190610e16565b60405180910390fd5b610333816108e6565b50565b61033e6108de565b73ffffffffffffffffffffffffffffffffffffffff1661035c6101c5565b73ffffffffffffffffffffffffffffffffffffffff16146103b2576040517f08c379a00000000000000000000000000000000000000000000000000000000081526004016103a990610e96565b60405180910390fd5b8260028160ff16106103f9576040517f08c379a00000000000000000000000000000000000000000000000000000000081526004016103f090610e36565b60405180910390fd5b815183511461043d576040517f08c379a000000000000000000000000000000000000000000000000000000000815260040161043490610e76565b60405180910390fd5b600060018560ff166002811061047c577f4e487b7100000000000000000000000000000000000000000000000000000000600052603260045260246000fd5b60020201905060005b84518110156108d65760008582815181106104c9577f4e487b7100000000000000000000000000000000000000000000000000000000600052603260045260246000fd5b60200260200101519050600085838151811061050e577f4e487b7100000000000000000000000000000000000000000000000000000000600052603260045260246000fd5b602002602001015190508060ff168460010160009054906101000a900463ffffffff168560010160049054906101000a900463ffffffff166105509190611144565b63ffffffff161015610597576040517f08c379a000000000000000000000000000000000000000000000000000000000815260040161058e90610e56565b60405180910390fd5b60008460010160009054906101000a900463ffffffff1663ffffffff1690508160ff168560010160008282829054906101000a900463ffffffff166105dc9190611075565b92506101000a81548163ffffffff021916908363ffffffff16021790555060008260056106099190611109565b60ff1667ffffffffffffffff81111561064b577f4e487b7100000000000000000000000000000000000000000000000000000000600052604160045260246000fd5b6040519080825280602002602001820160405280156106795781602001602082028036833780820191505090505b509050600083600561068b9190611109565b60ff1667ffffffffffffffff8111156106cd577f4e487b7100000000000000000000000000000000000000000000000000000000600052604160045260246000fd5b6040519080825280602002602001820160405280156106fb5781602001602082028036833780820191505090505b509050600060058461070d91906110af565b886000015461071c919061101f565b905060005b83518110156107d5578082610736919061101f565b84828151811061076f577f4e487b7100000000000000000000000000000000000000000000000000000000600052603260045260246000fd5b60200260200101818152505060018382815181106107b6577f4e487b7100000000000000000000000000000000000000000000000000000000600052603260045260246000fd5b60200260200101818152505080806107cd90611226565b915050610721565b5050600560009054906101000a900473ffffffffffffffffffffffffffffffffffffffff1673ffffffffffffffffffffffffffffffffffffffff16631f7fdffa8684846040518463ffffffff1660e01b815260040161083693929190610da3565b600060405180830381600087803b15801561085057600080fd5b505af1158015610864573d6000803e3d6000fd5b505050508473ffffffffffffffffffffffffffffffffffffffff167f5c7d6e0549ec2358d46223d7d77b0c7777d35759c3fac8031ee9b2f3661fb6088c868686426040516108b6959493929190610eed565b60405180910390a2505050505080806108ce90611226565b915050610485565b505050505050565b600033905090565b60008060009054906101000a900473ffffffffffffffffffffffffffffffffffffffff169050816000806101000a81548173ffffffffffffffffffffffffffffffffffffffff021916908373ffffffffffffffffffffffffffffffffffffffff1602179055508173ffffffffffffffffffffffffffffffffffffffff168173ffffffffffffffffffffffffffffffffffffffff167f8be0079c531659141344cd1fd0a4f28419497f9722a3daafe3b4186f6b6457e060405160405180910390a35050565b60006109bd6109b884610f6c565b610f47565b905080838252602082019050828560208602820111156109dc57600080fd5b60005b85811015610a0c57816109f28882610a82565b8452602084019350602083019250506001810190506109df565b5050509392505050565b6000610a29610a2484610f98565b610f47565b90508083825260208201905082856020860282011115610a4857600080fd5b60005b85811015610a785781610a5e8882610b00565b845260208401935060208301925050600181019050610a4b565b5050509392505050565b600081359050610a9181611420565b92915050565b600082601f830112610aa857600080fd5b8135610ab88482602086016109aa565b91505092915050565b600082601f830112610ad257600080fd5b8135610ae2848260208601610a16565b91505092915050565b600081359050610afa81611437565b92915050565b600081359050610b0f8161144e565b92915050565b600060208284031215610b2757600080fd5b6000610b3584828501610a82565b91505092915050565b600060208284031215610b5057600080fd5b6000610b5e84828501610aeb565b91505092915050565b600080600060608486031215610b7c57600080fd5b6000610b8a86828701610b00565b935050602084013567ffffffffffffffff811115610ba757600080fd5b610bb386828701610a97565b925050604084013567ffffffffffffffff811115610bd057600080fd5b610bdc86828701610ac1565b9150509250925092565b6000610bf28383610d4c565b60208301905092915050565b610c0781611178565b82525050565b6000610c1882610fd4565b610c228185610fec565b9350610c2d83610fc4565b8060005b83811015610c5e578151610c458882610be6565b9750610c5083610fdf565b925050600181019050610c31565b5085935050505092915050565b610c74816111d1565b82525050565b6000610c8760268361100e565b9150610c92826112de565b604082019050919050565b6000610caa60128361100e565b9150610cb58261132d565b602082019050919050565b6000610ccd602b8361100e565b9150610cd882611356565b604082019050919050565b6000610cf0603e8361100e565b9150610cfb826113a5565b604082019050919050565b6000610d1360208361100e565b9150610d1e826113f4565b602082019050919050565b6000610d36600083610ffd565b9150610d418261141d565b600082019050919050565b610d55816111aa565b82525050565b610d64816111aa565b82525050565b610d73816111b4565b82525050565b610d82816111c4565b82525050565b6000602082019050610d9d6000830184610bfe565b92915050565b6000608082019050610db86000830186610bfe565b8181036020830152610dca8185610c0d565b90508181036040830152610dde8184610c0d565b90508181036060830152610df181610d29565b9050949350505050565b6000602082019050610e106000830184610c6b565b92915050565b60006020820190508181036000830152610e2f81610c7a565b9050919050565b60006020820190508181036000830152610e4f81610c9d565b9050919050565b60006020820190508181036000830152610e6f81610cc0565b9050919050565b60006020820190508181036000830152610e8f81610ce3565b9050919050565b60006020820190508181036000830152610eaf81610d06565b9050919050565b6000606082019050610ecb6000830186610d5b565b610ed86020830185610d6a565b610ee56040830184610d6a565b949350505050565b600060a082019050610f026000830188610d79565b610f0f6020830187610d79565b610f1c6040830186610d5b565b8181036060830152610f2e8185610c0d565b9050610f3d6080830184610d5b565b9695505050505050565b6000610f51610f62565b9050610f5d82826111f5565b919050565b6000604051905090565b600067ffffffffffffffff821115610f8757610f8661129e565b5b602082029050602081019050919050565b600067ffffffffffffffff821115610fb357610fb261129e565b5b602082029050602081019050919050565b6000819050602082019050919050565b600081519050919050565b6000602082019050919050565b600082825260208201905092915050565b600082825260208201905092915050565b600082825260208201905092915050565b600061102a826111aa565b9150611035836111aa565b9250827fffffffffffffffffffffffffffffffffffffffffffffffffffffffffffffffff0382111561106a5761106961126f565b5b828201905092915050565b6000611080826111b4565b915061108b836111b4565b92508263ffffffff038211156110a4576110a361126f565b5b828201905092915050565b60006110ba826111aa565b91506110c5836111aa565b9250817fffffffffffffffffffffffffffffffffffffffffffffffffffffffffffffffff04831182151516156110fe576110fd61126f565b5b828202905092915050565b6000611114826111c4565b915061111f836111c4565b92508160ff04831182151516156111395761113861126f565b5b828202905092915050565b600061114f826111b4565b915061115a836111b4565b92508282101561116d5761116c61126f565b5b828203905092915050565b60006111838261118a565b9050919050565b600073ffffffffffffffffffffffffffffffffffffffff82169050919050565b6000819050919050565b600063ffffffff82169050919050565b600060ff82169050919050565b60006111dc826111e3565b9050919050565b60006111ee8261118a565b9050919050565b6111fe826112cd565b810181811067ffffffffffffffff8211171561121d5761121c61129e565b5b80604052505050565b6000611231826111aa565b91507fffffffffffffffffffffffffffffffffffffffffffffffffffffffffffffffff8214156112645761126361126f565b5b600182019050919050565b7f4e487b7100000000000000000000000000000000000000000000000000000000600052601160045260246000fd5b7f4e487b7100000000000000000000000000000000000000000000000000000000600052604160045260246000fd5b6000601f19601f8301169050919050565b7f4f776e61626c653a206e6577206f776e657220697320746865207a65726f206160008201527f6464726573730000000000000000000000000000000000000000000000000000602082015250565b7f626f784964206973206e6f742076616c69640000000000000000000000000000600082015250565b7f524f43426c696e64426f784f7862756c6c32303231313131353a2073746f636b60008201527f206e6f7420656e6f756768000000000000000000000000000000000000000000602082015250565b7f524f43426c696e64426f784f7862756c6c32303231313131353a206163636f7560008201527f6e747320616e6420636f756e7473206c656e677468206d69736d617463680000602082015250565b7f4f776e61626c653a2063616c6c6572206973206e6f7420746865206f776e6572600082015250565b50565b61142981611178565b811461143457600080fd5b50565b611440816111aa565b811461144b57600080fd5b50565b611457816111c4565b811461146257600080fd5b5056fea264697066735822122090ffbfd786122c5a0644e51ef217cde9f25995c877e58b7396d308c19a9a452b64736f6c63430008040033",
  "immutableReferences": {},
  "source": "// SPDX-License-Identifier: MIT\r\npragma solidity ^0.8.0;\r\n\r\nimport \"@openzeppelin/contracts/access/Ownable.sol\";\r\nimport './IROCNFTMint.sol';\r\n\r\ncontract ROCBlindBoxOxbull20211115 is Ownable {\r\n\r\n    struct BlindBoxInfo {\r\n        uint256 baseTokenId;\r\n        uint32 nextBoxIndex;\r\n        uint32 totalCount;\r\n    }\r\n\r\n    BlindBoxInfo[2] public blindBoxInfos;\r\n    IROCNFTMint public rocNFT;\r\n\r\n    event BlindBoxOpened(\r\n        address indexed payer,\r\n        uint8 boxId,\r\n        uint8 count,\r\n        uint256 baseBoxIndex,\r\n        uint256[] tokenIds,\r\n        uint256 date\r\n    );\r\n\r\n\r\n    constructor(address rocNFTAddress) {\r\n        rocNFT = IROCNFTMint(rocNFTAddress);\r\n        \r\n        setupBlindBoxInfo(0, 24001, 1000);\r\n        setupBlindBoxInfo(1, 29001, 400);\r\n    }\r\n\r\n    modifier boxIdIsValid(uint8 boxId) {\r\n        require(boxId < blindBoxInfos.length, \"boxId is not valid\");\r\n        _;\r\n    }\r\n\r\n    function setupBlindBoxInfo(uint8 boxId, uint256 pBaseTokenId, uint32 pTotalCount) private {\r\n        BlindBoxInfo storage boxInfo = blindBoxInfos[boxId];\r\n        boxInfo.baseTokenId = pBaseTokenId;\r\n        boxInfo.nextBoxIndex = 0;\r\n        boxInfo.totalCount = pTotalCount;\r\n    }\r\n    \r\n    function airdropBatch(uint8 boxId, address[] memory accounts, uint8[] memory counts) external onlyOwner boxIdIsValid(boxId) {\r\n        require(accounts.length == counts.length, \"ROCBlindBoxOxbull20211115: accounts and counts length mismatch\");\r\n        \r\n        BlindBoxInfo storage boxInfo = blindBoxInfos[boxId];\r\n        \r\n        for (uint256 i = 0; i < accounts.length; i++) {\r\n            address account = accounts[i];\r\n            uint8 count = counts[i];\r\n            require(boxInfo.totalCount - boxInfo.nextBoxIndex >= count, \"ROCBlindBoxOxbull20211115: stock not enough\");\r\n            uint256 baseBoxInx = boxInfo.nextBoxIndex;\r\n            boxInfo.nextBoxIndex += count;\r\n\r\n            uint256[] memory ids = new uint256[](5 * count);\r\n            uint256[] memory amounts = new uint256[](5 * count);\r\n            {\r\n                uint256 baseId = boxInfo.baseTokenId + baseBoxInx * 5;\r\n                for (uint256 j = 0; j < ids.length; j++) {\r\n                    ids[j] = baseId + j;\r\n                    amounts[j] = 1;\r\n                }\r\n            }\r\n            rocNFT.mintBatch(account, ids, amounts, \"\");\r\n            \r\n            emit BlindBoxOpened(account, boxId, count, baseBoxInx, ids, block.timestamp);\r\n        }\r\n    }\r\n}\r\n",
  "sourcePath": "C:/Users/quan/Work/WorkSpace/JoyGame/JoyTD/web/contracts/contracts/ROCBlindBoxOxbull20211115.sol",
  "compiler": {
    "name": "solc",
    "version": "0.8.4+commit.c7e474f2.Emscripten.clang"
  },
  "schemaVersion": "3.3.4",
  "updatedAt": "2021-11-16T13:27:08.417Z",
  "devdoc": {
    "kind": "dev",
    "methods": {
      "owner()": {
        "details": "Returns the address of the current owner."
      },
      "renounceOwnership()": {
        "details": "Leaves the contract without owner. It will not be possible to call `onlyOwner` functions anymore. Can only be called by the current owner. NOTE: Renouncing ownership will leave the contract without an owner, thereby removing any functionality that is only available to the owner."
      },
      "transferOwnership(address)": {
        "details": "Transfers ownership of the contract to a new account (`newOwner`). Can only be called by the current owner."
      }
    },
    "version": 1
  },
  "userdoc": {
    "kind": "user",
    "methods": {},
    "version": 1
  }
}