{
  "contractName": "ROCBlindBoxOxbullAirdropByAdd20211115",
  "abi": [
    {
      "inputs": [
        {
          "internalType": "address",
          "name": "rocNFTAddress",
          "type": "address"
        }
      ],
      "stateMutability": "nonpayable",
      "type": "constructor"
    },
    {
      "anonymous": false,
      "inputs": [
        {
          "indexed": true,
          "internalType": "address",
          "name": "payer",
          "type": "address"
        },
        {
          "indexed": false,
          "internalType": "uint8",
          "name": "boxId",
          "type": "uint8"
        },
        {
          "indexed": false,
          "internalType": "uint8",
          "name": "count",
          "type": "uint8"
        },
        {
          "indexed": false,
          "internalType": "uint256",
          "name": "baseBoxIndex",
          "type": "uint256"
        },
        {
          "indexed": false,
          "internalType": "uint256[]",
          "name": "tokenIds",
          "type": "uint256[]"
        },
        {
          "indexed": false,
          "internalType": "uint256",
          "name": "date",
          "type": "uint256"
        }
      ],
      "name": "BlindBoxOpened",
      "type": "event"
    },
    {
      "anonymous": false,
      "inputs": [
        {
          "indexed": true,
          "internalType": "address",
          "name": "previousOwner",
          "type": "address"
        },
        {
          "indexed": true,
          "internalType": "address",
          "name": "newOwner",
          "type": "address"
        }
      ],
      "name": "OwnershipTransferred",
      "type": "event"
    },
    {
      "inputs": [
        {
          "internalType": "uint256",
          "name": "",
          "type": "uint256"
        }
      ],
      "name": "blindBoxInfos",
      "outputs": [
        {
          "internalType": "uint256",
          "name": "baseTokenId",
          "type": "uint256"
        },
        {
          "internalType": "uint32",
          "name": "nextBoxIndex",
          "type": "uint32"
        },
        {
          "internalType": "uint32",
          "name": "totalCount",
          "type": "uint32"
        },
        {
          "internalType": "uint32",
          "name": "airdropedCount",
          "type": "uint32"
        }
      ],
      "stateMutability": "view",
      "type": "function",
      "constant": true
    },
    {
      "inputs": [],
      "name": "owner",
      "outputs": [
        {
          "internalType": "address",
          "name": "",
          "type": "address"
        }
      ],
      "stateMutability": "view",
      "type": "function",
      "constant": true
    },
    {
      "inputs": [],
      "name": "renounceOwnership",
      "outputs": [],
      "stateMutability": "nonpayable",
      "type": "function"
    },
    {
      "inputs": [],
      "name": "rocNFT",
      "outputs": [
        {
          "internalType": "contract IROCNFTMint",
          "name": "",
          "type": "address"
        }
      ],
      "stateMutability": "view",
      "type": "function",
      "constant": true
    },
    {
      "inputs": [
        {
          "internalType": "address",
          "name": "newOwner",
          "type": "address"
        }
      ],
      "name": "transferOwnership",
      "outputs": [],
      "stateMutability": "nonpayable",
      "type": "function"
    },
    {
      "inputs": [
        {
          "internalType": "address",
          "name": "",
          "type": "address"
        }
      ],
      "name": "userClaimed",
      "outputs": [
        {
          "internalType": "bool",
          "name": "",
          "type": "bool"
        }
      ],
      "stateMutability": "view",
      "type": "function",
      "constant": true
    },
    {
      "inputs": [
        {
          "internalType": "address",
          "name": "account",
          "type": "address"
        }
      ],
      "name": "canClaim",
      "outputs": [
        {
          "internalType": "bool",
          "name": "",
          "type": "bool"
        }
      ],
      "stateMutability": "view",
      "type": "function",
      "constant": true
    },
    {
      "inputs": [
        {
          "internalType": "address",
          "name": "account",
          "type": "address"
        },
        {
          "internalType": "uint8",
          "name": "boxId",
          "type": "uint8"
        }
      ],
      "name": "getAirdropBlindBoxCount",
      "outputs": [
        {
          "internalType": "uint8",
          "name": "",
          "type": "uint8"
        }
      ],
      "stateMutability": "view",
      "type": "function",
      "constant": true
    },
    {
      "inputs": [
        {
          "internalType": "uint8",
          "name": "boxId",
          "type": "uint8"
        },
        {
          "internalType": "address[]",
          "name": "accounts",
          "type": "address[]"
        },
        {
          "internalType": "uint8[]",
          "name": "counts",
          "type": "uint8[]"
        }
      ],
      "name": "addAirdrop",
      "outputs": [],
      "stateMutability": "nonpayable",
      "type": "function"
    },
    {
      "inputs": [],
      "name": "claim",
      "outputs": [],
      "stateMutability": "nonpayable",
      "type": "function"
    }
  ],
  "bytecode": "0x60806040523480156200001157600080fd5b5060405162001f5f38038062001f5f83398181016040528101906200003791906200024e565b620000576200004b620000cf60201b60201c565b620000d760201b60201c565b80600a60006101000a81548173ffffffffffffffffffffffffffffffffffffffff021916908373ffffffffffffffffffffffffffffffffffffffff160217905550620000b06000615dc16103e86200019b60201b60201c565b620000c860016171496101906200019b60201b60201c565b50620002c8565b600033905090565b60008060009054906101000a900473ffffffffffffffffffffffffffffffffffffffff169050816000806101000a81548173ffffffffffffffffffffffffffffffffffffffff021916908373ffffffffffffffffffffffffffffffffffffffff1602179055508173ffffffffffffffffffffffffffffffffffffffff168173ffffffffffffffffffffffffffffffffffffffff167f8be0079c531659141344cd1fd0a4f28419497f9722a3daafe3b4186f6b6457e060405160405180910390a35050565b600060018460ff1660028110620001db577f4e487b7100000000000000000000000000000000000000000000000000000000600052603260045260246000fd5b60040201905082816000018190555060008160010160006101000a81548163ffffffff021916908363ffffffff160217905550818160010160046101000a81548163ffffffff021916908363ffffffff16021790555050505050565b6000815190506200024881620002ae565b92915050565b6000602082840312156200026157600080fd5b6000620002718482850162000237565b91505092915050565b600062000287826200028e565b9050919050565b600073ffffffffffffffffffffffffffffffffffffffff82169050919050565b620002b9816200027a565b8114620002c557600080fd5b50565b611c8780620002d86000396000f3fe608060405234801561001057600080fd5b506004361061009e5760003560e01c80638da5cb5b116100665780638da5cb5b14610121578063ad66c4781461013f578063bf3506c11461016f578063eb469d981461019f578063f2fde38b146101d25761009e565b80632b5e2963146100a35780633b7fcdca146100bf5780634e71d92d146100ef578063715018a6146100f9578063813d88bb14610103575b600080fd5b6100bd60048036038101906100b891906111a6565b6101ee565b005b6100d960048036038101906100d49190611118565b6104b8565b6040516100e6919061148f565b60405180910390f35b6100f76104d8565b005b610101610a80565b005b61010b610b08565b60405161011891906114aa565b60405180910390f35b610129610b2e565b604051610136919061141c565b60405180910390f35b61015960048036038101906101549190611141565b610b57565b60405161016691906115ea565b60405180910390f35b61018960048036038101906101849190611118565b610c38565b604051610196919061148f565b60405180910390f35b6101b960048036038101906101b4919061117d565b610ca6565b6040516101c994939291906115a5565b60405180910390f35b6101ec60048036038101906101e79190611118565b610d0c565b005b6101f6610e04565b73ffffffffffffffffffffffffffffffffffffffff16610214610b2e565b73ffffffffffffffffffffffffffffffffffffffff161461026a576040517f08c379a000000000000000000000000000000000000000000000000000000000815260040161026190611585565b60405180910390fd5b80518251146102ae576040517f08c379a00000000000000000000000000000000000000000000000000000000081526004016102a590611525565b60405180910390fd5b600060018460ff16600281106102ed577f4e487b7100000000000000000000000000000000000000000000000000000000600052603260045260246000fd5b60040201905060008160030160009054906101000a900463ffffffff16905060005b845181101561048d576000858281518110610353577f4e487b7100000000000000000000000000000000000000000000000000000000600052603260045260246000fd5b602002602001015190506000858381518110610398577f4e487b7100000000000000000000000000000000000000000000000000000000600052603260045260246000fd5b602002602001015190508060ff16848660010160049054906101000a900463ffffffff166103c6919061185c565b63ffffffff16101561040d576040517f08c379a000000000000000000000000000000000000000000000000000000000815260040161040490611505565b60405180910390fd5b8060ff168461041c919061178d565b9350808560020160008473ffffffffffffffffffffffffffffffffffffffff1673ffffffffffffffffffffffffffffffffffffffff16815260200190815260200160002060006101000a81548160ff021916908360ff160217905550505080806104859061194a565b91505061030f565b50808260030160006101000a81548163ffffffff021916908363ffffffff1602179055505050505050565b60096020528060005260406000206000915054906101000a900460ff1681565b600960003373ffffffffffffffffffffffffffffffffffffffff1673ffffffffffffffffffffffffffffffffffffffff16815260200190815260200160002060009054906101000a900460ff1615610565576040517f08c379a000000000000000000000000000000000000000000000000000000000815260040161055c90611545565b60405180910390fd5b600033905061057381610e0c565b6105b2576040517f08c379a00000000000000000000000000000000000000000000000000000000081526004016105a990611565565b60405180910390fd5b6001600960008373ffffffffffffffffffffffffffffffffffffffff1673ffffffffffffffffffffffffffffffffffffffff16815260200190815260200160002060006101000a81548160ff02191690831515021790555060005b60028160ff161015610a7c57600060018260ff1660028110610658577f4e487b7100000000000000000000000000000000000000000000000000000000600052603260045260246000fd5b60040201905060008160020160008573ffffffffffffffffffffffffffffffffffffffff1673ffffffffffffffffffffffffffffffffffffffff16815260200190815260200160002060009054906101000a900460ff16905060008160ff161115610a67578060ff168260010160009054906101000a900463ffffffff168360010160049054906101000a900463ffffffff166106f5919061185c565b63ffffffff16101561073c576040517f08c379a000000000000000000000000000000000000000000000000000000000815260040161073390611505565b60405180910390fd5b60008260010160009054906101000a900463ffffffff1663ffffffff1690508160ff168360010160008282829054906101000a900463ffffffff16610781919061178d565b92506101000a81548163ffffffff021916908363ffffffff16021790555060008260056107ae9190611821565b60ff1667ffffffffffffffff8111156107f0577f4e487b7100000000000000000000000000000000000000000000000000000000600052604160045260246000fd5b60405190808252806020026020018201604052801561081e5781602001602082028036833780820191505090505b50905060008360056108309190611821565b60ff1667ffffffffffffffff811115610872577f4e487b7100000000000000000000000000000000000000000000000000000000600052604160045260246000fd5b6040519080825280602002602001820160405280156108a05781602001602082028036833780820191505090505b50905060006005846108b291906117c7565b86600001546108c19190611737565b905060005b835181101561097a5780826108db9190611737565b848281518110610914577f4e487b7100000000000000000000000000000000000000000000000000000000600052603260045260246000fd5b602002602001018181525050600183828151811061095b577f4e487b7100000000000000000000000000000000000000000000000000000000600052603260045260246000fd5b60200260200101818152505080806109729061194a565b9150506108c6565b5050600a60009054906101000a900473ffffffffffffffffffffffffffffffffffffffff1673ffffffffffffffffffffffffffffffffffffffff16631f7fdffa8884846040518463ffffffff1660e01b81526004016109db93929190611437565b600060405180830381600087803b1580156109f557600080fd5b505af1158015610a09573d6000803e3d6000fd5b505050508673ffffffffffffffffffffffffffffffffffffffff167f5c7d6e0549ec2358d46223d7d77b0c7777d35759c3fac8031ee9b2f3661fb6088786868642604051610a5b959493929190611605565b60405180910390a25050505b50508080610a7490611993565b91505061060d565b5050565b610a88610e04565b73ffffffffffffffffffffffffffffffffffffffff16610aa6610b2e565b73ffffffffffffffffffffffffffffffffffffffff1614610afc576040517f08c379a0000000000000000000000000000000000000000000000000000000008152600401610af390611585565b60405180910390fd5b610b066000610ee9565b565b600a60009054906101000a900473ffffffffffffffffffffffffffffffffffffffff1681565b60008060009054906101000a900473ffffffffffffffffffffffffffffffffffffffff16905090565b60008160028160ff1610610ba0576040517f08c379a0000000000000000000000000000000000000000000000000000000008152600401610b97906114e5565b60405180910390fd5b60018360ff1660028110610bdd577f4e487b7100000000000000000000000000000000000000000000000000000000600052603260045260246000fd5b6004020160020160008573ffffffffffffffffffffffffffffffffffffffff1673ffffffffffffffffffffffffffffffffffffffff16815260200190815260200160002060009054906101000a900460ff1691505092915050565b6000600960008373ffffffffffffffffffffffffffffffffffffffff1673ffffffffffffffffffffffffffffffffffffffff16815260200190815260200160002060009054906101000a900460ff1615610c955760009050610ca1565b610c9e82610e0c565b90505b919050565b60018160028110610cb657600080fd5b600402016000915090508060000154908060010160009054906101000a900463ffffffff16908060010160049054906101000a900463ffffffff16908060030160009054906101000a900463ffffffff16905084565b610d14610e04565b73ffffffffffffffffffffffffffffffffffffffff16610d32610b2e565b73ffffffffffffffffffffffffffffffffffffffff1614610d88576040517f08c379a0000000000000000000000000000000000000000000000000000000008152600401610d7f90611585565b60405180910390fd5b600073ffffffffffffffffffffffffffffffffffffffff168173ffffffffffffffffffffffffffffffffffffffff161415610df8576040517f08c379a0000000000000000000000000000000000000000000000000000000008152600401610def906114c5565b60405180910390fd5b610e0181610ee9565b50565b600033905090565b600080600090505b60028160ff161015610ede57600060018260ff1660028110610e5f577f4e487b7100000000000000000000000000000000000000000000000000000000600052603260045260246000fd5b6004020160020160008573ffffffffffffffffffffffffffffffffffffffff1673ffffffffffffffffffffffffffffffffffffffff16815260200190815260200160002060009054906101000a900460ff16905060008160ff161115610eca57600192505050610ee4565b508080610ed690611993565b915050610e14565b50600090505b919050565b60008060009054906101000a900473ffffffffffffffffffffffffffffffffffffffff169050816000806101000a81548173ffffffffffffffffffffffffffffffffffffffff021916908373ffffffffffffffffffffffffffffffffffffffff1602179055508173ffffffffffffffffffffffffffffffffffffffff168173ffffffffffffffffffffffffffffffffffffffff167f8be0079c531659141344cd1fd0a4f28419497f9722a3daafe3b4186f6b6457e060405160405180910390a35050565b6000610fc0610fbb84611684565b61165f565b90508083825260208201905082856020860282011115610fdf57600080fd5b60005b8581101561100f5781610ff58882611085565b845260208401935060208301925050600181019050610fe2565b5050509392505050565b600061102c611027846116b0565b61165f565b9050808382526020820190508285602086028201111561104b57600080fd5b60005b8581101561107b57816110618882611103565b84526020840193506020830192505060018101905061104e565b5050509392505050565b60008135905061109481611c0c565b92915050565b600082601f8301126110ab57600080fd5b81356110bb848260208601610fad565b91505092915050565b600082601f8301126110d557600080fd5b81356110e5848260208601611019565b91505092915050565b6000813590506110fd81611c23565b92915050565b60008135905061111281611c3a565b92915050565b60006020828403121561112a57600080fd5b600061113884828501611085565b91505092915050565b6000806040838503121561115457600080fd5b600061116285828601611085565b925050602061117385828601611103565b9150509250929050565b60006020828403121561118f57600080fd5b600061119d848285016110ee565b91505092915050565b6000806000606084860312156111bb57600080fd5b60006111c986828701611103565b935050602084013567ffffffffffffffff8111156111e657600080fd5b6111f28682870161109a565b925050604084013567ffffffffffffffff81111561120f57600080fd5b61121b868287016110c4565b9150509250925092565b600061123183836113e0565b60208301905092915050565b61124681611890565b82525050565b6000611257826116ec565b6112618185611704565b935061126c836116dc565b8060005b8381101561129d5781516112848882611225565b975061128f836116f7565b925050600181019050611270565b5085935050505092915050565b6112b3816118a2565b82525050565b6112c2816118f5565b82525050565b60006112d5602683611726565b91506112e082611a2c565b604082019050919050565b60006112f8601283611726565b915061130382611a7b565b602082019050919050565b600061131b602b83611726565b915061132682611aa4565b604082019050919050565b600061133e603e83611726565b915061134982611af3565b604082019050919050565b6000611361603483611726565b915061136c82611b42565b604082019050919050565b6000611384604083611726565b915061138f82611b91565b604082019050919050565b60006113a7602083611726565b91506113b282611be0565b602082019050919050565b60006113ca600083611715565b91506113d582611c09565b600082019050919050565b6113e9816118ce565b82525050565b6113f8816118ce565b82525050565b611407816118d8565b82525050565b611416816118e8565b82525050565b6000602082019050611431600083018461123d565b92915050565b600060808201905061144c600083018661123d565b818103602083015261145e818561124c565b90508181036040830152611472818461124c565b90508181036060830152611485816113bd565b9050949350505050565b60006020820190506114a460008301846112aa565b92915050565b60006020820190506114bf60008301846112b9565b92915050565b600060208201905081810360008301526114de816112c8565b9050919050565b600060208201905081810360008301526114fe816112eb565b9050919050565b6000602082019050818103600083015261151e8161130e565b9050919050565b6000602082019050818103600083015261153e81611331565b9050919050565b6000602082019050818103600083015261155e81611354565b9050919050565b6000602082019050818103600083015261157e81611377565b9050919050565b6000602082019050818103600083015261159e8161139a565b9050919050565b60006080820190506115ba60008301876113ef565b6115c760208301866113fe565b6115d460408301856113fe565b6115e160608301846113fe565b95945050505050565b60006020820190506115ff600083018461140d565b92915050565b600060a08201905061161a600083018861140d565b611627602083018761140d565b61163460408301866113ef565b8181036060830152611646818561124c565b905061165560808301846113ef565b9695505050505050565b600061166961167a565b90506116758282611919565b919050565b6000604051905090565b600067ffffffffffffffff82111561169f5761169e6119ec565b5b602082029050602081019050919050565b600067ffffffffffffffff8211156116cb576116ca6119ec565b5b602082029050602081019050919050565b6000819050602082019050919050565b600081519050919050565b6000602082019050919050565b600082825260208201905092915050565b600082825260208201905092915050565b600082825260208201905092915050565b6000611742826118ce565b915061174d836118ce565b9250827fffffffffffffffffffffffffffffffffffffffffffffffffffffffffffffffff03821115611782576117816119bd565b5b828201905092915050565b6000611798826118d8565b91506117a3836118d8565b92508263ffffffff038211156117bc576117bb6119bd565b5b828201905092915050565b60006117d2826118ce565b91506117dd836118ce565b9250817fffffffffffffffffffffffffffffffffffffffffffffffffffffffffffffffff0483118215151615611816576118156119bd565b5b828202905092915050565b600061182c826118e8565b9150611837836118e8565b92508160ff0483118215151615611851576118506119bd565b5b828202905092915050565b6000611867826118d8565b9150611872836118d8565b925082821015611885576118846119bd565b5b828203905092915050565b600061189b826118ae565b9050919050565b60008115159050919050565b600073ffffffffffffffffffffffffffffffffffffffff82169050919050565b6000819050919050565b600063ffffffff82169050919050565b600060ff82169050919050565b600061190082611907565b9050919050565b6000611912826118ae565b9050919050565b61192282611a1b565b810181811067ffffffffffffffff82111715611941576119406119ec565b5b80604052505050565b6000611955826118ce565b91507fffffffffffffffffffffffffffffffffffffffffffffffffffffffffffffffff821415611988576119876119bd565b5b600182019050919050565b600061199e826118e8565b915060ff8214156119b2576119b16119bd565b5b600182019050919050565b7f4e487b7100000000000000000000000000000000000000000000000000000000600052601160045260246000fd5b7f4e487b7100000000000000000000000000000000000000000000000000000000600052604160045260246000fd5b6000601f19601f8301169050919050565b7f4f776e61626c653a206e6577206f776e657220697320746865207a65726f206160008201527f6464726573730000000000000000000000000000000000000000000000000000602082015250565b7f626f784964206973206e6f742076616c69640000000000000000000000000000600082015250565b7f524f43426c696e64426f784f7862756c6c32303231313131353a2073746f636b60008201527f206e6f7420656e6f756768000000000000000000000000000000000000000000602082015250565b7f524f43426c696e64426f784f7862756c6c32303231313131353a206163636f7560008201527f6e747320616e6420636f756e7473206c656e677468206d69736d617463680000602082015250565b7f524f43426c696e64426f784f7862756c6c41697264726f70323032313131313560008201527f3a2063616c6c65722068617320636c61696d6564000000000000000000000000602082015250565b7f524f43426c696e64426f784f7862756c6c41697264726f70323032313131313560008201527f3a2063616c6c657220646f206e6f74206861766520616e792061697264726f70602082015250565b7f4f776e61626c653a2063616c6c6572206973206e6f7420746865206f776e6572600082015250565b50565b611c1581611890565b8114611c2057600080fd5b50565b611c2c816118ce565b8114611c3757600080fd5b50565b611c43816118e8565b8114611c4e57600080fd5b5056fea2646970667358221220bb465f85005e166a71146d1d31d35e258b563dc9a172e98ff87e2d0a54710eab64736f6c63430008040033",
  "immutableReferences": {},
  "source": "// SPDX-License-Identifier: MIT\r\npragma solidity ^0.8.0;\r\n\r\nimport \"@openzeppelin/contracts/access/Ownable.sol\";\r\nimport './IROCNFTMint.sol';\r\n\r\ncontract ROCBlindBoxOxbullAirdropByAdd20211115 is Ownable {\r\n\r\n    struct BlindBoxInfo {\r\n        uint256 baseTokenId;\r\n        uint32 nextBoxIndex;\r\n        uint32 totalCount;\r\n        mapping(address => uint8) airdrops;\r\n        uint32 airdropedCount;\r\n    }\r\n\r\n    BlindBoxInfo[2] public blindBoxInfos;\r\n    mapping(address => bool) public userClaimed;\r\n\r\n    IROCNFTMint public rocNFT;\r\n\r\n    event BlindBoxOpened(\r\n        address indexed payer,\r\n        uint8 boxId,\r\n        uint8 count,\r\n        uint256 baseBoxIndex,\r\n        uint256[] tokenIds,\r\n        uint256 date\r\n    );\r\n\r\n\r\n    constructor(address rocNFTAddress) {\r\n        rocNFT = IROCNFTMint(rocNFTAddress);\r\n        setupBlindBoxInfo(0, 24001, 1000);\r\n        setupBlindBoxInfo(1, 29001, 400);\r\n    }\r\n\r\n    modifier onlyNotClaimed() {\r\n        require(!userClaimed[msg.sender], \"ROCBlindBoxOxbullAirdrop20211115: caller has claimed\");\r\n        _;\r\n    }\r\n\r\n    function userHasAirdrop(address account) private view returns (bool) {\r\n        for (uint8 boxId = 0; boxId < 2; boxId++) {\r\n            uint8 count = blindBoxInfos[boxId].airdrops[account];\r\n            if (count > 0) {\r\n                return true;\r\n            }\r\n        }\r\n        return false;\r\n    }\r\n    \r\n    modifier boxIdIsValid(uint8 boxId) {\r\n        require(boxId < blindBoxInfos.length, \"boxId is not valid\");\r\n        _;\r\n    }\r\n\r\n    function canClaim(address account) public view returns (bool) {\r\n        if (userClaimed[account]) {\r\n            return false;\r\n        }\r\n\r\n        return userHasAirdrop(account);\r\n    }\r\n\r\n    function getAirdropBlindBoxCount(address account, uint8 boxId) public view boxIdIsValid(boxId) returns (uint8) {\r\n        return blindBoxInfos[boxId].airdrops[account];\r\n    }\r\n\r\n    function setupBlindBoxInfo(uint8 boxId, uint256 pBaseTokenId, uint32 pTotalCount) private {\r\n        BlindBoxInfo storage boxInfo = blindBoxInfos[boxId];\r\n        boxInfo.baseTokenId = pBaseTokenId;\r\n        boxInfo.nextBoxIndex = 0;\r\n        boxInfo.totalCount = pTotalCount;\r\n    }\r\n\r\n    function addAirdrop(uint8 boxId, address[] memory accounts, uint8[] memory counts) external onlyOwner {\r\n        require(accounts.length == counts.length, \"ROCBlindBoxOxbull20211115: accounts and counts length mismatch\");\r\n        \r\n        BlindBoxInfo storage boxInfo = blindBoxInfos[boxId];\r\n        uint32 airdropedCount = boxInfo.airdropedCount;\r\n        for (uint256 i = 0; i < accounts.length; i++) {\r\n            address account = accounts[i];\r\n            uint8 count = counts[i];\r\n            require(boxInfo.totalCount - airdropedCount >= count, \"ROCBlindBoxOxbull20211115: stock not enough\");\r\n            \r\n            airdropedCount += count;\r\n            boxInfo.airdrops[account] = count;\r\n        }\r\n        boxInfo.airdropedCount = airdropedCount;\r\n    }\r\n    \r\n    function claim() external onlyNotClaimed {\r\n        address account = msg.sender;\r\n\r\n        require(userHasAirdrop(account), \"ROCBlindBoxOxbullAirdrop20211115: caller do not have any airdrop\");\r\n        \r\n        userClaimed[account] = true;\r\n        for (uint8 boxId = 0; boxId < 2; boxId++) {\r\n            BlindBoxInfo storage boxInfo = blindBoxInfos[boxId];\r\n            uint8 count = boxInfo.airdrops[account];\r\n            if (count > 0) {\r\n                require(boxInfo.totalCount - boxInfo.nextBoxIndex >= count, \"ROCBlindBoxOxbull20211115: stock not enough\");\r\n                uint256 baseBoxInx = boxInfo.nextBoxIndex;\r\n                boxInfo.nextBoxIndex += count;\r\n                uint256[] memory ids = new uint256[](5 * count);\r\n                uint256[] memory amounts = new uint256[](5 * count);\r\n                {\r\n                    uint256 baseId = boxInfo.baseTokenId + baseBoxInx * 5;\r\n                    for (uint256 j = 0; j < ids.length; j++) {\r\n                        ids[j] = baseId + j;\r\n                        amounts[j] = 1;\r\n                    }\r\n                }\r\n                rocNFT.mintBatch(account, ids, amounts, \"\");\r\n                \r\n                emit BlindBoxOpened(account, boxId, count, baseBoxInx, ids, block.timestamp);\r\n            }\r\n        }\r\n    }\r\n}\r\n",
  "sourcePath": "C:/Users/quan/Work/WorkSpace/JoyGame/JoyTD/web/contracts/contracts/ROCBlindBoxOxbullAirdropByAdd20211115.sol",
  "compiler": {
    "name": "solc",
    "version": "0.8.4+commit.c7e474f2.Emscripten.clang"
  },
  "schemaVersion": "3.3.4",
  "updatedAt": "2021-11-16T19:36:13.671Z",
  "networkType": "ethereum",
  "devdoc": {
    "kind": "dev",
    "methods": {
      "owner()": {
        "details": "Returns the address of the current owner."
      },
      "renounceOwnership()": {
        "details": "Leaves the contract without owner. It will not be possible to call `onlyOwner` functions anymore. Can only be called by the current owner. NOTE: Renouncing ownership will leave the contract without an owner, thereby removing any functionality that is only available to the owner."
      },
      "transferOwnership(address)": {
        "details": "Transfers ownership of the contract to a new account (`newOwner`). Can only be called by the current owner."
      }
    },
    "version": 1
  },
  "userdoc": {
    "kind": "user",
    "methods": {},
    "version": 1
  }
}