{
  "contractName": "ROCNFT2",
  "abi": [
    {
      "inputs": [],
      "stateMutability": "nonpayable",
      "type": "constructor"
    },
    {
      "anonymous": false,
      "inputs": [
        {
          "indexed": true,
          "internalType": "address",
          "name": "owner",
          "type": "address"
        },
        {
          "indexed": true,
          "internalType": "address",
          "name": "approved",
          "type": "address"
        },
        {
          "indexed": true,
          "internalType": "uint256",
          "name": "tokenId",
          "type": "uint256"
        }
      ],
      "name": "Approval",
      "type": "event"
    },
    {
      "anonymous": false,
      "inputs": [
        {
          "indexed": true,
          "internalType": "address",
          "name": "owner",
          "type": "address"
        },
        {
          "indexed": true,
          "internalType": "address",
          "name": "operator",
          "type": "address"
        },
        {
          "indexed": false,
          "internalType": "bool",
          "name": "approved",
          "type": "bool"
        }
      ],
      "name": "ApprovalForAll",
      "type": "event"
    },
    {
      "anonymous": false,
      "inputs": [
        {
          "indexed": true,
          "internalType": "address",
          "name": "previousOwner",
          "type": "address"
        },
        {
          "indexed": true,
          "internalType": "address",
          "name": "newOwner",
          "type": "address"
        }
      ],
      "name": "OwnershipTransferred",
      "type": "event"
    },
    {
      "anonymous": false,
      "inputs": [
        {
          "indexed": false,
          "internalType": "address",
          "name": "account",
          "type": "address"
        }
      ],
      "name": "Paused",
      "type": "event"
    },
    {
      "anonymous": false,
      "inputs": [
        {
          "indexed": true,
          "internalType": "bytes32",
          "name": "role",
          "type": "bytes32"
        },
        {
          "indexed": true,
          "internalType": "bytes32",
          "name": "previousAdminRole",
          "type": "bytes32"
        },
        {
          "indexed": true,
          "internalType": "bytes32",
          "name": "newAdminRole",
          "type": "bytes32"
        }
      ],
      "name": "RoleAdminChanged",
      "type": "event"
    },
    {
      "anonymous": false,
      "inputs": [
        {
          "indexed": true,
          "internalType": "bytes32",
          "name": "role",
          "type": "bytes32"
        },
        {
          "indexed": true,
          "internalType": "address",
          "name": "account",
          "type": "address"
        },
        {
          "indexed": true,
          "internalType": "address",
          "name": "sender",
          "type": "address"
        }
      ],
      "name": "RoleGranted",
      "type": "event"
    },
    {
      "anonymous": false,
      "inputs": [
        {
          "indexed": true,
          "internalType": "bytes32",
          "name": "role",
          "type": "bytes32"
        },
        {
          "indexed": true,
          "internalType": "address",
          "name": "account",
          "type": "address"
        },
        {
          "indexed": true,
          "internalType": "address",
          "name": "sender",
          "type": "address"
        }
      ],
      "name": "RoleRevoked",
      "type": "event"
    },
    {
      "anonymous": false,
      "inputs": [
        {
          "indexed": true,
          "internalType": "address",
          "name": "from",
          "type": "address"
        },
        {
          "indexed": true,
          "internalType": "address",
          "name": "to",
          "type": "address"
        },
        {
          "indexed": true,
          "internalType": "uint256",
          "name": "tokenId",
          "type": "uint256"
        }
      ],
      "name": "Transfer",
      "type": "event"
    },
    {
      "anonymous": false,
      "inputs": [
        {
          "indexed": true,
          "internalType": "address",
          "name": "operator",
          "type": "address"
        },
        {
          "indexed": true,
          "internalType": "address",
          "name": "from",
          "type": "address"
        },
        {
          "indexed": true,
          "internalType": "address",
          "name": "to",
          "type": "address"
        },
        {
          "indexed": false,
          "internalType": "uint256[]",
          "name": "ids",
          "type": "uint256[]"
        },
        {
          "indexed": false,
          "internalType": "uint256[]",
          "name": "values",
          "type": "uint256[]"
        }
      ],
      "name": "TransferBatch",
      "type": "event"
    },
    {
      "anonymous": false,
      "inputs": [
        {
          "indexed": true,
          "internalType": "address",
          "name": "operator",
          "type": "address"
        },
        {
          "indexed": true,
          "internalType": "address",
          "name": "from",
          "type": "address"
        },
        {
          "indexed": true,
          "internalType": "address",
          "name": "to",
          "type": "address"
        },
        {
          "indexed": false,
          "internalType": "uint256",
          "name": "id",
          "type": "uint256"
        },
        {
          "indexed": false,
          "internalType": "uint256",
          "name": "value",
          "type": "uint256"
        }
      ],
      "name": "TransferSingle",
      "type": "event"
    },
    {
      "anonymous": false,
      "inputs": [
        {
          "indexed": false,
          "internalType": "string",
          "name": "value",
          "type": "string"
        },
        {
          "indexed": true,
          "internalType": "uint256",
          "name": "id",
          "type": "uint256"
        }
      ],
      "name": "URI",
      "type": "event"
    },
    {
      "anonymous": false,
      "inputs": [
        {
          "indexed": false,
          "internalType": "address",
          "name": "account",
          "type": "address"
        }
      ],
      "name": "Unpaused",
      "type": "event"
    },
    {
      "inputs": [],
      "name": "DEFAULT_ADMIN_ROLE",
      "outputs": [
        {
          "internalType": "bytes32",
          "name": "",
          "type": "bytes32"
        }
      ],
      "stateMutability": "view",
      "type": "function"
    },
    {
      "inputs": [],
      "name": "MINTER_ROLE",
      "outputs": [
        {
          "internalType": "bytes32",
          "name": "",
          "type": "bytes32"
        }
      ],
      "stateMutability": "view",
      "type": "function"
    },
    {
      "inputs": [],
      "name": "URI_SETTER_ROLE",
      "outputs": [
        {
          "internalType": "bytes32",
          "name": "",
          "type": "bytes32"
        }
      ],
      "stateMutability": "view",
      "type": "function"
    },
    {
      "inputs": [
        {
          "internalType": "address",
          "name": "to",
          "type": "address"
        },
        {
          "internalType": "uint256",
          "name": "tokenId",
          "type": "uint256"
        }
      ],
      "name": "approve",
      "outputs": [],
      "stateMutability": "nonpayable",
      "type": "function"
    },
    {
      "inputs": [
        {
          "internalType": "address",
          "name": "account",
          "type": "address"
        },
        {
          "internalType": "uint256",
          "name": "id",
          "type": "uint256"
        }
      ],
      "name": "balanceOf",
      "outputs": [
        {
          "internalType": "uint256",
          "name": "",
          "type": "uint256"
        }
      ],
      "stateMutability": "view",
      "type": "function"
    },
    {
      "inputs": [
        {
          "internalType": "address",
          "name": "owner",
          "type": "address"
        }
      ],
      "name": "balanceOf",
      "outputs": [
        {
          "internalType": "uint256",
          "name": "",
          "type": "uint256"
        }
      ],
      "stateMutability": "view",
      "type": "function"
    },
    {
      "inputs": [
        {
          "internalType": "address[]",
          "name": "accounts",
          "type": "address[]"
        },
        {
          "internalType": "uint256[]",
          "name": "ids",
          "type": "uint256[]"
        }
      ],
      "name": "balanceOfBatch",
      "outputs": [
        {
          "internalType": "uint256[]",
          "name": "",
          "type": "uint256[]"
        }
      ],
      "stateMutability": "view",
      "type": "function"
    },
    {
      "inputs": [
        {
          "internalType": "uint256",
          "name": "tokenId",
          "type": "uint256"
        }
      ],
      "name": "getApproved",
      "outputs": [
        {
          "internalType": "address",
          "name": "",
          "type": "address"
        }
      ],
      "stateMutability": "view",
      "type": "function"
    },
    {
      "inputs": [
        {
          "internalType": "bytes32",
          "name": "role",
          "type": "bytes32"
        }
      ],
      "name": "getRoleAdmin",
      "outputs": [
        {
          "internalType": "bytes32",
          "name": "",
          "type": "bytes32"
        }
      ],
      "stateMutability": "view",
      "type": "function"
    },
    {
      "inputs": [
        {
          "internalType": "bytes32",
          "name": "role",
          "type": "bytes32"
        },
        {
          "internalType": "address",
          "name": "account",
          "type": "address"
        }
      ],
      "name": "grantRole",
      "outputs": [],
      "stateMutability": "nonpayable",
      "type": "function"
    },
    {
      "inputs": [
        {
          "internalType": "bytes32",
          "name": "role",
          "type": "bytes32"
        },
        {
          "internalType": "address",
          "name": "account",
          "type": "address"
        }
      ],
      "name": "hasRole",
      "outputs": [
        {
          "internalType": "bool",
          "name": "",
          "type": "bool"
        }
      ],
      "stateMutability": "view",
      "type": "function"
    },
    {
      "inputs": [
        {
          "internalType": "address",
          "name": "owner",
          "type": "address"
        },
        {
          "internalType": "address",
          "name": "operator",
          "type": "address"
        }
      ],
      "name": "isApprovedForAll",
      "outputs": [
        {
          "internalType": "bool",
          "name": "",
          "type": "bool"
        }
      ],
      "stateMutability": "view",
      "type": "function"
    },
    {
      "inputs": [],
      "name": "name",
      "outputs": [
        {
          "internalType": "string",
          "name": "",
          "type": "string"
        }
      ],
      "stateMutability": "view",
      "type": "function"
    },
    {
      "inputs": [],
      "name": "owner",
      "outputs": [
        {
          "internalType": "address",
          "name": "",
          "type": "address"
        }
      ],
      "stateMutability": "view",
      "type": "function"
    },
    {
      "inputs": [
        {
          "internalType": "uint256",
          "name": "tokenId",
          "type": "uint256"
        }
      ],
      "name": "ownerOf",
      "outputs": [
        {
          "internalType": "address",
          "name": "",
          "type": "address"
        }
      ],
      "stateMutability": "view",
      "type": "function"
    },
    {
      "inputs": [],
      "name": "paused",
      "outputs": [
        {
          "internalType": "bool",
          "name": "",
          "type": "bool"
        }
      ],
      "stateMutability": "view",
      "type": "function"
    },
    {
      "inputs": [],
      "name": "renounceOwnership",
      "outputs": [],
      "stateMutability": "nonpayable",
      "type": "function"
    },
    {
      "inputs": [
        {
          "internalType": "bytes32",
          "name": "role",
          "type": "bytes32"
        },
        {
          "internalType": "address",
          "name": "account",
          "type": "address"
        }
      ],
      "name": "renounceRole",
      "outputs": [],
      "stateMutability": "nonpayable",
      "type": "function"
    },
    {
      "inputs": [
        {
          "internalType": "bytes32",
          "name": "role",
          "type": "bytes32"
        },
        {
          "internalType": "address",
          "name": "account",
          "type": "address"
        }
      ],
      "name": "revokeRole",
      "outputs": [],
      "stateMutability": "nonpayable",
      "type": "function"
    },
    {
      "inputs": [
        {
          "internalType": "address",
          "name": "from",
          "type": "address"
        },
        {
          "internalType": "address",
          "name": "to",
          "type": "address"
        },
        {
          "internalType": "uint256[]",
          "name": "ids",
          "type": "uint256[]"
        },
        {
          "internalType": "uint256[]",
          "name": "amounts",
          "type": "uint256[]"
        },
        {
          "internalType": "bytes",
          "name": "data",
          "type": "bytes"
        }
      ],
      "name": "safeBatchTransferFrom",
      "outputs": [],
      "stateMutability": "nonpayable",
      "type": "function"
    },
    {
      "inputs": [
        {
          "internalType": "address",
          "name": "from",
          "type": "address"
        },
        {
          "internalType": "address",
          "name": "to",
          "type": "address"
        },
        {
          "internalType": "uint256",
          "name": "tokenId",
          "type": "uint256"
        }
      ],
      "name": "safeTransferFrom",
      "outputs": [],
      "stateMutability": "nonpayable",
      "type": "function"
    },
    {
      "inputs": [
        {
          "internalType": "address",
          "name": "from",
          "type": "address"
        },
        {
          "internalType": "address",
          "name": "to",
          "type": "address"
        },
        {
          "internalType": "uint256",
          "name": "tokenId",
          "type": "uint256"
        },
        {
          "internalType": "bytes",
          "name": "_data",
          "type": "bytes"
        }
      ],
      "name": "safeTransferFrom",
      "outputs": [],
      "stateMutability": "nonpayable",
      "type": "function"
    },
    {
      "inputs": [
        {
          "internalType": "address",
          "name": "from",
          "type": "address"
        },
        {
          "internalType": "address",
          "name": "to",
          "type": "address"
        },
        {
          "internalType": "uint256",
          "name": "id",
          "type": "uint256"
        },
        {
          "internalType": "uint256",
          "name": "amount",
          "type": "uint256"
        },
        {
          "internalType": "bytes",
          "name": "data",
          "type": "bytes"
        }
      ],
      "name": "safeTransferFrom",
      "outputs": [],
      "stateMutability": "nonpayable",
      "type": "function"
    },
    {
      "inputs": [
        {
          "internalType": "address",
          "name": "operator",
          "type": "address"
        },
        {
          "internalType": "bool",
          "name": "approved",
          "type": "bool"
        }
      ],
      "name": "setApprovalForAll",
      "outputs": [],
      "stateMutability": "nonpayable",
      "type": "function"
    },
    {
      "inputs": [],
      "name": "symbol",
      "outputs": [
        {
          "internalType": "string",
          "name": "",
          "type": "string"
        }
      ],
      "stateMutability": "view",
      "type": "function"
    },
    {
      "inputs": [
        {
          "internalType": "uint256",
          "name": "tokenId",
          "type": "uint256"
        }
      ],
      "name": "tokenURI",
      "outputs": [
        {
          "internalType": "string",
          "name": "",
          "type": "string"
        }
      ],
      "stateMutability": "view",
      "type": "function"
    },
    {
      "inputs": [
        {
          "internalType": "address",
          "name": "from",
          "type": "address"
        },
        {
          "internalType": "address",
          "name": "to",
          "type": "address"
        },
        {
          "internalType": "uint256",
          "name": "tokenId",
          "type": "uint256"
        }
      ],
      "name": "transferFrom",
      "outputs": [],
      "stateMutability": "nonpayable",
      "type": "function"
    },
    {
      "inputs": [
        {
          "internalType": "address",
          "name": "newOwner",
          "type": "address"
        }
      ],
      "name": "transferOwnership",
      "outputs": [],
      "stateMutability": "nonpayable",
      "type": "function"
    },
    {
      "inputs": [
        {
          "internalType": "uint256",
          "name": "tokenId",
          "type": "uint256"
        }
      ],
      "name": "uri",
      "outputs": [
        {
          "internalType": "string",
          "name": "",
          "type": "string"
        }
      ],
      "stateMutability": "view",
      "type": "function"
    },
    {
      "inputs": [
        {
          "internalType": "string",
          "name": "newuri",
          "type": "string"
        }
      ],
      "name": "setURI",
      "outputs": [],
      "stateMutability": "nonpayable",
      "type": "function"
    },
    {
      "inputs": [],
      "name": "pause",
      "outputs": [],
      "stateMutability": "nonpayable",
      "type": "function"
    },
    {
      "inputs": [],
      "name": "unpause",
      "outputs": [],
      "stateMutability": "nonpayable",
      "type": "function"
    },
    {
      "inputs": [
        {
          "internalType": "address",
          "name": "account",
          "type": "address"
        },
        {
          "internalType": "uint256",
          "name": "id",
          "type": "uint256"
        },
        {
          "internalType": "bytes",
          "name": "data",
          "type": "bytes"
        }
      ],
      "name": "mint",
      "outputs": [],
      "stateMutability": "nonpayable",
      "type": "function"
    },
    {
      "inputs": [
        {
          "internalType": "address",
          "name": "to",
          "type": "address"
        },
        {
          "internalType": "uint256[]",
          "name": "ids",
          "type": "uint256[]"
        }
      ],
      "name": "mintBatch",
      "outputs": [],
      "stateMutability": "nonpayable",
      "type": "function"
    },
    {
      "inputs": [
        {
          "internalType": "bytes4",
          "name": "interfaceId",
          "type": "bytes4"
        }
      ],
      "name": "supportsInterface",
      "outputs": [
        {
          "internalType": "bool",
          "name": "",
          "type": "bool"
        }
      ],
      "stateMutability": "view",
      "type": "function"
    }
  ],
  "bytecode": "0x60806040523480156200001157600080fd5b506040518060400160405280600c81526020017f52697365206f66204361747300000000000000000000000000000000000000008152506040518060400160405280600381526020017f524f4300000000000000000000000000000000000000000000000000000000008152506040518060400160405280601f81526020017f68747470733a2f2f6e66742e726973656f66636174732e636f6d2f6361742f0081525082828160009080519060200190620000ce92919062000415565b508060019080519060200190620000e792919062000415565b505050620000fb81620001b860201b60201c565b5050506200011e62000112620001d460201b60201c565b620001dc60201b60201c565b6000600960006101000a81548160ff0219169083151502179055506200014e6000801b33620002a260201b60201c565b620001807f7804d923f43a17d325d77e781528e0793b2edd9890ab45fc64efd7b4b427744c33620002a260201b60201c565b620001b27f9f2df0fed2c77648de5860a4cc508cd0818c85b8b8a1ab4ceeef8d981c8956a633620002a260201b60201c565b6200052a565b8060069080519060200190620001d092919062000415565b5050565b600033905090565b6000600760009054906101000a900473ffffffffffffffffffffffffffffffffffffffff16905081600760006101000a81548173ffffffffffffffffffffffffffffffffffffffff021916908373ffffffffffffffffffffffffffffffffffffffff1602179055508173ffffffffffffffffffffffffffffffffffffffff168173ffffffffffffffffffffffffffffffffffffffff167f8be0079c531659141344cd1fd0a4f28419497f9722a3daafe3b4186f6b6457e060405160405180910390a35050565b620002b48282620002b860201b60201c565b5050565b620002ca8282620003aa60201b60201c565b620003a65760016008600084815260200190815260200160002060000160008373ffffffffffffffffffffffffffffffffffffffff1673ffffffffffffffffffffffffffffffffffffffff16815260200190815260200160002060006101000a81548160ff0219169083151502179055506200034b620001d460201b60201c565b73ffffffffffffffffffffffffffffffffffffffff168173ffffffffffffffffffffffffffffffffffffffff16837f2f8788117e7eff1d82e926ec794901d17c78024a50270940304540a733656f0d60405160405180910390a45b5050565b60006008600084815260200190815260200160002060000160008373ffffffffffffffffffffffffffffffffffffffff1673ffffffffffffffffffffffffffffffffffffffff16815260200190815260200160002060009054906101000a900460ff16905092915050565b8280546200042390620004c5565b90600052602060002090601f01602090048101928262000447576000855562000493565b82601f106200046257805160ff191683800117855562000493565b8280016001018555821562000493579182015b828111156200049257825182559160200191906001019062000475565b5b509050620004a29190620004a6565b5090565b5b80821115620004c1576000816000905550600101620004a7565b5090565b60006002820490506001821680620004de57607f821691505b60208210811415620004f557620004f4620004fb565b5b50919050565b7f4e487b7100000000000000000000000000000000000000000000000000000000600052602260045260246000fd5b615d15806200053a6000396000f3fe608060405234801561001057600080fd5b50600436106102105760003560e01c806370a0823111610125578063a217fddf116100ad578063d53913931161007c578063d5391393146105fb578063d547741f14610619578063e985e9c514610635578063f242432a14610665578063f2fde38b1461068157610210565b8063a217fddf14610575578063a22cb46514610593578063b88d4fde146105af578063c87b56dd146105cb57610210565b80638456cb59116100f45780638456cb59146104e35780638da5cb5b146104ed57806391d148541461050b57806394d008ef1461053b57806395d89b411461055757610210565b806370a082311461046f578063715018a61461049f57806375ceb341146104a95780637f345710146104c557610210565b8063248a9ca3116101a85780633f4ba83a116101775780633f4ba83a146103cb57806342842e0e146103d55780634e1273f4146103f15780635c975abb146104215780636352211e1461043f57610210565b8063248a9ca3146103475780632eb2c2d6146103775780632f2ff15d1461039357806336568abe146103af57610210565b8063081812fc116101e4578063081812fc146102af578063095ea7b3146102df5780630e89341c146102fb57806323b872dd1461032b57610210565b8062fdd58e1461021557806301ffc9a71461024557806302fe53051461027557806306fdde0314610291575b600080fd5b61022f600480360381019061022a9190613f33565b61069d565b60405161023c9190614d71565b60405180910390f35b61025f600480360381019061025a91906140a7565b610720565b60405161026c9190614939565b60405180910390f35b61028f600480360381019061028a91906140f9565b610742565b005b610299610781565b6040516102a6919061496f565b60405180910390f35b6102c960048036038101906102c4919061413a565b610813565b6040516102d691906147b7565b60405180910390f35b6102f960048036038101906102f49190613f33565b610898565b005b6103156004803603810190610310919061413a565b6109b0565b604051610322919061496f565b60405180910390f35b61034560048036038101906103409190613d4a565b6109c2565b005b610361600480360381019061035c9190614042565b610a58565b60405161036e9190614954565b60405180910390f35b610391600480360381019061038c9190613c8b565b610a78565b005b6103ad60048036038101906103a8919061406b565b610b19565b005b6103c960048036038101906103c4919061406b565b610b42565b005b6103d3610bc5565b005b6103ef60048036038101906103ea9190613d4a565b610c4b565b005b61040b60048036038101906104069190613fd6565b610c6b565b60405161041891906148e0565b60405180910390f35b610429610e1c565b6040516104369190614939565b60405180910390f35b6104596004803603810190610454919061413a565b610e33565b60405161046691906147b7565b60405180910390f35b61048960048036038101906104849190613c26565b610ee5565b6040516104969190614d71565b60405180910390f35b6104a7610f9d565b005b6104c360048036038101906104be9190613ea3565b611025565b005b6104cd611066565b6040516104da9190614954565b60405180910390f35b6104eb61108a565b005b6104f5611110565b60405161050291906147b7565b60405180910390f35b6105256004803603810190610520919061406b565b61113a565b6040516105329190614939565b60405180910390f35b61055560048036038101906105509190613f6f565b6111a5565b005b61055f6111e8565b60405161056c919061496f565b60405180910390f35b61057d61127a565b60405161058a9190614954565b60405180910390f35b6105ad60048036038101906105a89190613ef7565b611281565b005b6105c960048036038101906105c49190613d99565b611402565b005b6105e560048036038101906105e0919061413a565b611464565b6040516105f2919061496f565b60405180910390f35b61060361150b565b6040516106109190614954565b60405180910390f35b610633600480360381019061062e919061406b565b61152f565b005b61064f600480360381019061064a9190613c4f565b611558565b60405161065c9190614939565b60405180910390f35b61067f600480360381019061067a9190613e14565b6115ec565b005b61069b60048036038101906106969190613c26565b61168d565b005b60008073ffffffffffffffffffffffffffffffffffffffff168373ffffffffffffffffffffffffffffffffffffffff16141561070e576040517f08c379a000000000000000000000000000000000000000000000000000000000815260040161070590614a31565b60405180910390fd5b6107188383611785565b905092915050565b600061072b826117dd565b8061073b575061073a826118bf565b5b9050919050565b7f7804d923f43a17d325d77e781528e0793b2edd9890ab45fc64efd7b4b427744c6107748161076f611939565b611941565b61077d826119de565b5050565b6060600080546107909061514a565b80601f01602080910402602001604051908101604052809291908181526020018280546107bc9061514a565b80156108095780601f106107de57610100808354040283529160200191610809565b820191906000526020600020905b8154815290600101906020018083116107ec57829003601f168201915b5050505050905090565b600061081e826119f8565b61085d576040517f08c379a000000000000000000000000000000000000000000000000000000000815260040161085490614c11565b60405180910390fd5b6004600083815260200190815260200160002060009054906101000a900473ffffffffffffffffffffffffffffffffffffffff169050919050565b60006108a382610e33565b90508073ffffffffffffffffffffffffffffffffffffffff168373ffffffffffffffffffffffffffffffffffffffff161415610914576040517f08c379a000000000000000000000000000000000000000000000000000000000815260040161090b90614c91565b60405180910390fd5b8073ffffffffffffffffffffffffffffffffffffffff16610933611939565b73ffffffffffffffffffffffffffffffffffffffff16148061096257506109618161095c611939565b611558565b5b6109a1576040517f08c379a000000000000000000000000000000000000000000000000000000000815260040161099890614b31565b60405180910390fd5b6109ab8383611a64565b505050565b60606109bb82611464565b9050919050565b6109cd838383611b1d565b8173ffffffffffffffffffffffffffffffffffffffff168373ffffffffffffffffffffffffffffffffffffffff16610a03611939565b73ffffffffffffffffffffffffffffffffffffffff167fc3d58168c5ae7397731d063d5bbf3d657854427343f4c083240f7aacaa2d0f62846001604051610a4b929190614d8c565b60405180910390a4505050565b600060086000838152602001908152602001600020600101549050919050565b610a80611939565b73ffffffffffffffffffffffffffffffffffffffff168573ffffffffffffffffffffffffffffffffffffffff161480610ac65750610ac585610ac0611939565b611558565b5b610b05576040517f08c379a0000000000000000000000000000000000000000000000000000000008152600401610afc90614b71565b60405180910390fd5b610b128585858585611b7d565b5050505050565b610b2282610a58565b610b3381610b2e611939565b611941565b610b3d8383611e1c565b505050565b610b4a611939565b73ffffffffffffffffffffffffffffffffffffffff168173ffffffffffffffffffffffffffffffffffffffff1614610bb7576040517f08c379a0000000000000000000000000000000000000000000000000000000008152600401610bae90614d51565b60405180910390fd5b610bc18282611efd565b5050565b610bcd611939565b73ffffffffffffffffffffffffffffffffffffffff16610beb611110565b73ffffffffffffffffffffffffffffffffffffffff1614610c41576040517f08c379a0000000000000000000000000000000000000000000000000000000008152600401610c3890614c31565b60405180910390fd5b610c49611fdf565b565b610c6683838360405180602001604052806000815250611402565b505050565b60608151835114610cb1576040517f08c379a0000000000000000000000000000000000000000000000000000000008152600401610ca890614cd1565b60405180910390fd5b6000835167ffffffffffffffff811115610cf4577f4e487b7100000000000000000000000000000000000000000000000000000000600052604160045260246000fd5b604051908082528060200260200182016040528015610d225781602001602082028036833780820191505090505b50905060005b8451811015610e1157610dbb858281518110610d6d577f4e487b7100000000000000000000000000000000000000000000000000000000600052603260045260246000fd5b6020026020010151858381518110610dae577f4e487b7100000000000000000000000000000000000000000000000000000000600052603260045260246000fd5b602002602001015161069d565b828281518110610df4577f4e487b7100000000000000000000000000000000000000000000000000000000600052603260045260246000fd5b60200260200101818152505080610e0a906151ad565b9050610d28565b508091505092915050565b6000600960009054906101000a900460ff16905090565b6000806002600084815260200190815260200160002060009054906101000a900473ffffffffffffffffffffffffffffffffffffffff169050600073ffffffffffffffffffffffffffffffffffffffff168173ffffffffffffffffffffffffffffffffffffffff161415610edc576040517f08c379a0000000000000000000000000000000000000000000000000000000008152600401610ed390614bb1565b60405180910390fd5b80915050919050565b60008073ffffffffffffffffffffffffffffffffffffffff168273ffffffffffffffffffffffffffffffffffffffff161415610f56576040517f08c379a0000000000000000000000000000000000000000000000000000000008152600401610f4d90614b91565b60405180910390fd5b600360008373ffffffffffffffffffffffffffffffffffffffff1673ffffffffffffffffffffffffffffffffffffffff168152602001908152602001600020549050919050565b610fa5611939565b73ffffffffffffffffffffffffffffffffffffffff16610fc3611110565b73ffffffffffffffffffffffffffffffffffffffff1614611019576040517f08c379a000000000000000000000000000000000000000000000000000000000815260040161101090614c31565b60405180910390fd5b6110236000612081565b565b7f9f2df0fed2c77648de5860a4cc508cd0818c85b8b8a1ab4ceeef8d981c8956a661105781611052611939565b611941565b6110618383612147565b505050565b7f7804d923f43a17d325d77e781528e0793b2edd9890ab45fc64efd7b4b427744c81565b611092611939565b73ffffffffffffffffffffffffffffffffffffffff166110b0611110565b73ffffffffffffffffffffffffffffffffffffffff1614611106576040517f08c379a00000000000000000000000000000000000000000000000000000000081526004016110fd90614c31565b60405180910390fd5b61110e61236d565b565b6000600760009054906101000a900473ffffffffffffffffffffffffffffffffffffffff16905090565b60006008600084815260200190815260200160002060000160008373ffffffffffffffffffffffffffffffffffffffff1673ffffffffffffffffffffffffffffffffffffffff16815260200190815260200160002060009054906101000a900460ff16905092915050565b7f9f2df0fed2c77648de5860a4cc508cd0818c85b8b8a1ab4ceeef8d981c8956a66111d7816111d2611939565b611941565b6111e2848484612410565b50505050565b6060600180546111f79061514a565b80601f01602080910402602001604051908101604052809291908181526020018280546112239061514a565b80156112705780601f1061124557610100808354040283529160200191611270565b820191906000526020600020905b81548152906001019060200180831161125357829003601f168201915b5050505050905090565b6000801b81565b611289611939565b73ffffffffffffffffffffffffffffffffffffffff168273ffffffffffffffffffffffffffffffffffffffff1614156112f7576040517f08c379a00000000000000000000000000000000000000000000000000000000081526004016112ee90614ad1565b60405180910390fd5b8060056000611304611939565b73ffffffffffffffffffffffffffffffffffffffff1673ffffffffffffffffffffffffffffffffffffffff16815260200190815260200160002060008473ffffffffffffffffffffffffffffffffffffffff1673ffffffffffffffffffffffffffffffffffffffff16815260200190815260200160002060006101000a81548160ff0219169083151502179055508173ffffffffffffffffffffffffffffffffffffffff166113b1611939565b73ffffffffffffffffffffffffffffffffffffffff167f17307eab39ab6107e8899845ad3d59bd9653f200f220920489ca2b5937696c31836040516113f69190614939565b60405180910390a35050565b61141361140d611939565b836124a7565b611452576040517f08c379a000000000000000000000000000000000000000000000000000000000815260040161144990614cb1565b60405180910390fd5b61145e84848484612585565b50505050565b606061146f826119f8565b6114ae576040517f08c379a00000000000000000000000000000000000000000000000000000000081526004016114a590614c71565b60405180910390fd5b60006114b861261d565b905060008151116114d85760405180602001604052806000815250611503565b806114e2846126af565b6040516020016114f3929190614759565b6040516020818303038152906040525b915050919050565b7f9f2df0fed2c77648de5860a4cc508cd0818c85b8b8a1ab4ceeef8d981c8956a681565b61153882610a58565b61154981611544611939565b611941565b6115538383611efd565b505050565b6000600560008473ffffffffffffffffffffffffffffffffffffffff1673ffffffffffffffffffffffffffffffffffffffff16815260200190815260200160002060008373ffffffffffffffffffffffffffffffffffffffff1673ffffffffffffffffffffffffffffffffffffffff16815260200190815260200160002060009054906101000a900460ff16905092915050565b6115f4611939565b73ffffffffffffffffffffffffffffffffffffffff168573ffffffffffffffffffffffffffffffffffffffff16148061163a575061163985611634611939565b611558565b5b611679576040517f08c379a000000000000000000000000000000000000000000000000000000000815260040161167090614a91565b60405180910390fd5b611686858585858561285c565b5050505050565b611695611939565b73ffffffffffffffffffffffffffffffffffffffff166116b3611110565b73ffffffffffffffffffffffffffffffffffffffff1614611709576040517f08c379a000000000000000000000000000000000000000000000000000000000815260040161170090614c31565b60405180910390fd5b600073ffffffffffffffffffffffffffffffffffffffff168173ffffffffffffffffffffffffffffffffffffffff161415611779576040517f08c379a000000000000000000000000000000000000000000000000000000000815260040161177090614a51565b60405180910390fd5b61178281612081565b50565b60008061179183610e33565b90508073ffffffffffffffffffffffffffffffffffffffff168473ffffffffffffffffffffffffffffffffffffffff1614156117d15760019150506117d7565b60009150505b92915050565b60007fd9b67a26000000000000000000000000000000000000000000000000000000007bffffffffffffffffffffffffffffffffffffffffffffffffffffffff1916827bffffffffffffffffffffffffffffffffffffffffffffffffffffffff191614806118a857507f0e89341c000000000000000000000000000000000000000000000000000000007bffffffffffffffffffffffffffffffffffffffffffffffffffffffff1916827bffffffffffffffffffffffffffffffffffffffffffffffffffffffff1916145b806118b857506118b782612a0d565b5b9050919050565b60007f7965db0b000000000000000000000000000000000000000000000000000000007bffffffffffffffffffffffffffffffffffffffffffffffffffffffff1916827bffffffffffffffffffffffffffffffffffffffffffffffffffffffff191614806119325750611931826117dd565b5b9050919050565b600033905090565b61194b828261113a565b6119da576119708173ffffffffffffffffffffffffffffffffffffffff166014612aef565b61197e8360001c6020612aef565b60405160200161198f92919061477d565b6040516020818303038152906040526040517f08c379a00000000000000000000000000000000000000000000000000000000081526004016119d1919061496f565b60405180910390fd5b5050565b80600690805190602001906119f4929190613909565b5050565b60008073ffffffffffffffffffffffffffffffffffffffff166002600084815260200190815260200160002060009054906101000a900473ffffffffffffffffffffffffffffffffffffffff1673ffffffffffffffffffffffffffffffffffffffff1614159050919050565b816004600083815260200190815260200160002060006101000a81548173ffffffffffffffffffffffffffffffffffffffff021916908373ffffffffffffffffffffffffffffffffffffffff160217905550808273ffffffffffffffffffffffffffffffffffffffff16611ad783610e33565b73ffffffffffffffffffffffffffffffffffffffff167f8c5be1e5ebec7d5bd14f71427d1e84f3dd0314c0f7b2291e5b200ac8c7c3b92560405160405180910390a45050565b611b2e611b28611939565b826124a7565b611b6d576040517f08c379a0000000000000000000000000000000000000000000000000000000008152600401611b6490614cb1565b60405180910390fd5b611b78838383612de9565b505050565b8151835114611bc1576040517f08c379a0000000000000000000000000000000000000000000000000000000008152600401611bb890614d11565b60405180910390fd5b600073ffffffffffffffffffffffffffffffffffffffff168473ffffffffffffffffffffffffffffffffffffffff161415611c31576040517f08c379a0000000000000000000000000000000000000000000000000000000008152600401611c2890614b51565b60405180910390fd5b6000611c3b611939565b905060005b8451811015611d87576000858281518110611c84577f4e487b7100000000000000000000000000000000000000000000000000000000600052603260045260246000fd5b602002602001015190506000858381518110611cc9577f4e487b7100000000000000000000000000000000000000000000000000000000600052603260045260246000fd5b602002602001015190506001811015611d17576040517f08c379a0000000000000000000000000000000000000000000000000000000008152600401611d0e90614cf1565b60405180910390fd5b6000611d238a8461069d565b905081811015611d68576040517f08c379a0000000000000000000000000000000000000000000000000000000008152600401611d5f90614bf1565b60405180910390fd5b611d738a8a85612de9565b50505080611d80906151ad565b9050611c40565b508473ffffffffffffffffffffffffffffffffffffffff168673ffffffffffffffffffffffffffffffffffffffff168273ffffffffffffffffffffffffffffffffffffffff167f4a39dc06d4c0dbc64b70af90fd698a233a518aa5d07e595d983b8c0526c8f7fb8787604051611dfe929190614902565b60405180910390a4611e14818787878787613045565b505050505050565b611e26828261113a565b611ef95760016008600084815260200190815260200160002060000160008373ffffffffffffffffffffffffffffffffffffffff1673ffffffffffffffffffffffffffffffffffffffff16815260200190815260200160002060006101000a81548160ff021916908315150217905550611e9e611939565b73ffffffffffffffffffffffffffffffffffffffff168173ffffffffffffffffffffffffffffffffffffffff16837f2f8788117e7eff1d82e926ec794901d17c78024a50270940304540a733656f0d60405160405180910390a45b5050565b611f07828261113a565b15611fdb5760006008600084815260200190815260200160002060000160008373ffffffffffffffffffffffffffffffffffffffff1673ffffffffffffffffffffffffffffffffffffffff16815260200190815260200160002060006101000a81548160ff021916908315150217905550611f80611939565b73ffffffffffffffffffffffffffffffffffffffff168173ffffffffffffffffffffffffffffffffffffffff16837ff6391f5c32d9c69d2a47ea670b442974b53935d1edc7fd64eb21e047a839171b60405160405180910390a45b5050565b611fe7610e1c565b612026576040517f08c379a000000000000000000000000000000000000000000000000000000000815260040161201d906149f1565b60405180910390fd5b6000600960006101000a81548160ff0219169083151502179055507f5db9ee0a495bf2e6ff9c91a7834c1ba4fdd244a5e8aa4e537bd38aeae4b073aa61206a611939565b60405161207791906147b7565b60405180910390a1565b6000600760009054906101000a900473ffffffffffffffffffffffffffffffffffffffff16905081600760006101000a81548173ffffffffffffffffffffffffffffffffffffffff021916908373ffffffffffffffffffffffffffffffffffffffff1602179055508173ffffffffffffffffffffffffffffffffffffffff168173ffffffffffffffffffffffffffffffffffffffff167f8be0079c531659141344cd1fd0a4f28419497f9722a3daafe3b4186f6b6457e060405160405180910390a35050565b600073ffffffffffffffffffffffffffffffffffffffff168273ffffffffffffffffffffffffffffffffffffffff1614156121b7576040517f08c379a00000000000000000000000000000000000000000000000000000000081526004016121ae90614d31565b60405180910390fd5b60006121c1611939565b90506000825167ffffffffffffffff811115612206577f4e487b7100000000000000000000000000000000000000000000000000000000600052604160045260246000fd5b6040519080825280602002602001820160405280156122345781602001602082028036833780820191505090505b50905060005b83518110156122e75761228d85858381518110612280577f4e487b7100000000000000000000000000000000000000000000000000000000600052603260045260246000fd5b602002602001015161322c565b60018282815181106122c8577f4e487b7100000000000000000000000000000000000000000000000000000000600052603260045260246000fd5b60200260200101818152505080806122df906151ad565b91505061223a565b508373ffffffffffffffffffffffffffffffffffffffff16600073ffffffffffffffffffffffffffffffffffffffff168373ffffffffffffffffffffffffffffffffffffffff167f4a39dc06d4c0dbc64b70af90fd698a233a518aa5d07e595d983b8c0526c8f7fb868560405161235f929190614902565b60405180910390a450505050565b612375610e1c565b156123b5576040517f08c379a00000000000000000000000000000000000000000000000000000000081526004016123ac90614b11565b60405180910390fd5b6001600960006101000a81548160ff0219169083151502179055507f62e78cea01bee320cd4e420270b5ea74000d11b0c9f74754ebdbfc544b05a2586123f9611939565b60405161240691906147b7565b60405180910390a1565b61241b8383836133fa565b8273ffffffffffffffffffffffffffffffffffffffff16600073ffffffffffffffffffffffffffffffffffffffff16612452611939565b73ffffffffffffffffffffffffffffffffffffffff167fc3d58168c5ae7397731d063d5bbf3d657854427343f4c083240f7aacaa2d0f6285600160405161249a929190614d8c565b60405180910390a4505050565b60006124b2826119f8565b6124f1576040517f08c379a00000000000000000000000000000000000000000000000000000000081526004016124e890614af1565b60405180910390fd5b60006124fc83610e33565b90508073ffffffffffffffffffffffffffffffffffffffff168473ffffffffffffffffffffffffffffffffffffffff16148061256b57508373ffffffffffffffffffffffffffffffffffffffff1661255384610813565b73ffffffffffffffffffffffffffffffffffffffff16145b8061257c575061257b8185611558565b5b91505092915050565b61259184848484613455565b8273ffffffffffffffffffffffffffffffffffffffff168473ffffffffffffffffffffffffffffffffffffffff166125c7611939565b73ffffffffffffffffffffffffffffffffffffffff167fc3d58168c5ae7397731d063d5bbf3d657854427343f4c083240f7aacaa2d0f6285600160405161260f929190614d8c565b60405180910390a450505050565b60606006805461262c9061514a565b80601f01602080910402602001604051908101604052809291908181526020018280546126589061514a565b80156126a55780601f1061267a576101008083540402835291602001916126a5565b820191906000526020600020905b81548152906001019060200180831161268857829003601f168201915b5050505050905090565b606060008214156126f7576040518060400160405280600181526020017f30000000000000000000000000000000000000000000000000000000000000008152509050612857565b600082905060005b60008214612729578080612712906151ad565b915050600a826127229190614f8f565b91506126ff565b60008167ffffffffffffffff81111561276b577f4e487b7100000000000000000000000000000000000000000000000000000000600052604160045260246000fd5b6040519080825280601f01601f19166020018201604052801561279d5781602001600182028036833780820191505090505b5090505b60008514612850576001826127b6919061501a565b9150600a856127c591906151f6565b60306127d19190614f39565b60f81b81838151811061280d577f4e487b7100000000000000000000000000000000000000000000000000000000600052603260045260246000fd5b60200101907effffffffffffffffffffffffffffffffffffffffffffffffffffffffffffff1916908160001a905350600a856128499190614f8f565b94506127a1565b8093505050505b919050565b600073ffffffffffffffffffffffffffffffffffffffff168473ffffffffffffffffffffffffffffffffffffffff1614156128cc576040517f08c379a00000000000000000000000000000000000000000000000000000000081526004016128c390614b51565b60405180910390fd5b6001821015612910576040517f08c379a000000000000000000000000000000000000000000000000000000000815260040161290790614cf1565b60405180910390fd5b600061291a611939565b90506000612928878661069d565b90508381101561296d576040517f08c379a000000000000000000000000000000000000000000000000000000000815260040161296490614bf1565b60405180910390fd5b612978878787612de9565b8573ffffffffffffffffffffffffffffffffffffffff168773ffffffffffffffffffffffffffffffffffffffff168373ffffffffffffffffffffffffffffffffffffffff167fc3d58168c5ae7397731d063d5bbf3d657854427343f4c083240f7aacaa2d0f6288886040516129ee929190614db5565b60405180910390a4612a048288888888886134b1565b50505050505050565b60007f80ac58cd000000000000000000000000000000000000000000000000000000007bffffffffffffffffffffffffffffffffffffffffffffffffffffffff1916827bffffffffffffffffffffffffffffffffffffffffffffffffffffffff19161480612ad857507f5b5e139f000000000000000000000000000000000000000000000000000000007bffffffffffffffffffffffffffffffffffffffffffffffffffffffff1916827bffffffffffffffffffffffffffffffffffffffffffffffffffffffff1916145b80612ae85750612ae782613698565b5b9050919050565b606060006002836002612b029190614fc0565b612b0c9190614f39565b67ffffffffffffffff811115612b4b577f4e487b7100000000000000000000000000000000000000000000000000000000600052604160045260246000fd5b6040519080825280601f01601f191660200182016040528015612b7d5781602001600182028036833780820191505090505b5090507f300000000000000000000000000000000000000000000000000000000000000081600081518110612bdb577f4e487b7100000000000000000000000000000000000000000000000000000000600052603260045260246000fd5b60200101907effffffffffffffffffffffffffffffffffffffffffffffffffffffffffffff1916908160001a9053507f780000000000000000000000000000000000000000000000000000000000000081600181518110612c65577f4e487b7100000000000000000000000000000000000000000000000000000000600052603260045260246000fd5b60200101907effffffffffffffffffffffffffffffffffffffffffffffffffffffffffffff1916908160001a90535060006001846002612ca59190614fc0565b612caf9190614f39565b90505b6001811115612d9b577f3031323334353637383961626364656600000000000000000000000000000000600f861660108110612d17577f4e487b7100000000000000000000000000000000000000000000000000000000600052603260045260246000fd5b1a60f81b828281518110612d54577f4e487b7100000000000000000000000000000000000000000000000000000000600052603260045260246000fd5b60200101907effffffffffffffffffffffffffffffffffffffffffffffffffffffffffffff1916908160001a905350600485901c945080612d9490615120565b9050612cb2565b5060008414612ddf576040517f08c379a0000000000000000000000000000000000000000000000000000000008152600401612dd6906149b1565b60405180910390fd5b8091505092915050565b8273ffffffffffffffffffffffffffffffffffffffff16612e0982610e33565b73ffffffffffffffffffffffffffffffffffffffff1614612e5f576040517f08c379a0000000000000000000000000000000000000000000000000000000008152600401612e5690614c51565b60405180910390fd5b600073ffffffffffffffffffffffffffffffffffffffff168273ffffffffffffffffffffffffffffffffffffffff161415612ecf576040517f08c379a0000000000000000000000000000000000000000000000000000000008152600401612ec690614ab1565b60405180910390fd5b612eda838383613702565b612ee5600082611a64565b6001600360008573ffffffffffffffffffffffffffffffffffffffff1673ffffffffffffffffffffffffffffffffffffffff1681526020019081526020016000206000828254612f35919061501a565b925050819055506001600360008473ffffffffffffffffffffffffffffffffffffffff1673ffffffffffffffffffffffffffffffffffffffff1681526020019081526020016000206000828254612f8c9190614f39565b92505081905550816002600083815260200190815260200160002060006101000a81548173ffffffffffffffffffffffffffffffffffffffff021916908373ffffffffffffffffffffffffffffffffffffffff160217905550808273ffffffffffffffffffffffffffffffffffffffff168473ffffffffffffffffffffffffffffffffffffffff167fddf252ad1be2c89b69c2b068fc378daa952ba7f163c4a11628f55a4df523b3ef60405160405180910390a4505050565b6130648473ffffffffffffffffffffffffffffffffffffffff1661375a565b15613224578373ffffffffffffffffffffffffffffffffffffffff1663bc197c8187878686866040518663ffffffff1660e01b81526004016130aa9594939291906147d2565b602060405180830381600087803b1580156130c457600080fd5b505af19250505080156130f557506040513d601f19601f820116820180604052508101906130f291906140d0565b60015b61319b576131016152e3565b806308c379a0141561315e5750613116615bd6565b806131215750613160565b806040517f08c379a0000000000000000000000000000000000000000000000000000000008152600401613155919061496f565b60405180910390fd5b505b6040517f08c379a000000000000000000000000000000000000000000000000000000000815260040161319290614991565b60405180910390fd5b63bc197c8160e01b7bffffffffffffffffffffffffffffffffffffffffffffffffffffffff1916817bffffffffffffffffffffffffffffffffffffffffffffffffffffffff191614613222576040517f08c379a0000000000000000000000000000000000000000000000000000000008152600401613219906149d1565b60405180910390fd5b505b505050505050565b600073ffffffffffffffffffffffffffffffffffffffff168273ffffffffffffffffffffffffffffffffffffffff16141561329c576040517f08c379a000000000000000000000000000000000000000000000000000000000815260040161329390614bd1565b60405180910390fd5b6132a5816119f8565b156132e5576040517f08c379a00000000000000000000000000000000000000000000000000000000081526004016132dc90614a71565b60405180910390fd5b6132f160008383613702565b6001600360008473ffffffffffffffffffffffffffffffffffffffff1673ffffffffffffffffffffffffffffffffffffffff16815260200190815260200160002060008282546133419190614f39565b92505081905550816002600083815260200190815260200160002060006101000a81548173ffffffffffffffffffffffffffffffffffffffff021916908373ffffffffffffffffffffffffffffffffffffffff160217905550808273ffffffffffffffffffffffffffffffffffffffff16600073ffffffffffffffffffffffffffffffffffffffff167fddf252ad1be2c89b69c2b068fc378daa952ba7f163c4a11628f55a4df523b3ef60405160405180910390a45050565b613404838361322c565b613411600084848461376d565b613450576040517f08c379a000000000000000000000000000000000000000000000000000000000815260040161344790614a11565b60405180910390fd5b505050565b613460848484612de9565b61346c8484848461376d565b6134ab576040517f08c379a00000000000000000000000000000000000000000000000000000000081526004016134a290614a11565b60405180910390fd5b50505050565b6134d08473ffffffffffffffffffffffffffffffffffffffff1661375a565b15613690578373ffffffffffffffffffffffffffffffffffffffff1663f23a6e6187878686866040518663ffffffff1660e01b8152600401613516959493929190614886565b602060405180830381600087803b15801561353057600080fd5b505af192505050801561356157506040513d601f19601f8201168201806040525081019061355e91906140d0565b60015b6136075761356d6152e3565b806308c379a014156135ca5750613582615bd6565b8061358d57506135cc565b806040517f08c379a00000000000000000000000000000000000000000000000000000000081526004016135c1919061496f565b60405180910390fd5b505b6040517f08c379a00000000000000000000000000000000000000000000000000000000081526004016135fe90614991565b60405180910390fd5b63f23a6e6160e01b7bffffffffffffffffffffffffffffffffffffffffffffffffffffffff1916817bffffffffffffffffffffffffffffffffffffffffffffffffffffffff19161461368e576040517f08c379a0000000000000000000000000000000000000000000000000000000008152600401613685906149d1565b60405180910390fd5b505b505050505050565b60007f01ffc9a7000000000000000000000000000000000000000000000000000000007bffffffffffffffffffffffffffffffffffffffffffffffffffffffff1916827bffffffffffffffffffffffffffffffffffffffffffffffffffffffff1916149050919050565b61370a610e1c565b1561374a576040517f08c379a000000000000000000000000000000000000000000000000000000000815260040161374190614b11565b60405180910390fd5b613755838383613904565b505050565b600080823b905060008111915050919050565b600061378e8473ffffffffffffffffffffffffffffffffffffffff1661375a565b156138f7578373ffffffffffffffffffffffffffffffffffffffff1663150b7a026137b7611939565b8786866040518563ffffffff1660e01b81526004016137d9949392919061483a565b602060405180830381600087803b1580156137f357600080fd5b505af192505050801561382457506040513d601f19601f8201168201806040525081019061382191906140d0565b60015b6138a7573d8060008114613854576040519150601f19603f3d011682016040523d82523d6000602084013e613859565b606091505b5060008151141561389f576040517f08c379a000000000000000000000000000000000000000000000000000000000815260040161389690614a11565b60405180910390fd5b805181602001fd5b63150b7a0260e01b7bffffffffffffffffffffffffffffffffffffffffffffffffffffffff1916817bffffffffffffffffffffffffffffffffffffffffffffffffffffffff1916149150506138fc565b600190505b949350505050565b505050565b8280546139159061514a565b90600052602060002090601f016020900481019282613937576000855561397e565b82601f1061395057805160ff191683800117855561397e565b8280016001018555821561397e579182015b8281111561397d578251825591602001919060010190613962565b5b50905061398b919061398f565b5090565b5b808211156139a8576000816000905550600101613990565b5090565b60006139bf6139ba84614e03565b614dde565b905080838252602082019050828560208602820111156139de57600080fd5b60005b85811015613a0e57816139f48882613b00565b8452602084019350602083019250506001810190506139e1565b5050509392505050565b6000613a2b613a2684614e2f565b614dde565b90508083825260208201905082856020860282011115613a4a57600080fd5b60005b85811015613a7a5781613a608882613c11565b845260208401935060208301925050600181019050613a4d565b5050509392505050565b6000613a97613a9284614e5b565b614dde565b905082815260208101848484011115613aaf57600080fd5b613aba8482856150de565b509392505050565b6000613ad5613ad084614e8c565b614dde565b905082815260208101848484011115613aed57600080fd5b613af88482856150de565b509392505050565b600081359050613b0f81615c6c565b92915050565b600082601f830112613b2657600080fd5b8135613b368482602086016139ac565b91505092915050565b600082601f830112613b5057600080fd5b8135613b60848260208601613a18565b91505092915050565b600081359050613b7881615c83565b92915050565b600081359050613b8d81615c9a565b92915050565b600081359050613ba281615cb1565b92915050565b600081519050613bb781615cb1565b92915050565b600082601f830112613bce57600080fd5b8135613bde848260208601613a84565b91505092915050565b600082601f830112613bf857600080fd5b8135613c08848260208601613ac2565b91505092915050565b600081359050613c2081615cc8565b92915050565b600060208284031215613c3857600080fd5b6000613c4684828501613b00565b91505092915050565b60008060408385031215613c6257600080fd5b6000613c7085828601613b00565b9250506020613c8185828601613b00565b9150509250929050565b600080600080600060a08688031215613ca357600080fd5b6000613cb188828901613b00565b9550506020613cc288828901613b00565b945050604086013567ffffffffffffffff811115613cdf57600080fd5b613ceb88828901613b3f565b935050606086013567ffffffffffffffff811115613d0857600080fd5b613d1488828901613b3f565b925050608086013567ffffffffffffffff811115613d3157600080fd5b613d3d88828901613bbd565b9150509295509295909350565b600080600060608486031215613d5f57600080fd5b6000613d6d86828701613b00565b9350506020613d7e86828701613b00565b9250506040613d8f86828701613c11565b9150509250925092565b60008060008060808587031215613daf57600080fd5b6000613dbd87828801613b00565b9450506020613dce87828801613b00565b9350506040613ddf87828801613c11565b925050606085013567ffffffffffffffff811115613dfc57600080fd5b613e0887828801613bbd565b91505092959194509250565b600080600080600060a08688031215613e2c57600080fd5b6000613e3a88828901613b00565b9550506020613e4b88828901613b00565b9450506040613e5c88828901613c11565b9350506060613e6d88828901613c11565b925050608086013567ffffffffffffffff811115613e8a57600080fd5b613e9688828901613bbd565b9150509295509295909350565b60008060408385031215613eb657600080fd5b6000613ec485828601613b00565b925050602083013567ffffffffffffffff811115613ee157600080fd5b613eed85828601613b3f565b9150509250929050565b60008060408385031215613f0a57600080fd5b6000613f1885828601613b00565b9250506020613f2985828601613b69565b9150509250929050565b60008060408385031215613f4657600080fd5b6000613f5485828601613b00565b9250506020613f6585828601613c11565b9150509250929050565b600080600060608486031215613f8457600080fd5b6000613f9286828701613b00565b9350506020613fa386828701613c11565b925050604084013567ffffffffffffffff811115613fc057600080fd5b613fcc86828701613bbd565b9150509250925092565b60008060408385031215613fe957600080fd5b600083013567ffffffffffffffff81111561400357600080fd5b61400f85828601613b15565b925050602083013567ffffffffffffffff81111561402c57600080fd5b61403885828601613b3f565b9150509250929050565b60006020828403121561405457600080fd5b600061406284828501613b7e565b91505092915050565b6000806040838503121561407e57600080fd5b600061408c85828601613b7e565b925050602061409d85828601613b00565b9150509250929050565b6000602082840312156140b957600080fd5b60006140c784828501613b93565b91505092915050565b6000602082840312156140e257600080fd5b60006140f084828501613ba8565b91505092915050565b60006020828403121561410b57600080fd5b600082013567ffffffffffffffff81111561412557600080fd5b61413184828501613be7565b91505092915050565b60006020828403121561414c57600080fd5b600061415a84828501613c11565b91505092915050565b600061416f838361473b565b60208301905092915050565b6141848161504e565b82525050565b600061419582614ecd565b61419f8185614efb565b93506141aa83614ebd565b8060005b838110156141db5781516141c28882614163565b97506141cd83614eee565b9250506001810190506141ae565b5085935050505092915050565b6141f181615060565b82525050565b6142008161506c565b82525050565b600061421182614ed8565b61421b8185614f0c565b935061422b8185602086016150ed565b61423481615305565b840191505092915050565b614248816150cc565b82525050565b600061425982614ee3565b6142638185614f1d565b93506142738185602086016150ed565b61427c81615305565b840191505092915050565b600061429282614ee3565b61429c8185614f2e565b93506142ac8185602086016150ed565b80840191505092915050565b60006142c5603483614f1d565b91506142d082615323565b604082019050919050565b60006142e8602083614f1d565b91506142f382615372565b602082019050919050565b600061430b602883614f1d565b91506143168261539b565b604082019050919050565b600061432e601483614f1d565b9150614339826153ea565b602082019050919050565b6000614351603283614f1d565b915061435c82615413565b604082019050919050565b6000614374602b83614f1d565b915061437f82615462565b604082019050919050565b6000614397602683614f1d565b91506143a2826154b1565b604082019050919050565b60006143ba601c83614f1d565b91506143c582615500565b602082019050919050565b60006143dd602983614f1d565b91506143e882615529565b604082019050919050565b6000614400602483614f1d565b915061440b82615578565b604082019050919050565b6000614423601983614f1d565b915061442e826155c7565b602082019050919050565b6000614446602c83614f1d565b9150614451826155f0565b604082019050919050565b6000614469601083614f1d565b91506144748261563f565b602082019050919050565b600061448c603883614f1d565b915061449782615668565b604082019050919050565b60006144af602583614f1d565b91506144ba826156b7565b604082019050919050565b60006144d2603283614f1d565b91506144dd82615706565b604082019050919050565b60006144f5602a83614f1d565b915061450082615755565b604082019050919050565b6000614518602983614f1d565b9150614523826157a4565b604082019050919050565b600061453b602083614f1d565b9150614546826157f3565b602082019050919050565b600061455e602a83614f1d565b91506145698261581c565b604082019050919050565b6000614581602c83614f1d565b915061458c8261586b565b604082019050919050565b60006145a4602083614f1d565b91506145af826158ba565b602082019050919050565b60006145c7602983614f1d565b91506145d2826158e3565b604082019050919050565b60006145ea602f83614f1d565b91506145f582615932565b604082019050919050565b600061460d602183614f1d565b915061461882615981565b604082019050919050565b6000614630603183614f1d565b915061463b826159d0565b604082019050919050565b6000614653601783614f2e565b915061465e82615a1f565b601782019050919050565b6000614676602983614f1d565b915061468182615a48565b604082019050919050565b6000614699601c83614f1d565b91506146a482615a97565b602082019050919050565b60006146bc602883614f1d565b91506146c782615ac0565b604082019050919050565b60006146df602183614f1d565b91506146ea82615b0f565b604082019050919050565b6000614702601183614f2e565b915061470d82615b5e565b601182019050919050565b6000614725602f83614f1d565b915061473082615b87565b604082019050919050565b614744816150c2565b82525050565b614753816150c2565b82525050565b60006147658285614287565b91506147718284614287565b91508190509392505050565b600061478882614646565b91506147948285614287565b915061479f826146f5565b91506147ab8284614287565b91508190509392505050565b60006020820190506147cc600083018461417b565b92915050565b600060a0820190506147e7600083018861417b565b6147f4602083018761417b565b8181036040830152614806818661418a565b9050818103606083015261481a818561418a565b9050818103608083015261482e8184614206565b90509695505050505050565b600060808201905061484f600083018761417b565b61485c602083018661417b565b614869604083018561474a565b818103606083015261487b8184614206565b905095945050505050565b600060a08201905061489b600083018861417b565b6148a8602083018761417b565b6148b5604083018661474a565b6148c2606083018561474a565b81810360808301526148d48184614206565b90509695505050505050565b600060208201905081810360008301526148fa818461418a565b905092915050565b6000604082019050818103600083015261491c818561418a565b90508181036020830152614930818461418a565b90509392505050565b600060208201905061494e60008301846141e8565b92915050565b600060208201905061496960008301846141f7565b92915050565b60006020820190508181036000830152614989818461424e565b905092915050565b600060208201905081810360008301526149aa816142b8565b9050919050565b600060208201905081810360008301526149ca816142db565b9050919050565b600060208201905081810360008301526149ea816142fe565b9050919050565b60006020820190508181036000830152614a0a81614321565b9050919050565b60006020820190508181036000830152614a2a81614344565b9050919050565b60006020820190508181036000830152614a4a81614367565b9050919050565b60006020820190508181036000830152614a6a8161438a565b9050919050565b60006020820190508181036000830152614a8a816143ad565b9050919050565b60006020820190508181036000830152614aaa816143d0565b9050919050565b60006020820190508181036000830152614aca816143f3565b9050919050565b60006020820190508181036000830152614aea81614416565b9050919050565b60006020820190508181036000830152614b0a81614439565b9050919050565b60006020820190508181036000830152614b2a8161445c565b9050919050565b60006020820190508181036000830152614b4a8161447f565b9050919050565b60006020820190508181036000830152614b6a816144a2565b9050919050565b60006020820190508181036000830152614b8a816144c5565b9050919050565b60006020820190508181036000830152614baa816144e8565b9050919050565b60006020820190508181036000830152614bca8161450b565b9050919050565b60006020820190508181036000830152614bea8161452e565b9050919050565b60006020820190508181036000830152614c0a81614551565b9050919050565b60006020820190508181036000830152614c2a81614574565b9050919050565b60006020820190508181036000830152614c4a81614597565b9050919050565b60006020820190508181036000830152614c6a816145ba565b9050919050565b60006020820190508181036000830152614c8a816145dd565b9050919050565b60006020820190508181036000830152614caa81614600565b9050919050565b60006020820190508181036000830152614cca81614623565b9050919050565b60006020820190508181036000830152614cea81614669565b9050919050565b60006020820190508181036000830152614d0a8161468c565b9050919050565b60006020820190508181036000830152614d2a816146af565b9050919050565b60006020820190508181036000830152614d4a816146d2565b9050919050565b60006020820190508181036000830152614d6a81614718565b9050919050565b6000602082019050614d86600083018461474a565b92915050565b6000604082019050614da1600083018561474a565b614dae602083018461423f565b9392505050565b6000604082019050614dca600083018561474a565b614dd7602083018461474a565b9392505050565b6000614de8614df9565b9050614df4828261517c565b919050565b6000604051905090565b600067ffffffffffffffff821115614e1e57614e1d6152b4565b5b602082029050602081019050919050565b600067ffffffffffffffff821115614e4a57614e496152b4565b5b602082029050602081019050919050565b600067ffffffffffffffff821115614e7657614e756152b4565b5b614e7f82615305565b9050602081019050919050565b600067ffffffffffffffff821115614ea757614ea66152b4565b5b614eb082615305565b9050602081019050919050565b6000819050602082019050919050565b600081519050919050565b600081519050919050565b600081519050919050565b6000602082019050919050565b600082825260208201905092915050565b600082825260208201905092915050565b600082825260208201905092915050565b600081905092915050565b6000614f44826150c2565b9150614f4f836150c2565b9250827fffffffffffffffffffffffffffffffffffffffffffffffffffffffffffffffff03821115614f8457614f83615227565b5b828201905092915050565b6000614f9a826150c2565b9150614fa5836150c2565b925082614fb557614fb4615256565b5b828204905092915050565b6000614fcb826150c2565b9150614fd6836150c2565b9250817fffffffffffffffffffffffffffffffffffffffffffffffffffffffffffffffff048311821515161561500f5761500e615227565b5b828202905092915050565b6000615025826150c2565b9150615030836150c2565b92508282101561504357615042615227565b5b828203905092915050565b6000615059826150a2565b9050919050565b60008115159050919050565b6000819050919050565b60007fffffffff0000000000000000000000000000000000000000000000000000000082169050919050565b600073ffffffffffffffffffffffffffffffffffffffff82169050919050565b6000819050919050565b60006150d7826150c2565b9050919050565b82818337600083830152505050565b60005b8381101561510b5780820151818401526020810190506150f0565b8381111561511a576000848401525b50505050565b600061512b826150c2565b9150600082141561513f5761513e615227565b5b600182039050919050565b6000600282049050600182168061516257607f821691505b6020821081141561517657615175615285565b5b50919050565b61518582615305565b810181811067ffffffffffffffff821117156151a4576151a36152b4565b5b80604052505050565b60006151b8826150c2565b91507fffffffffffffffffffffffffffffffffffffffffffffffffffffffffffffffff8214156151eb576151ea615227565b5b600182019050919050565b6000615201826150c2565b915061520c836150c2565b92508261521c5761521b615256565b5b828206905092915050565b7f4e487b7100000000000000000000000000000000000000000000000000000000600052601160045260246000fd5b7f4e487b7100000000000000000000000000000000000000000000000000000000600052601260045260246000fd5b7f4e487b7100000000000000000000000000000000000000000000000000000000600052602260045260246000fd5b7f4e487b7100000000000000000000000000000000000000000000000000000000600052604160045260246000fd5b600060033d11156153025760046000803e6152ff600051615316565b90505b90565b6000601f19601f8301169050919050565b60008160e01c9050919050565b7f455243313135353a207472616e7366657220746f206e6f6e204552433131353560008201527f526563656976657220696d706c656d656e746572000000000000000000000000602082015250565b7f537472696e67733a20686578206c656e67746820696e73756666696369656e74600082015250565b7f455243313135353a204552433131353552656365697665722072656a6563746560008201527f6420746f6b656e73000000000000000000000000000000000000000000000000602082015250565b7f5061757361626c653a206e6f7420706175736564000000000000000000000000600082015250565b7f4552433732313a207472616e7366657220746f206e6f6e20455243373231526560008201527f63656976657220696d706c656d656e7465720000000000000000000000000000602082015250565b7f455243313135353a2062616c616e636520717565727920666f7220746865207a60008201527f65726f2061646472657373000000000000000000000000000000000000000000602082015250565b7f4f776e61626c653a206e6577206f776e657220697320746865207a65726f206160008201527f6464726573730000000000000000000000000000000000000000000000000000602082015250565b7f4552433732313a20746f6b656e20616c7265616479206d696e74656400000000600082015250565b7f455243313135353a2063616c6c6572206973206e6f74206f776e6572206e6f7260008201527f20617070726f7665640000000000000000000000000000000000000000000000602082015250565b7f4552433732313a207472616e7366657220746f20746865207a65726f2061646460008201527f7265737300000000000000000000000000000000000000000000000000000000602082015250565b7f4552433732313a20617070726f766520746f2063616c6c657200000000000000600082015250565b7f4552433732313a206f70657261746f7220717565727920666f72206e6f6e657860008201527f697374656e7420746f6b656e0000000000000000000000000000000000000000602082015250565b7f5061757361626c653a2070617573656400000000000000000000000000000000600082015250565b7f4552433732313a20617070726f76652063616c6c6572206973206e6f74206f7760008201527f6e6572206e6f7220617070726f76656420666f7220616c6c0000000000000000602082015250565b7f455243313135353a207472616e7366657220746f20746865207a65726f20616460008201527f6472657373000000000000000000000000000000000000000000000000000000602082015250565b7f455243313135353a207472616e736665722063616c6c6572206973206e6f742060008201527f6f776e6572206e6f7220617070726f7665640000000000000000000000000000602082015250565b7f4552433732313a2062616c616e636520717565727920666f7220746865207a6560008201527f726f206164647265737300000000000000000000000000000000000000000000602082015250565b7f4552433732313a206f776e657220717565727920666f72206e6f6e657869737460008201527f656e7420746f6b656e0000000000000000000000000000000000000000000000602082015250565b7f4552433732313a206d696e7420746f20746865207a65726f2061646472657373600082015250565b7f455243313135353a20696e73756666696369656e742062616c616e636520666f60008201527f72207472616e7366657200000000000000000000000000000000000000000000602082015250565b7f4552433732313a20617070726f76656420717565727920666f72206e6f6e657860008201527f697374656e7420746f6b656e0000000000000000000000000000000000000000602082015250565b7f4f776e61626c653a2063616c6c6572206973206e6f7420746865206f776e6572600082015250565b7f4552433732313a207472616e73666572206f6620746f6b656e2074686174206960008201527f73206e6f74206f776e0000000000000000000000000000000000000000000000602082015250565b7f4552433732314d657461646174613a2055524920717565727920666f72206e6f60008201527f6e6578697374656e7420746f6b656e0000000000000000000000000000000000602082015250565b7f4552433732313a20617070726f76616c20746f2063757272656e74206f776e6560008201527f7200000000000000000000000000000000000000000000000000000000000000602082015250565b7f4552433732313a207472616e736665722063616c6c6572206973206e6f74206f60008201527f776e6572206e6f7220617070726f766564000000000000000000000000000000602082015250565b7f416363657373436f6e74726f6c3a206163636f756e7420000000000000000000600082015250565b7f455243313135353a206163636f756e747320616e6420696473206c656e67746860008201527f206d69736d617463680000000000000000000000000000000000000000000000602082015250565b7f455243313135353a207472616e73666572207a65726f20636f756e7400000000600082015250565b7f455243313135353a2069647320616e6420616d6f756e7473206c656e6774682060008201527f6d69736d61746368000000000000000000000000000000000000000000000000602082015250565b7f455243313135353a206d696e7420746f20746865207a65726f2061646472657360008201527f7300000000000000000000000000000000000000000000000000000000000000602082015250565b7f206973206d697373696e6720726f6c6520000000000000000000000000000000600082015250565b7f416363657373436f6e74726f6c3a2063616e206f6e6c792072656e6f756e636560008201527f20726f6c657320666f722073656c660000000000000000000000000000000000602082015250565b600060443d1015615be657615c69565b615bee614df9565b60043d036004823e80513d602482011167ffffffffffffffff82111715615c16575050615c69565b808201805167ffffffffffffffff811115615c345750505050615c69565b80602083010160043d038501811115615c51575050505050615c69565b615c608260200185018661517c565b82955050505050505b90565b615c758161504e565b8114615c8057600080fd5b50565b615c8c81615060565b8114615c9757600080fd5b50565b615ca38161506c565b8114615cae57600080fd5b50565b615cba81615076565b8114615cc557600080fd5b50565b615cd1816150c2565b8114615cdc57600080fd5b5056fea264697066735822122044b08b567957c85d430d29d029ae4a1b880ddebc9a80d8bf855b4724c3404be564736f6c63430008040033",
  "immutableReferences": {},
  "source": "// SPDX-License-Identifier: MIT\r\npragma solidity ^0.8.0;\r\n\r\nimport \"@openzeppelin/contracts/access/AccessControl.sol\";\r\nimport \"@openzeppelin/contracts/access/Ownable.sol\";\r\nimport \"@openzeppelin/contracts/security/Pausable.sol\";\r\nimport \"./ERC721WithIERC1155.sol\";\r\n\r\ncontract ROCNFT2 is ERC721WithIERC1155, Ownable, AccessControl, Pausable {\r\n    bytes32 public constant URI_SETTER_ROLE = keccak256(\"URI_SETTER_ROLE\");\r\n    bytes32 public constant MINTER_ROLE = keccak256(\"MINTER_ROLE\");\r\n\r\n    constructor() ERC721WithIERC1155(\"Rise of Cats\", \"ROC\", \"https://nft.riseofcats.com/cat/\") {\r\n        _setupRole(DEFAULT_ADMIN_ROLE, msg.sender);\r\n        _setupRole(URI_SETTER_ROLE, msg.sender);\r\n        _setupRole(MINTER_ROLE, msg.sender);\r\n    }\r\n\r\n    function setURI(string memory newuri) public onlyRole(URI_SETTER_ROLE) {\r\n        _setURI(newuri);\r\n    }\r\n\r\n    function pause() public onlyOwner {\r\n        _pause();\r\n    }\r\n\r\n    function unpause() public onlyOwner {\r\n        _unpause();\r\n    }\r\n\r\n    function mint(address account, uint256 id, bytes memory data)\r\n    public\r\n    onlyRole(MINTER_ROLE)\r\n    {\r\n        _safeMint(account, id, data);\r\n    }\r\n\r\n    function mintBatch(address to, uint256[] memory ids)\r\n    public\r\n    onlyRole(MINTER_ROLE)\r\n    {\r\n        _mintBatchERC721(to, ids);\r\n    }\r\n\r\n\r\n    function _beforeTokenTransfer(\r\n        address from,\r\n        address to,\r\n        uint256 tokenId\r\n    )\r\n    internal\r\n    whenNotPaused\r\n    override\r\n    {\r\n        super._beforeTokenTransfer(from, to, tokenId);\r\n    }\r\n\r\n    function supportsInterface(bytes4 interfaceId)\r\n    public\r\n    view\r\n    override(ERC721WithIERC1155, AccessControl)\r\n    returns (bool)\r\n    {\r\n        return ERC721WithIERC1155.supportsInterface(interfaceId) || AccessControl.supportsInterface(interfaceId);\r\n    }\r\n}\r\n\r\n",
  "sourcePath": "C:/Users/quan/Work/WorkSpace/JoyGame/JoyTD/web/contracts/contracts/ROCNFT2.sol",
  "compiler": {
    "name": "solc",
    "version": "0.8.4+commit.c7e474f2.Emscripten.clang"
  },
  "schemaVersion": "3.3.4",
  "updatedAt": "2021-11-16T07:53:28.109Z",
  "devdoc": {
    "kind": "dev",
    "methods": {
      "approve(address,uint256)": {
        "details": "See {IERC721-approve}."
      },
      "balanceOf(address)": {
        "details": "See {IERC721-balanceOf}."
      },
      "balanceOf(address,uint256)": {
        "details": "See {IERC1155-balanceOf}. Requirements: - `account` cannot be the zero address."
      },
      "balanceOfBatch(address[],uint256[])": {
        "details": "See {IERC1155-balanceOfBatch}. Requirements: - `accounts` and `ids` must have the same length."
      },
      "getApproved(uint256)": {
        "details": "See {IERC721-getApproved}."
      },
      "getRoleAdmin(bytes32)": {
        "details": "Returns the admin role that controls `role`. See {grantRole} and {revokeRole}. To change a role's admin, use {_setRoleAdmin}."
      },
      "grantRole(bytes32,address)": {
        "details": "Grants `role` to `account`. If `account` had not been already granted `role`, emits a {RoleGranted} event. Requirements: - the caller must have ``role``'s admin role."
      },
      "hasRole(bytes32,address)": {
        "details": "Returns `true` if `account` has been granted `role`."
      },
      "isApprovedForAll(address,address)": {
        "details": "See {IERC721-isApprovedForAll}."
      },
      "name()": {
        "details": "See {IERC721Metadata-name}."
      },
      "owner()": {
        "details": "Returns the address of the current owner."
      },
      "ownerOf(uint256)": {
        "details": "See {IERC721-ownerOf}."
      },
      "paused()": {
        "details": "Returns true if the contract is paused, and false otherwise."
      },
      "renounceOwnership()": {
        "details": "Leaves the contract without owner. It will not be possible to call `onlyOwner` functions anymore. Can only be called by the current owner. NOTE: Renouncing ownership will leave the contract without an owner, thereby removing any functionality that is only available to the owner."
      },
      "renounceRole(bytes32,address)": {
        "details": "Revokes `role` from the calling account. Roles are often managed via {grantRole} and {revokeRole}: this function's purpose is to provide a mechanism for accounts to lose their privileges if they are compromised (such as when a trusted device is misplaced). If the calling account had been granted `role`, emits a {RoleRevoked} event. Requirements: - the caller must be `account`."
      },
      "revokeRole(bytes32,address)": {
        "details": "Revokes `role` from `account`. If `account` had been granted `role`, emits a {RoleRevoked} event. Requirements: - the caller must have ``role``'s admin role."
      },
      "safeBatchTransferFrom(address,address,uint256[],uint256[],bytes)": {
        "details": "See {IERC1155-safeBatchTransferFrom}."
      },
      "safeTransferFrom(address,address,uint256)": {
        "details": "See {IERC721-safeTransferFrom}."
      },
      "safeTransferFrom(address,address,uint256,bytes)": {
        "details": "See {IERC721-safeTransferFrom}."
      },
      "safeTransferFrom(address,address,uint256,uint256,bytes)": {
        "details": "See {IERC1155-safeTransferFrom}."
      },
      "setApprovalForAll(address,bool)": {
        "details": "See {IERC721-setApprovalForAll}."
      },
      "symbol()": {
        "details": "See {IERC721Metadata-symbol}."
      },
      "tokenURI(uint256)": {
        "details": "See {IERC721Metadata-tokenURI}."
      },
      "transferFrom(address,address,uint256)": {
        "details": "See {IERC721-transferFrom}."
      },
      "transferOwnership(address)": {
        "details": "Transfers ownership of the contract to a new account (`newOwner`). Can only be called by the current owner."
      },
      "uri(uint256)": {
        "details": "See {IERC1155MetadataURI-uri}. This implementation returns the same URI for *all* token types. It relies on the token type ID substitution mechanism https://eips.ethereum.org/EIPS/eip-1155#metadata[defined in the EIP]. Clients calling this function must replace the `\\{id\\}` substring with the actual token type ID."
      }
    },
    "version": 1
  },
  "userdoc": {
    "kind": "user",
    "methods": {},
    "version": 1
  }
}