{
  "contractName": "ROCNFT",
  "abi": [
    {
      "inputs": [],
      "stateMutability": "nonpayable",
      "type": "constructor"
    },
    {
      "anonymous": false,
      "inputs": [
        {
          "indexed": true,
          "internalType": "address",
          "name": "account",
          "type": "address"
        },
        {
          "indexed": true,
          "internalType": "address",
          "name": "operator",
          "type": "address"
        },
        {
          "indexed": false,
          "internalType": "bool",
          "name": "approved",
          "type": "bool"
        }
      ],
      "name": "ApprovalForAll",
      "type": "event"
    },
    {
      "anonymous": false,
      "inputs": [
        {
          "indexed": true,
          "internalType": "address",
          "name": "previousOwner",
          "type": "address"
        },
        {
          "indexed": true,
          "internalType": "address",
          "name": "newOwner",
          "type": "address"
        }
      ],
      "name": "OwnershipTransferred",
      "type": "event"
    },
    {
      "anonymous": false,
      "inputs": [
        {
          "indexed": false,
          "internalType": "address",
          "name": "account",
          "type": "address"
        }
      ],
      "name": "Paused",
      "type": "event"
    },
    {
      "anonymous": false,
      "inputs": [
        {
          "indexed": true,
          "internalType": "bytes32",
          "name": "role",
          "type": "bytes32"
        },
        {
          "indexed": true,
          "internalType": "bytes32",
          "name": "previousAdminRole",
          "type": "bytes32"
        },
        {
          "indexed": true,
          "internalType": "bytes32",
          "name": "newAdminRole",
          "type": "bytes32"
        }
      ],
      "name": "RoleAdminChanged",
      "type": "event"
    },
    {
      "anonymous": false,
      "inputs": [
        {
          "indexed": true,
          "internalType": "bytes32",
          "name": "role",
          "type": "bytes32"
        },
        {
          "indexed": true,
          "internalType": "address",
          "name": "account",
          "type": "address"
        },
        {
          "indexed": true,
          "internalType": "address",
          "name": "sender",
          "type": "address"
        }
      ],
      "name": "RoleGranted",
      "type": "event"
    },
    {
      "anonymous": false,
      "inputs": [
        {
          "indexed": true,
          "internalType": "bytes32",
          "name": "role",
          "type": "bytes32"
        },
        {
          "indexed": true,
          "internalType": "address",
          "name": "account",
          "type": "address"
        },
        {
          "indexed": true,
          "internalType": "address",
          "name": "sender",
          "type": "address"
        }
      ],
      "name": "RoleRevoked",
      "type": "event"
    },
    {
      "anonymous": false,
      "inputs": [
        {
          "indexed": true,
          "internalType": "address",
          "name": "operator",
          "type": "address"
        },
        {
          "indexed": true,
          "internalType": "address",
          "name": "from",
          "type": "address"
        },
        {
          "indexed": true,
          "internalType": "address",
          "name": "to",
          "type": "address"
        },
        {
          "indexed": false,
          "internalType": "uint256[]",
          "name": "ids",
          "type": "uint256[]"
        },
        {
          "indexed": false,
          "internalType": "uint256[]",
          "name": "values",
          "type": "uint256[]"
        }
      ],
      "name": "TransferBatch",
      "type": "event"
    },
    {
      "anonymous": false,
      "inputs": [
        {
          "indexed": true,
          "internalType": "address",
          "name": "operator",
          "type": "address"
        },
        {
          "indexed": true,
          "internalType": "address",
          "name": "from",
          "type": "address"
        },
        {
          "indexed": true,
          "internalType": "address",
          "name": "to",
          "type": "address"
        },
        {
          "indexed": false,
          "internalType": "uint256",
          "name": "id",
          "type": "uint256"
        },
        {
          "indexed": false,
          "internalType": "uint256",
          "name": "value",
          "type": "uint256"
        }
      ],
      "name": "TransferSingle",
      "type": "event"
    },
    {
      "anonymous": false,
      "inputs": [
        {
          "indexed": false,
          "internalType": "string",
          "name": "value",
          "type": "string"
        },
        {
          "indexed": true,
          "internalType": "uint256",
          "name": "id",
          "type": "uint256"
        }
      ],
      "name": "URI",
      "type": "event"
    },
    {
      "anonymous": false,
      "inputs": [
        {
          "indexed": false,
          "internalType": "address",
          "name": "account",
          "type": "address"
        }
      ],
      "name": "Unpaused",
      "type": "event"
    },
    {
      "inputs": [],
      "name": "DEFAULT_ADMIN_ROLE",
      "outputs": [
        {
          "internalType": "bytes32",
          "name": "",
          "type": "bytes32"
        }
      ],
      "stateMutability": "view",
      "type": "function",
      "constant": true
    },
    {
      "inputs": [],
      "name": "MINTER_ROLE",
      "outputs": [
        {
          "internalType": "bytes32",
          "name": "",
          "type": "bytes32"
        }
      ],
      "stateMutability": "view",
      "type": "function",
      "constant": true
    },
    {
      "inputs": [],
      "name": "URI_SETTER_ROLE",
      "outputs": [
        {
          "internalType": "bytes32",
          "name": "",
          "type": "bytes32"
        }
      ],
      "stateMutability": "view",
      "type": "function",
      "constant": true
    },
    {
      "inputs": [
        {
          "internalType": "address",
          "name": "account",
          "type": "address"
        },
        {
          "internalType": "uint256",
          "name": "id",
          "type": "uint256"
        }
      ],
      "name": "balanceOf",
      "outputs": [
        {
          "internalType": "uint256",
          "name": "",
          "type": "uint256"
        }
      ],
      "stateMutability": "view",
      "type": "function",
      "constant": true
    },
    {
      "inputs": [
        {
          "internalType": "address[]",
          "name": "accounts",
          "type": "address[]"
        },
        {
          "internalType": "uint256[]",
          "name": "ids",
          "type": "uint256[]"
        }
      ],
      "name": "balanceOfBatch",
      "outputs": [
        {
          "internalType": "uint256[]",
          "name": "",
          "type": "uint256[]"
        }
      ],
      "stateMutability": "view",
      "type": "function",
      "constant": true
    },
    {
      "inputs": [
        {
          "internalType": "address",
          "name": "account",
          "type": "address"
        },
        {
          "internalType": "uint256",
          "name": "id",
          "type": "uint256"
        },
        {
          "internalType": "uint256",
          "name": "value",
          "type": "uint256"
        }
      ],
      "name": "burn",
      "outputs": [],
      "stateMutability": "nonpayable",
      "type": "function"
    },
    {
      "inputs": [
        {
          "internalType": "address",
          "name": "account",
          "type": "address"
        },
        {
          "internalType": "uint256[]",
          "name": "ids",
          "type": "uint256[]"
        },
        {
          "internalType": "uint256[]",
          "name": "values",
          "type": "uint256[]"
        }
      ],
      "name": "burnBatch",
      "outputs": [],
      "stateMutability": "nonpayable",
      "type": "function"
    },
    {
      "inputs": [
        {
          "internalType": "bytes32",
          "name": "role",
          "type": "bytes32"
        }
      ],
      "name": "getRoleAdmin",
      "outputs": [
        {
          "internalType": "bytes32",
          "name": "",
          "type": "bytes32"
        }
      ],
      "stateMutability": "view",
      "type": "function",
      "constant": true
    },
    {
      "inputs": [
        {
          "internalType": "bytes32",
          "name": "role",
          "type": "bytes32"
        },
        {
          "internalType": "address",
          "name": "account",
          "type": "address"
        }
      ],
      "name": "grantRole",
      "outputs": [],
      "stateMutability": "nonpayable",
      "type": "function"
    },
    {
      "inputs": [
        {
          "internalType": "bytes32",
          "name": "role",
          "type": "bytes32"
        },
        {
          "internalType": "address",
          "name": "account",
          "type": "address"
        }
      ],
      "name": "hasRole",
      "outputs": [
        {
          "internalType": "bool",
          "name": "",
          "type": "bool"
        }
      ],
      "stateMutability": "view",
      "type": "function",
      "constant": true
    },
    {
      "inputs": [
        {
          "internalType": "address",
          "name": "account",
          "type": "address"
        },
        {
          "internalType": "address",
          "name": "operator",
          "type": "address"
        }
      ],
      "name": "isApprovedForAll",
      "outputs": [
        {
          "internalType": "bool",
          "name": "",
          "type": "bool"
        }
      ],
      "stateMutability": "view",
      "type": "function",
      "constant": true
    },
    {
      "inputs": [],
      "name": "name",
      "outputs": [
        {
          "internalType": "string",
          "name": "",
          "type": "string"
        }
      ],
      "stateMutability": "view",
      "type": "function",
      "constant": true
    },
    {
      "inputs": [],
      "name": "owner",
      "outputs": [
        {
          "internalType": "address",
          "name": "",
          "type": "address"
        }
      ],
      "stateMutability": "view",
      "type": "function",
      "constant": true
    },
    {
      "inputs": [],
      "name": "paused",
      "outputs": [
        {
          "internalType": "bool",
          "name": "",
          "type": "bool"
        }
      ],
      "stateMutability": "view",
      "type": "function",
      "constant": true
    },
    {
      "inputs": [],
      "name": "renounceOwnership",
      "outputs": [],
      "stateMutability": "nonpayable",
      "type": "function"
    },
    {
      "inputs": [
        {
          "internalType": "bytes32",
          "name": "role",
          "type": "bytes32"
        },
        {
          "internalType": "address",
          "name": "account",
          "type": "address"
        }
      ],
      "name": "renounceRole",
      "outputs": [],
      "stateMutability": "nonpayable",
      "type": "function"
    },
    {
      "inputs": [
        {
          "internalType": "bytes32",
          "name": "role",
          "type": "bytes32"
        },
        {
          "internalType": "address",
          "name": "account",
          "type": "address"
        }
      ],
      "name": "revokeRole",
      "outputs": [],
      "stateMutability": "nonpayable",
      "type": "function"
    },
    {
      "inputs": [
        {
          "internalType": "address",
          "name": "from",
          "type": "address"
        },
        {
          "internalType": "address",
          "name": "to",
          "type": "address"
        },
        {
          "internalType": "uint256[]",
          "name": "ids",
          "type": "uint256[]"
        },
        {
          "internalType": "uint256[]",
          "name": "amounts",
          "type": "uint256[]"
        },
        {
          "internalType": "bytes",
          "name": "data",
          "type": "bytes"
        }
      ],
      "name": "safeBatchTransferFrom",
      "outputs": [],
      "stateMutability": "nonpayable",
      "type": "function"
    },
    {
      "inputs": [
        {
          "internalType": "address",
          "name": "from",
          "type": "address"
        },
        {
          "internalType": "address",
          "name": "to",
          "type": "address"
        },
        {
          "internalType": "uint256",
          "name": "id",
          "type": "uint256"
        },
        {
          "internalType": "uint256",
          "name": "amount",
          "type": "uint256"
        },
        {
          "internalType": "bytes",
          "name": "data",
          "type": "bytes"
        }
      ],
      "name": "safeTransferFrom",
      "outputs": [],
      "stateMutability": "nonpayable",
      "type": "function"
    },
    {
      "inputs": [
        {
          "internalType": "address",
          "name": "operator",
          "type": "address"
        },
        {
          "internalType": "bool",
          "name": "approved",
          "type": "bool"
        }
      ],
      "name": "setApprovalForAll",
      "outputs": [],
      "stateMutability": "nonpayable",
      "type": "function"
    },
    {
      "inputs": [
        {
          "internalType": "address",
          "name": "newOwner",
          "type": "address"
        }
      ],
      "name": "transferOwnership",
      "outputs": [],
      "stateMutability": "nonpayable",
      "type": "function"
    },
    {
      "inputs": [
        {
          "internalType": "uint256",
          "name": "_id",
          "type": "uint256"
        }
      ],
      "name": "uri",
      "outputs": [
        {
          "internalType": "string",
          "name": "",
          "type": "string"
        }
      ],
      "stateMutability": "view",
      "type": "function",
      "constant": true
    },
    {
      "inputs": [
        {
          "internalType": "string",
          "name": "newuri",
          "type": "string"
        }
      ],
      "name": "setURI",
      "outputs": [],
      "stateMutability": "nonpayable",
      "type": "function"
    },
    {
      "inputs": [],
      "name": "pause",
      "outputs": [],
      "stateMutability": "nonpayable",
      "type": "function"
    },
    {
      "inputs": [],
      "name": "unpause",
      "outputs": [],
      "stateMutability": "nonpayable",
      "type": "function"
    },
    {
      "inputs": [
        {
          "internalType": "address",
          "name": "account",
          "type": "address"
        },
        {
          "internalType": "uint256",
          "name": "id",
          "type": "uint256"
        },
        {
          "internalType": "uint256",
          "name": "amount",
          "type": "uint256"
        },
        {
          "internalType": "bytes",
          "name": "data",
          "type": "bytes"
        }
      ],
      "name": "mint",
      "outputs": [],
      "stateMutability": "nonpayable",
      "type": "function"
    },
    {
      "inputs": [
        {
          "internalType": "address",
          "name": "to",
          "type": "address"
        },
        {
          "internalType": "uint256[]",
          "name": "ids",
          "type": "uint256[]"
        },
        {
          "internalType": "uint256[]",
          "name": "amounts",
          "type": "uint256[]"
        },
        {
          "internalType": "bytes",
          "name": "data",
          "type": "bytes"
        }
      ],
      "name": "mintBatch",
      "outputs": [],
      "stateMutability": "nonpayable",
      "type": "function"
    },
    {
      "inputs": [
        {
          "internalType": "address[]",
          "name": "accounts",
          "type": "address[]"
        },
        {
          "internalType": "uint256[]",
          "name": "ids",
          "type": "uint256[]"
        },
        {
          "internalType": "uint256[]",
          "name": "amounts",
          "type": "uint256[]"
        },
        {
          "internalType": "bytes",
          "name": "data",
          "type": "bytes"
        }
      ],
      "name": "mintBatch",
      "outputs": [],
      "stateMutability": "nonpayable",
      "type": "function"
    },
    {
      "inputs": [
        {
          "internalType": "bytes4",
          "name": "interfaceId",
          "type": "bytes4"
        }
      ],
      "name": "supportsInterface",
      "outputs": [
        {
          "internalType": "bool",
          "name": "",
          "type": "bool"
        }
      ],
      "stateMutability": "view",
      "type": "function",
      "constant": true
    }
  ],
  "bytecode": "0x60806040526040518060400160405280600c81526020017f52697365206f66204361747300000000000000000000000000000000000000008152506006908051906020019062000051929190620003bf565b503480156200005f57600080fd5b506040518060400160405280601f81526020017f68747470733a2f2f6e66742e726973656f66636174732e636f6d2f6361742f00815250620000a7816200016260201b60201c565b50620000c8620000bc6200017e60201b60201c565b6200018660201b60201c565b6000600560006101000a81548160ff021916908315150217905550620000f86000801b336200024c60201b60201c565b6200012a7f7804d923f43a17d325d77e781528e0793b2edd9890ab45fc64efd7b4b427744c336200024c60201b60201c565b6200015c7f9f2df0fed2c77648de5860a4cc508cd0818c85b8b8a1ab4ceeef8d981c8956a6336200024c60201b60201c565b620004d4565b80600290805190602001906200017a929190620003bf565b5050565b600033905090565b6000600360009054906101000a900473ffffffffffffffffffffffffffffffffffffffff16905081600360006101000a81548173ffffffffffffffffffffffffffffffffffffffff021916908373ffffffffffffffffffffffffffffffffffffffff1602179055508173ffffffffffffffffffffffffffffffffffffffff168173ffffffffffffffffffffffffffffffffffffffff167f8be0079c531659141344cd1fd0a4f28419497f9722a3daafe3b4186f6b6457e060405160405180910390a35050565b6200025e82826200026260201b60201c565b5050565b6200027482826200035460201b60201c565b620003505760016004600084815260200190815260200160002060000160008373ffffffffffffffffffffffffffffffffffffffff1673ffffffffffffffffffffffffffffffffffffffff16815260200190815260200160002060006101000a81548160ff021916908315150217905550620002f56200017e60201b60201c565b73ffffffffffffffffffffffffffffffffffffffff168173ffffffffffffffffffffffffffffffffffffffff16837f2f8788117e7eff1d82e926ec794901d17c78024a50270940304540a733656f0d60405160405180910390a45b5050565b60006004600084815260200190815260200160002060000160008373ffffffffffffffffffffffffffffffffffffffff1673ffffffffffffffffffffffffffffffffffffffff16815260200190815260200160002060009054906101000a900460ff16905092915050565b828054620003cd906200046f565b90600052602060002090601f016020900481019282620003f157600085556200043d565b82601f106200040c57805160ff19168380011785556200043d565b828001600101855582156200043d579182015b828111156200043c5782518255916020019190600101906200041f565b5b5090506200044c919062000450565b5090565b5b808211156200046b57600081600090555060010162000451565b5090565b600060028204905060018216806200048857607f821691505b602082108114156200049f576200049e620004a5565b5b50919050565b7f4e487b7100000000000000000000000000000000000000000000000000000000600052602260045260246000fd5b6153b380620004e46000396000f3fe608060405234801561001057600080fd5b50600436106101ce5760003560e01c8063715018a611610104578063a22cb465116100a2578063e985e9c511610071578063e985e9c5146104dd578063f242432a1461050d578063f2fde38b14610529578063f5298aca14610545576101ce565b8063a22cb4651461046b578063d3208b0a14610487578063d5391393146104a3578063d547741f146104c1576101ce565b80638456cb59116100de5780638456cb59146103f55780638da5cb5b146103ff57806391d148541461041d578063a217fddf1461044d576101ce565b8063715018a6146103b1578063731133e9146103bb5780637f345710146103d7576101ce565b80632eb2c2d6116101715780633f4ba83a1161014b5780633f4ba83a1461033d5780634e1273f4146103475780635c975abb146103775780636b20c45414610395576101ce565b80632eb2c2d6146102e95780632f2ff15d1461030557806336568abe14610321576101ce565b806306fdde03116101ad57806306fdde031461024f5780630e89341c1461026d5780631f7fdffa1461029d578063248a9ca3146102b9576101ce565b8062fdd58e146101d357806301ffc9a71461020357806302fe530514610233575b600080fd5b6101ed60048036038101906101e89190613a4a565b610561565b6040516101fa91906146b5565b60405180910390f35b61021d60048036038101906102189190613ce4565b61062a565b60405161022a91906143bd565b60405180910390f35b61024d60048036038101906102489190613d36565b61064c565b005b61025761068b565b60405161026491906143f3565b60405180910390f35b61028760048036038101906102829190613d77565b610719565b60405161029491906143f3565b60405180910390f35b6102b760048036038101906102b29190613963565b610760565b005b6102d360048036038101906102ce9190613c7f565b6107a5565b6040516102e091906143d8565b60405180910390f35b61030360048036038101906102fe9190613796565b6107c5565b005b61031f600480360381019061031a9190613ca8565b610866565b005b61033b60048036038101906103369190613ca8565b61088f565b005b610345610912565b005b610361600480360381019061035c9190613b50565b610998565b60405161036e9190614364565b60405180910390f35b61037f610b49565b60405161038c91906143bd565b60405180910390f35b6103af60048036038101906103aa91906138e4565b610b60565b005b6103b9610bfd565b005b6103d560048036038101906103d09190613ad5565b610c85565b005b6103df610cca565b6040516103ec91906143d8565b60405180910390f35b6103fd610cee565b005b610407610d74565b6040516104149190614287565b60405180910390f35b61043760048036038101906104329190613ca8565b610d9e565b60405161044491906143bd565b60405180910390f35b610455610e09565b60405161046291906143d8565b60405180910390f35b61048560048036038101906104809190613a0e565b610e10565b005b6104a1600480360381019061049c9190613bbc565b610f91565b005b6104ab61113e565b6040516104b891906143d8565b60405180910390f35b6104db60048036038101906104d69190613ca8565b611162565b005b6104f760048036038101906104f2919061375a565b61118b565b60405161050491906143bd565b60405180910390f35b61052760048036038101906105229190613855565b61121f565b005b610543600480360381019061053e9190613731565b6112c0565b005b61055f600480360381019061055a9190613a86565b6113b8565b005b60008073ffffffffffffffffffffffffffffffffffffffff168373ffffffffffffffffffffffffffffffffffffffff1614156105d2576040517f08c379a00000000000000000000000000000000000000000000000000000000081526004016105c990614495565b60405180910390fd5b60008083815260200190815260200160002060008473ffffffffffffffffffffffffffffffffffffffff1673ffffffffffffffffffffffffffffffffffffffff16815260200190815260200160002054905092915050565b600061063582611455565b80610645575061064482611537565b5b9050919050565b7f7804d923f43a17d325d77e781528e0793b2edd9890ab45fc64efd7b4b427744c61067e816106796115b1565b6115b9565b61068782611656565b5050565b6006805461069890614a97565b80601f01602080910402602001604051908101604052809291908181526020018280546106c490614a97565b80156107115780601f106106e657610100808354040283529160200191610711565b820191906000526020600020905b8154815290600101906020018083116106f457829003601f168201915b505050505081565b6060600061072683611670565b9050600061073384611845565b90508082604051602001610748929190614229565b60405160208183030381529060405292505050919050565b7f9f2df0fed2c77648de5860a4cc508cd0818c85b8b8a1ab4ceeef8d981c8956a66107928161078d6115b1565b6115b9565b61079e858585856118d9565b5050505050565b600060046000838152602001908152602001600020600101549050919050565b6107cd6115b1565b73ffffffffffffffffffffffffffffffffffffffff168573ffffffffffffffffffffffffffffffffffffffff16148061081357506108128561080d6115b1565b61118b565b5b610852576040517f08c379a000000000000000000000000000000000000000000000000000000000815260040161084990614555565b60405180910390fd5b61085f8585858585611b43565b5050505050565b61086f826107a5565b6108808161087b6115b1565b6115b9565b61088a8383611ea3565b505050565b6108976115b1565b73ffffffffffffffffffffffffffffffffffffffff168173ffffffffffffffffffffffffffffffffffffffff1614610904576040517f08c379a00000000000000000000000000000000000000000000000000000000081526004016108fb90614695565b60405180910390fd5b61090e8282611f84565b5050565b61091a6115b1565b73ffffffffffffffffffffffffffffffffffffffff16610938610d74565b73ffffffffffffffffffffffffffffffffffffffff161461098e576040517f08c379a0000000000000000000000000000000000000000000000000000000008152600401610985906145d5565b60405180910390fd5b610996612066565b565b606081518351146109de576040517f08c379a00000000000000000000000000000000000000000000000000000000081526004016109d590614615565b60405180910390fd5b6000835167ffffffffffffffff811115610a21577f4e487b7100000000000000000000000000000000000000000000000000000000600052604160045260246000fd5b604051908082528060200260200182016040528015610a4f5781602001602082028036833780820191505090505b50905060005b8451811015610b3e57610ae8858281518110610a9a577f4e487b7100000000000000000000000000000000000000000000000000000000600052603260045260246000fd5b6020026020010151858381518110610adb577f4e487b7100000000000000000000000000000000000000000000000000000000600052603260045260246000fd5b6020026020010151610561565b828281518110610b21577f4e487b7100000000000000000000000000000000000000000000000000000000600052603260045260246000fd5b60200260200101818152505080610b3790614afa565b9050610a55565b508091505092915050565b6000600560009054906101000a900460ff16905090565b610b686115b1565b73ffffffffffffffffffffffffffffffffffffffff168373ffffffffffffffffffffffffffffffffffffffff161480610bae5750610bad83610ba86115b1565b61118b565b5b610bed576040517f08c379a0000000000000000000000000000000000000000000000000000000008152600401610be4906144f5565b60405180910390fd5b610bf8838383612108565b505050565b610c056115b1565b73ffffffffffffffffffffffffffffffffffffffff16610c23610d74565b73ffffffffffffffffffffffffffffffffffffffff1614610c79576040517f08c379a0000000000000000000000000000000000000000000000000000000008152600401610c70906145d5565b60405180910390fd5b610c836000612405565b565b7f9f2df0fed2c77648de5860a4cc508cd0818c85b8b8a1ab4ceeef8d981c8956a6610cb781610cb26115b1565b6115b9565b610cc3858585856124cb565b5050505050565b7f7804d923f43a17d325d77e781528e0793b2edd9890ab45fc64efd7b4b427744c81565b610cf66115b1565b73ffffffffffffffffffffffffffffffffffffffff16610d14610d74565b73ffffffffffffffffffffffffffffffffffffffff1614610d6a576040517f08c379a0000000000000000000000000000000000000000000000000000000008152600401610d61906145d5565b60405180910390fd5b610d72612661565b565b6000600360009054906101000a900473ffffffffffffffffffffffffffffffffffffffff16905090565b60006004600084815260200190815260200160002060000160008373ffffffffffffffffffffffffffffffffffffffff1673ffffffffffffffffffffffffffffffffffffffff16815260200190815260200160002060009054906101000a900460ff16905092915050565b6000801b81565b8173ffffffffffffffffffffffffffffffffffffffff16610e2f6115b1565b73ffffffffffffffffffffffffffffffffffffffff161415610e86576040517f08c379a0000000000000000000000000000000000000000000000000000000008152600401610e7d906145f5565b60405180910390fd5b8060016000610e936115b1565b73ffffffffffffffffffffffffffffffffffffffff1673ffffffffffffffffffffffffffffffffffffffff16815260200190815260200160002060008473ffffffffffffffffffffffffffffffffffffffff1673ffffffffffffffffffffffffffffffffffffffff16815260200190815260200160002060006101000a81548160ff0219169083151502179055508173ffffffffffffffffffffffffffffffffffffffff16610f406115b1565b73ffffffffffffffffffffffffffffffffffffffff167f17307eab39ab6107e8899845ad3d59bd9653f200f220920489ca2b5937696c3183604051610f8591906143bd565b60405180910390a35050565b7f9f2df0fed2c77648de5860a4cc508cd0818c85b8b8a1ab4ceeef8d981c8956a6610fc381610fbe6115b1565b6115b9565b8351855114611007576040517f08c379a0000000000000000000000000000000000000000000000000000000008152600401610ffe90614595565b60405180910390fd5b825184511461104b576040517f08c379a000000000000000000000000000000000000000000000000000000000815260040161104290614675565b60405180910390fd5b60005b855181101561113657611123868281518110611093577f4e487b7100000000000000000000000000000000000000000000000000000000600052603260045260246000fd5b60200260200101518683815181106110d4577f4e487b7100000000000000000000000000000000000000000000000000000000600052603260045260246000fd5b6020026020010151868481518110611115577f4e487b7100000000000000000000000000000000000000000000000000000000600052603260045260246000fd5b6020026020010151866124cb565b808061112e90614afa565b91505061104e565b505050505050565b7f9f2df0fed2c77648de5860a4cc508cd0818c85b8b8a1ab4ceeef8d981c8956a681565b61116b826107a5565b61117c816111776115b1565b6115b9565b6111868383611f84565b505050565b6000600160008473ffffffffffffffffffffffffffffffffffffffff1673ffffffffffffffffffffffffffffffffffffffff16815260200190815260200160002060008373ffffffffffffffffffffffffffffffffffffffff1673ffffffffffffffffffffffffffffffffffffffff16815260200190815260200160002060009054906101000a900460ff16905092915050565b6112276115b1565b73ffffffffffffffffffffffffffffffffffffffff168573ffffffffffffffffffffffffffffffffffffffff16148061126d575061126c856112676115b1565b61118b565b5b6112ac576040517f08c379a00000000000000000000000000000000000000000000000000000000081526004016112a3906144f5565b60405180910390fd5b6112b98585858585612704565b5050505050565b6112c86115b1565b73ffffffffffffffffffffffffffffffffffffffff166112e6610d74565b73ffffffffffffffffffffffffffffffffffffffff161461133c576040517f08c379a0000000000000000000000000000000000000000000000000000000008152600401611333906145d5565b60405180910390fd5b600073ffffffffffffffffffffffffffffffffffffffff168173ffffffffffffffffffffffffffffffffffffffff1614156113ac576040517f08c379a00000000000000000000000000000000000000000000000000000000081526004016113a3906144b5565b60405180910390fd5b6113b581612405565b50565b6113c06115b1565b73ffffffffffffffffffffffffffffffffffffffff168373ffffffffffffffffffffffffffffffffffffffff1614806114065750611405836114006115b1565b61118b565b5b611445576040517f08c379a000000000000000000000000000000000000000000000000000000000815260040161143c906144f5565b60405180910390fd5b611450838383612986565b505050565b60007fd9b67a26000000000000000000000000000000000000000000000000000000007bffffffffffffffffffffffffffffffffffffffffffffffffffffffff1916827bffffffffffffffffffffffffffffffffffffffffffffffffffffffff1916148061152057507f0e89341c000000000000000000000000000000000000000000000000000000007bffffffffffffffffffffffffffffffffffffffffffffffffffffffff1916827bffffffffffffffffffffffffffffffffffffffffffffffffffffffff1916145b80611530575061152f82612ba3565b5b9050919050565b60007f7965db0b000000000000000000000000000000000000000000000000000000007bffffffffffffffffffffffffffffffffffffffffffffffffffffffff1916827bffffffffffffffffffffffffffffffffffffffffffffffffffffffff191614806115aa57506115a982611455565b5b9050919050565b600033905090565b6115c38282610d9e565b611652576115e88173ffffffffffffffffffffffffffffffffffffffff166014612c0d565b6115f68360001c6020612c0d565b60405160200161160792919061424d565b6040516020818303038152906040526040517f08c379a000000000000000000000000000000000000000000000000000000000815260040161164991906143f3565b60405180910390fd5b5050565b806002908051906020019061166c929190613414565b5050565b606060008214156116b8576040518060400160405280600181526020017f30000000000000000000000000000000000000000000000000000000000000008152509050611840565b600082905060005b600082146116ea5780806116d390614afa565b915050600a826116e391906148e1565b91506116c0565b60008167ffffffffffffffff81111561172c577f4e487b7100000000000000000000000000000000000000000000000000000000600052604160045260246000fd5b6040519080825280601f01601f19166020018201604052801561175e5781602001600182028036833780820191505090505b50905060008290505b600086146118385760018161177c919061496c565b90506000600a808861178e91906148e1565b6117989190614912565b876117a3919061496c565b60306117af91906148aa565b905060008160f81b9050808484815181106117f3577f4e487b7100000000000000000000000000000000000000000000000000000000600052603260045260246000fd5b60200101907effffffffffffffffffffffffffffffffffffffffffffffffffffffffffffff1916908160001a905350600a8861182f91906148e1565b97505050611767565b819450505050505b919050565b60606002805461185490614a97565b80601f016020809104026020016040519081016040528092919081815260200182805461188090614a97565b80156118cd5780601f106118a2576101008083540402835291602001916118cd565b820191906000526020600020905b8154815290600101906020018083116118b057829003601f168201915b50505050509050919050565b600073ffffffffffffffffffffffffffffffffffffffff168473ffffffffffffffffffffffffffffffffffffffff161415611949576040517f08c379a000000000000000000000000000000000000000000000000000000000815260040161194090614655565b60405180910390fd5b815183511461198d576040517f08c379a000000000000000000000000000000000000000000000000000000000815260040161198490614635565b60405180910390fd5b60006119976115b1565b90506119a881600087878787612f07565b60005b8451811015611aad578381815181106119ed577f4e487b7100000000000000000000000000000000000000000000000000000000600052603260045260246000fd5b6020026020010151600080878481518110611a31577f4e487b7100000000000000000000000000000000000000000000000000000000600052603260045260246000fd5b6020026020010151815260200190815260200160002060008873ffffffffffffffffffffffffffffffffffffffff1673ffffffffffffffffffffffffffffffffffffffff1681526020019081526020016000206000828254611a939190614854565b925050819055508080611aa590614afa565b9150506119ab565b508473ffffffffffffffffffffffffffffffffffffffff16600073ffffffffffffffffffffffffffffffffffffffff168273ffffffffffffffffffffffffffffffffffffffff167f4a39dc06d4c0dbc64b70af90fd698a233a518aa5d07e595d983b8c0526c8f7fb8787604051611b25929190614386565b60405180910390a4611b3c81600087878787612f65565b5050505050565b8151835114611b87576040517f08c379a0000000000000000000000000000000000000000000000000000000008152600401611b7e90614635565b60405180910390fd5b600073ffffffffffffffffffffffffffffffffffffffff168473ffffffffffffffffffffffffffffffffffffffff161415611bf7576040517f08c379a0000000000000000000000000000000000000000000000000000000008152600401611bee90614535565b60405180910390fd5b6000611c016115b1565b9050611c11818787878787612f07565b60005b8451811015611e0e576000858281518110611c58577f4e487b7100000000000000000000000000000000000000000000000000000000600052603260045260246000fd5b602002602001015190506000858381518110611c9d577f4e487b7100000000000000000000000000000000000000000000000000000000600052603260045260246000fd5b60200260200101519050600080600084815260200190815260200160002060008b73ffffffffffffffffffffffffffffffffffffffff1673ffffffffffffffffffffffffffffffffffffffff16815260200190815260200160002054905081811015611d3e576040517f08c379a0000000000000000000000000000000000000000000000000000000008152600401611d35906145b5565b60405180910390fd5b81810360008085815260200190815260200160002060008c73ffffffffffffffffffffffffffffffffffffffff1673ffffffffffffffffffffffffffffffffffffffff168152602001908152602001600020819055508160008085815260200190815260200160002060008b73ffffffffffffffffffffffffffffffffffffffff1673ffffffffffffffffffffffffffffffffffffffff1681526020019081526020016000206000828254611df39190614854565b9250508190555050505080611e0790614afa565b9050611c14565b508473ffffffffffffffffffffffffffffffffffffffff168673ffffffffffffffffffffffffffffffffffffffff168273ffffffffffffffffffffffffffffffffffffffff167f4a39dc06d4c0dbc64b70af90fd698a233a518aa5d07e595d983b8c0526c8f7fb8787604051611e85929190614386565b60405180910390a4611e9b818787878787612f65565b505050505050565b611ead8282610d9e565b611f805760016004600084815260200190815260200160002060000160008373ffffffffffffffffffffffffffffffffffffffff1673ffffffffffffffffffffffffffffffffffffffff16815260200190815260200160002060006101000a81548160ff021916908315150217905550611f256115b1565b73ffffffffffffffffffffffffffffffffffffffff168173ffffffffffffffffffffffffffffffffffffffff16837f2f8788117e7eff1d82e926ec794901d17c78024a50270940304540a733656f0d60405160405180910390a45b5050565b611f8e8282610d9e565b156120625760006004600084815260200190815260200160002060000160008373ffffffffffffffffffffffffffffffffffffffff1673ffffffffffffffffffffffffffffffffffffffff16815260200190815260200160002060006101000a81548160ff0219169083151502179055506120076115b1565b73ffffffffffffffffffffffffffffffffffffffff168173ffffffffffffffffffffffffffffffffffffffff16837ff6391f5c32d9c69d2a47ea670b442974b53935d1edc7fd64eb21e047a839171b60405160405180910390a45b5050565b61206e610b49565b6120ad576040517f08c379a00000000000000000000000000000000000000000000000000000000081526004016120a490614475565b60405180910390fd5b6000600560006101000a81548160ff0219169083151502179055507f5db9ee0a495bf2e6ff9c91a7834c1ba4fdd244a5e8aa4e537bd38aeae4b073aa6120f16115b1565b6040516120fe9190614287565b60405180910390a1565b600073ffffffffffffffffffffffffffffffffffffffff168373ffffffffffffffffffffffffffffffffffffffff161415612178576040517f08c379a000000000000000000000000000000000000000000000000000000000815260040161216f90614575565b60405180910390fd5b80518251146121bc576040517f08c379a00000000000000000000000000000000000000000000000000000000081526004016121b390614635565b60405180910390fd5b60006121c66115b1565b90506121e681856000868660405180602001604052806000815250612f07565b60005b835181101561237f57600084828151811061222d577f4e487b7100000000000000000000000000000000000000000000000000000000600052603260045260246000fd5b602002602001015190506000848381518110612272577f4e487b7100000000000000000000000000000000000000000000000000000000600052603260045260246000fd5b60200260200101519050600080600084815260200190815260200160002060008973ffffffffffffffffffffffffffffffffffffffff1673ffffffffffffffffffffffffffffffffffffffff16815260200190815260200160002054905081811015612313576040517f08c379a000000000000000000000000000000000000000000000000000000000815260040161230a906144d5565b60405180910390fd5b81810360008085815260200190815260200160002060008a73ffffffffffffffffffffffffffffffffffffffff1673ffffffffffffffffffffffffffffffffffffffff16815260200190815260200160002081905550505050808061237790614afa565b9150506121e9565b50600073ffffffffffffffffffffffffffffffffffffffff168473ffffffffffffffffffffffffffffffffffffffff168273ffffffffffffffffffffffffffffffffffffffff167f4a39dc06d4c0dbc64b70af90fd698a233a518aa5d07e595d983b8c0526c8f7fb86866040516123f7929190614386565b60405180910390a450505050565b6000600360009054906101000a900473ffffffffffffffffffffffffffffffffffffffff16905081600360006101000a81548173ffffffffffffffffffffffffffffffffffffffff021916908373ffffffffffffffffffffffffffffffffffffffff1602179055508173ffffffffffffffffffffffffffffffffffffffff168173ffffffffffffffffffffffffffffffffffffffff167f8be0079c531659141344cd1fd0a4f28419497f9722a3daafe3b4186f6b6457e060405160405180910390a35050565b600073ffffffffffffffffffffffffffffffffffffffff168473ffffffffffffffffffffffffffffffffffffffff16141561253b576040517f08c379a000000000000000000000000000000000000000000000000000000000815260040161253290614655565b60405180910390fd5b60006125456115b1565b9050612566816000876125578861314c565b6125608861314c565b87612f07565b8260008086815260200190815260200160002060008773ffffffffffffffffffffffffffffffffffffffff1673ffffffffffffffffffffffffffffffffffffffff16815260200190815260200160002060008282546125c59190614854565b925050819055508473ffffffffffffffffffffffffffffffffffffffff16600073ffffffffffffffffffffffffffffffffffffffff168273ffffffffffffffffffffffffffffffffffffffff167fc3d58168c5ae7397731d063d5bbf3d657854427343f4c083240f7aacaa2d0f6287876040516126439291906146d0565b60405180910390a461265a81600087878787613212565b5050505050565b612669610b49565b156126a9576040517f08c379a00000000000000000000000000000000000000000000000000000000081526004016126a090614515565b60405180910390fd5b6001600560006101000a81548160ff0219169083151502179055507f62e78cea01bee320cd4e420270b5ea74000d11b0c9f74754ebdbfc544b05a2586126ed6115b1565b6040516126fa9190614287565b60405180910390a1565b600073ffffffffffffffffffffffffffffffffffffffff168473ffffffffffffffffffffffffffffffffffffffff161415612774576040517f08c379a000000000000000000000000000000000000000000000000000000000815260040161276b90614535565b60405180910390fd5b600061277e6115b1565b905061279e81878761278f8861314c565b6127988861314c565b87612f07565b600080600086815260200190815260200160002060008873ffffffffffffffffffffffffffffffffffffffff1673ffffffffffffffffffffffffffffffffffffffff16815260200190815260200160002054905083811015612835576040517f08c379a000000000000000000000000000000000000000000000000000000000815260040161282c906145b5565b60405180910390fd5b83810360008087815260200190815260200160002060008973ffffffffffffffffffffffffffffffffffffffff1673ffffffffffffffffffffffffffffffffffffffff168152602001908152602001600020819055508360008087815260200190815260200160002060008873ffffffffffffffffffffffffffffffffffffffff1673ffffffffffffffffffffffffffffffffffffffff16815260200190815260200160002060008282546128ea9190614854565b925050819055508573ffffffffffffffffffffffffffffffffffffffff168773ffffffffffffffffffffffffffffffffffffffff168373ffffffffffffffffffffffffffffffffffffffff167fc3d58168c5ae7397731d063d5bbf3d657854427343f4c083240f7aacaa2d0f6288886040516129679291906146d0565b60405180910390a461297d828888888888613212565b50505050505050565b600073ffffffffffffffffffffffffffffffffffffffff168373ffffffffffffffffffffffffffffffffffffffff1614156129f6576040517f08c379a00000000000000000000000000000000000000000000000000000000081526004016129ed90614575565b60405180910390fd5b6000612a006115b1565b9050612a3081856000612a128761314c565b612a1b8761314c565b60405180602001604052806000815250612f07565b600080600085815260200190815260200160002060008673ffffffffffffffffffffffffffffffffffffffff1673ffffffffffffffffffffffffffffffffffffffff16815260200190815260200160002054905082811015612ac7576040517f08c379a0000000000000000000000000000000000000000000000000000000008152600401612abe906144d5565b60405180910390fd5b82810360008086815260200190815260200160002060008773ffffffffffffffffffffffffffffffffffffffff1673ffffffffffffffffffffffffffffffffffffffff16815260200190815260200160002081905550600073ffffffffffffffffffffffffffffffffffffffff168573ffffffffffffffffffffffffffffffffffffffff168373ffffffffffffffffffffffffffffffffffffffff167fc3d58168c5ae7397731d063d5bbf3d657854427343f4c083240f7aacaa2d0f628787604051612b949291906146d0565b60405180910390a45050505050565b60007f01ffc9a7000000000000000000000000000000000000000000000000000000007bffffffffffffffffffffffffffffffffffffffffffffffffffffffff1916827bffffffffffffffffffffffffffffffffffffffffffffffffffffffff1916149050919050565b606060006002836002612c209190614912565b612c2a9190614854565b67ffffffffffffffff811115612c69577f4e487b7100000000000000000000000000000000000000000000000000000000600052604160045260246000fd5b6040519080825280601f01601f191660200182016040528015612c9b5781602001600182028036833780820191505090505b5090507f300000000000000000000000000000000000000000000000000000000000000081600081518110612cf9577f4e487b7100000000000000000000000000000000000000000000000000000000600052603260045260246000fd5b60200101907effffffffffffffffffffffffffffffffffffffffffffffffffffffffffffff1916908160001a9053507f780000000000000000000000000000000000000000000000000000000000000081600181518110612d83577f4e487b7100000000000000000000000000000000000000000000000000000000600052603260045260246000fd5b60200101907effffffffffffffffffffffffffffffffffffffffffffffffffffffffffffff1916908160001a90535060006001846002612dc39190614912565b612dcd9190614854565b90505b6001811115612eb9577f3031323334353637383961626364656600000000000000000000000000000000600f861660108110612e35577f4e487b7100000000000000000000000000000000000000000000000000000000600052603260045260246000fd5b1a60f81b828281518110612e72577f4e487b7100000000000000000000000000000000000000000000000000000000600052603260045260246000fd5b60200101907effffffffffffffffffffffffffffffffffffffffffffffffffffffffffffff1916908160001a905350600485901c945080612eb290614a6d565b9050612dd0565b5060008414612efd576040517f08c379a0000000000000000000000000000000000000000000000000000000008152600401612ef490614435565b60405180910390fd5b8091505092915050565b612f0f610b49565b15612f4f576040517f08c379a0000000000000000000000000000000000000000000000000000000008152600401612f4690614515565b60405180910390fd5b612f5d8686868686866133f9565b505050505050565b612f848473ffffffffffffffffffffffffffffffffffffffff16613401565b15613144578373ffffffffffffffffffffffffffffffffffffffff1663bc197c8187878686866040518663ffffffff1660e01b8152600401612fca9594939291906142a2565b602060405180830381600087803b158015612fe457600080fd5b505af192505050801561301557506040513d601f19601f820116820180604052508101906130129190613d0d565b60015b6130bb57613021614bff565b806308c379a0141561307e5750613036615274565b806130415750613080565b806040517f08c379a000000000000000000000000000000000000000000000000000000000815260040161307591906143f3565b60405180910390fd5b505b6040517f08c379a00000000000000000000000000000000000000000000000000000000081526004016130b290614415565b60405180910390fd5b63bc197c8160e01b7bffffffffffffffffffffffffffffffffffffffffffffffffffffffff1916817bffffffffffffffffffffffffffffffffffffffffffffffffffffffff191614613142576040517f08c379a000000000000000000000000000000000000000000000000000000000815260040161313990614455565b60405180910390fd5b505b505050505050565b60606000600167ffffffffffffffff811115613191577f4e487b7100000000000000000000000000000000000000000000000000000000600052604160045260246000fd5b6040519080825280602002602001820160405280156131bf5781602001602082028036833780820191505090505b50905082816000815181106131fd577f4e487b7100000000000000000000000000000000000000000000000000000000600052603260045260246000fd5b60200260200101818152505080915050919050565b6132318473ffffffffffffffffffffffffffffffffffffffff16613401565b156133f1578373ffffffffffffffffffffffffffffffffffffffff1663f23a6e6187878686866040518663ffffffff1660e01b815260040161327795949392919061430a565b602060405180830381600087803b15801561329157600080fd5b505af19250505080156132c257506040513d601f19601f820116820180604052508101906132bf9190613d0d565b60015b613368576132ce614bff565b806308c379a0141561332b57506132e3615274565b806132ee575061332d565b806040517f08c379a000000000000000000000000000000000000000000000000000000000815260040161332291906143f3565b60405180910390fd5b505b6040517f08c379a000000000000000000000000000000000000000000000000000000000815260040161335f90614415565b60405180910390fd5b63f23a6e6160e01b7bffffffffffffffffffffffffffffffffffffffffffffffffffffffff1916817bffffffffffffffffffffffffffffffffffffffffffffffffffffffff1916146133ef576040517f08c379a00000000000000000000000000000000000000000000000000000000081526004016133e690614455565b60405180910390fd5b505b505050505050565b505050505050565b600080823b905060008111915050919050565b82805461342090614a97565b90600052602060002090601f0160209004810192826134425760008555613489565b82601f1061345b57805160ff1916838001178555613489565b82800160010185558215613489579182015b8281111561348857825182559160200191906001019061346d565b5b509050613496919061349a565b5090565b5b808211156134b357600081600090555060010161349b565b5090565b60006134ca6134c58461471e565b6146f9565b905080838252602082019050828560208602820111156134e957600080fd5b60005b8581101561351957816134ff888261360b565b8452602084019350602083019250506001810190506134ec565b5050509392505050565b60006135366135318461474a565b6146f9565b9050808382526020820190508285602086028201111561355557600080fd5b60005b85811015613585578161356b888261371c565b845260208401935060208301925050600181019050613558565b5050509392505050565b60006135a261359d84614776565b6146f9565b9050828152602081018484840111156135ba57600080fd5b6135c5848285614a2b565b509392505050565b60006135e06135db846147a7565b6146f9565b9050828152602081018484840111156135f857600080fd5b613603848285614a2b565b509392505050565b60008135905061361a8161530a565b92915050565b600082601f83011261363157600080fd5b81356136418482602086016134b7565b91505092915050565b600082601f83011261365b57600080fd5b813561366b848260208601613523565b91505092915050565b60008135905061368381615321565b92915050565b60008135905061369881615338565b92915050565b6000813590506136ad8161534f565b92915050565b6000815190506136c28161534f565b92915050565b600082601f8301126136d957600080fd5b81356136e984826020860161358f565b91505092915050565b600082601f83011261370357600080fd5b81356137138482602086016135cd565b91505092915050565b60008135905061372b81615366565b92915050565b60006020828403121561374357600080fd5b60006137518482850161360b565b91505092915050565b6000806040838503121561376d57600080fd5b600061377b8582860161360b565b925050602061378c8582860161360b565b9150509250929050565b600080600080600060a086880312156137ae57600080fd5b60006137bc8882890161360b565b95505060206137cd8882890161360b565b945050604086013567ffffffffffffffff8111156137ea57600080fd5b6137f68882890161364a565b935050606086013567ffffffffffffffff81111561381357600080fd5b61381f8882890161364a565b925050608086013567ffffffffffffffff81111561383c57600080fd5b613848888289016136c8565b9150509295509295909350565b600080600080600060a0868803121561386d57600080fd5b600061387b8882890161360b565b955050602061388c8882890161360b565b945050604061389d8882890161371c565b93505060606138ae8882890161371c565b925050608086013567ffffffffffffffff8111156138cb57600080fd5b6138d7888289016136c8565b9150509295509295909350565b6000806000606084860312156138f957600080fd5b60006139078682870161360b565b935050602084013567ffffffffffffffff81111561392457600080fd5b6139308682870161364a565b925050604084013567ffffffffffffffff81111561394d57600080fd5b6139598682870161364a565b9150509250925092565b6000806000806080858703121561397957600080fd5b60006139878782880161360b565b945050602085013567ffffffffffffffff8111156139a457600080fd5b6139b08782880161364a565b935050604085013567ffffffffffffffff8111156139cd57600080fd5b6139d98782880161364a565b925050606085013567ffffffffffffffff8111156139f657600080fd5b613a02878288016136c8565b91505092959194509250565b60008060408385031215613a2157600080fd5b6000613a2f8582860161360b565b9250506020613a4085828601613674565b9150509250929050565b60008060408385031215613a5d57600080fd5b6000613a6b8582860161360b565b9250506020613a7c8582860161371c565b9150509250929050565b600080600060608486031215613a9b57600080fd5b6000613aa98682870161360b565b9350506020613aba8682870161371c565b9250506040613acb8682870161371c565b9150509250925092565b60008060008060808587031215613aeb57600080fd5b6000613af98782880161360b565b9450506020613b0a8782880161371c565b9350506040613b1b8782880161371c565b925050606085013567ffffffffffffffff811115613b3857600080fd5b613b44878288016136c8565b91505092959194509250565b60008060408385031215613b6357600080fd5b600083013567ffffffffffffffff811115613b7d57600080fd5b613b8985828601613620565b925050602083013567ffffffffffffffff811115613ba657600080fd5b613bb28582860161364a565b9150509250929050565b60008060008060808587031215613bd257600080fd5b600085013567ffffffffffffffff811115613bec57600080fd5b613bf887828801613620565b945050602085013567ffffffffffffffff811115613c1557600080fd5b613c218782880161364a565b935050604085013567ffffffffffffffff811115613c3e57600080fd5b613c4a8782880161364a565b925050606085013567ffffffffffffffff811115613c6757600080fd5b613c73878288016136c8565b91505092959194509250565b600060208284031215613c9157600080fd5b6000613c9f84828501613689565b91505092915050565b60008060408385031215613cbb57600080fd5b6000613cc985828601613689565b9250506020613cda8582860161360b565b9150509250929050565b600060208284031215613cf657600080fd5b6000613d048482850161369e565b91505092915050565b600060208284031215613d1f57600080fd5b6000613d2d848285016136b3565b91505092915050565b600060208284031215613d4857600080fd5b600082013567ffffffffffffffff811115613d6257600080fd5b613d6e848285016136f2565b91505092915050565b600060208284031215613d8957600080fd5b6000613d978482850161371c565b91505092915050565b6000613dac838361420b565b60208301905092915050565b613dc1816149a0565b82525050565b6000613dd2826147e8565b613ddc8185614816565b9350613de7836147d8565b8060005b83811015613e18578151613dff8882613da0565b9750613e0a83614809565b925050600181019050613deb565b5085935050505092915050565b613e2e816149b2565b82525050565b613e3d816149be565b82525050565b6000613e4e826147f3565b613e588185614827565b9350613e68818560208601614a3a565b613e7181614c21565b840191505092915050565b6000613e87826147fe565b613e918185614838565b9350613ea1818560208601614a3a565b613eaa81614c21565b840191505092915050565b6000613ec0826147fe565b613eca8185614849565b9350613eda818560208601614a3a565b80840191505092915050565b6000613ef3603483614838565b9150613efe82614c3f565b604082019050919050565b6000613f16602083614838565b9150613f2182614c8e565b602082019050919050565b6000613f39602883614838565b9150613f4482614cb7565b604082019050919050565b6000613f5c601483614838565b9150613f6782614d06565b602082019050919050565b6000613f7f602b83614838565b9150613f8a82614d2f565b604082019050919050565b6000613fa2602683614838565b9150613fad82614d7e565b604082019050919050565b6000613fc5602483614838565b9150613fd082614dcd565b604082019050919050565b6000613fe8602983614838565b9150613ff382614e1c565b604082019050919050565b600061400b601083614838565b915061401682614e6b565b602082019050919050565b600061402e602583614838565b915061403982614e94565b604082019050919050565b6000614051603283614838565b915061405c82614ee3565b604082019050919050565b6000614074602383614838565b915061407f82614f32565b604082019050919050565b6000614097602c83614838565b91506140a282614f81565b604082019050919050565b60006140ba602a83614838565b91506140c582614fd0565b604082019050919050565b60006140dd602083614838565b91506140e88261501f565b602082019050919050565b6000614100601783614849565b915061410b82615048565b601782019050919050565b6000614123602983614838565b915061412e82615071565b604082019050919050565b6000614146602983614838565b9150614151826150c0565b604082019050919050565b6000614169602883614838565b91506141748261510f565b604082019050919050565b600061418c602183614838565b91506141978261515e565b604082019050919050565b60006141af602783614838565b91506141ba826151ad565b604082019050919050565b60006141d2601183614849565b91506141dd826151fc565b601182019050919050565b60006141f5602f83614838565b915061420082615225565b604082019050919050565b61421481614a14565b82525050565b61422381614a14565b82525050565b60006142358285613eb5565b91506142418284613eb5565b91508190509392505050565b6000614258826140f3565b91506142648285613eb5565b915061426f826141c5565b915061427b8284613eb5565b91508190509392505050565b600060208201905061429c6000830184613db8565b92915050565b600060a0820190506142b76000830188613db8565b6142c46020830187613db8565b81810360408301526142d68186613dc7565b905081810360608301526142ea8185613dc7565b905081810360808301526142fe8184613e43565b90509695505050505050565b600060a08201905061431f6000830188613db8565b61432c6020830187613db8565b614339604083018661421a565b614346606083018561421a565b81810360808301526143588184613e43565b90509695505050505050565b6000602082019050818103600083015261437e8184613dc7565b905092915050565b600060408201905081810360008301526143a08185613dc7565b905081810360208301526143b48184613dc7565b90509392505050565b60006020820190506143d26000830184613e25565b92915050565b60006020820190506143ed6000830184613e34565b92915050565b6000602082019050818103600083015261440d8184613e7c565b905092915050565b6000602082019050818103600083015261442e81613ee6565b9050919050565b6000602082019050818103600083015261444e81613f09565b9050919050565b6000602082019050818103600083015261446e81613f2c565b9050919050565b6000602082019050818103600083015261448e81613f4f565b9050919050565b600060208201905081810360008301526144ae81613f72565b9050919050565b600060208201905081810360008301526144ce81613f95565b9050919050565b600060208201905081810360008301526144ee81613fb8565b9050919050565b6000602082019050818103600083015261450e81613fdb565b9050919050565b6000602082019050818103600083015261452e81613ffe565b9050919050565b6000602082019050818103600083015261454e81614021565b9050919050565b6000602082019050818103600083015261456e81614044565b9050919050565b6000602082019050818103600083015261458e81614067565b9050919050565b600060208201905081810360008301526145ae8161408a565b9050919050565b600060208201905081810360008301526145ce816140ad565b9050919050565b600060208201905081810360008301526145ee816140d0565b9050919050565b6000602082019050818103600083015261460e81614116565b9050919050565b6000602082019050818103600083015261462e81614139565b9050919050565b6000602082019050818103600083015261464e8161415c565b9050919050565b6000602082019050818103600083015261466e8161417f565b9050919050565b6000602082019050818103600083015261468e816141a2565b9050919050565b600060208201905081810360008301526146ae816141e8565b9050919050565b60006020820190506146ca600083018461421a565b92915050565b60006040820190506146e5600083018561421a565b6146f2602083018461421a565b9392505050565b6000614703614714565b905061470f8282614ac9565b919050565b6000604051905090565b600067ffffffffffffffff82111561473957614738614bd0565b5b602082029050602081019050919050565b600067ffffffffffffffff82111561476557614764614bd0565b5b602082029050602081019050919050565b600067ffffffffffffffff82111561479157614790614bd0565b5b61479a82614c21565b9050602081019050919050565b600067ffffffffffffffff8211156147c2576147c1614bd0565b5b6147cb82614c21565b9050602081019050919050565b6000819050602082019050919050565b600081519050919050565b600081519050919050565b600081519050919050565b6000602082019050919050565b600082825260208201905092915050565b600082825260208201905092915050565b600082825260208201905092915050565b600081905092915050565b600061485f82614a14565b915061486a83614a14565b9250827fffffffffffffffffffffffffffffffffffffffffffffffffffffffffffffffff0382111561489f5761489e614b43565b5b828201905092915050565b60006148b582614a1e565b91506148c083614a1e565b92508260ff038211156148d6576148d5614b43565b5b828201905092915050565b60006148ec82614a14565b91506148f783614a14565b92508261490757614906614b72565b5b828204905092915050565b600061491d82614a14565b915061492883614a14565b9250817fffffffffffffffffffffffffffffffffffffffffffffffffffffffffffffffff048311821515161561496157614960614b43565b5b828202905092915050565b600061497782614a14565b915061498283614a14565b92508282101561499557614994614b43565b5b828203905092915050565b60006149ab826149f4565b9050919050565b60008115159050919050565b6000819050919050565b60007fffffffff0000000000000000000000000000000000000000000000000000000082169050919050565b600073ffffffffffffffffffffffffffffffffffffffff82169050919050565b6000819050919050565b600060ff82169050919050565b82818337600083830152505050565b60005b83811015614a58578082015181840152602081019050614a3d565b83811115614a67576000848401525b50505050565b6000614a7882614a14565b91506000821415614a8c57614a8b614b43565b5b600182039050919050565b60006002820490506001821680614aaf57607f821691505b60208210811415614ac357614ac2614ba1565b5b50919050565b614ad282614c21565b810181811067ffffffffffffffff82111715614af157614af0614bd0565b5b80604052505050565b6000614b0582614a14565b91507fffffffffffffffffffffffffffffffffffffffffffffffffffffffffffffffff821415614b3857614b37614b43565b5b600182019050919050565b7f4e487b7100000000000000000000000000000000000000000000000000000000600052601160045260246000fd5b7f4e487b7100000000000000000000000000000000000000000000000000000000600052601260045260246000fd5b7f4e487b7100000000000000000000000000000000000000000000000000000000600052602260045260246000fd5b7f4e487b7100000000000000000000000000000000000000000000000000000000600052604160045260246000fd5b600060033d1115614c1e5760046000803e614c1b600051614c32565b90505b90565b6000601f19601f8301169050919050565b60008160e01c9050919050565b7f455243313135353a207472616e7366657220746f206e6f6e204552433131353560008201527f526563656976657220696d706c656d656e746572000000000000000000000000602082015250565b7f537472696e67733a20686578206c656e67746820696e73756666696369656e74600082015250565b7f455243313135353a204552433131353552656365697665722072656a6563746560008201527f6420746f6b656e73000000000000000000000000000000000000000000000000602082015250565b7f5061757361626c653a206e6f7420706175736564000000000000000000000000600082015250565b7f455243313135353a2062616c616e636520717565727920666f7220746865207a60008201527f65726f2061646472657373000000000000000000000000000000000000000000602082015250565b7f4f776e61626c653a206e6577206f776e657220697320746865207a65726f206160008201527f6464726573730000000000000000000000000000000000000000000000000000602082015250565b7f455243313135353a206275726e20616d6f756e7420657863656564732062616c60008201527f616e636500000000000000000000000000000000000000000000000000000000602082015250565b7f455243313135353a2063616c6c6572206973206e6f74206f776e6572206e6f7260008201527f20617070726f7665640000000000000000000000000000000000000000000000602082015250565b7f5061757361626c653a2070617573656400000000000000000000000000000000600082015250565b7f455243313135353a207472616e7366657220746f20746865207a65726f20616460008201527f6472657373000000000000000000000000000000000000000000000000000000602082015250565b7f455243313135353a207472616e736665722063616c6c6572206973206e6f742060008201527f6f776e6572206e6f7220617070726f7665640000000000000000000000000000602082015250565b7f455243313135353a206275726e2066726f6d20746865207a65726f206164647260008201527f6573730000000000000000000000000000000000000000000000000000000000602082015250565b7f524f434e46543a206163636f756e747320616e6420616d6f756e7473206c656e60008201527f677468206d69736d617463680000000000000000000000000000000000000000602082015250565b7f455243313135353a20696e73756666696369656e742062616c616e636520666f60008201527f72207472616e7366657200000000000000000000000000000000000000000000602082015250565b7f4f776e61626c653a2063616c6c6572206973206e6f7420746865206f776e6572600082015250565b7f416363657373436f6e74726f6c3a206163636f756e7420000000000000000000600082015250565b7f455243313135353a2073657474696e6720617070726f76616c2073746174757360008201527f20666f722073656c660000000000000000000000000000000000000000000000602082015250565b7f455243313135353a206163636f756e747320616e6420696473206c656e67746860008201527f206d69736d617463680000000000000000000000000000000000000000000000602082015250565b7f455243313135353a2069647320616e6420616d6f756e7473206c656e6774682060008201527f6d69736d61746368000000000000000000000000000000000000000000000000602082015250565b7f455243313135353a206d696e7420746f20746865207a65726f2061646472657360008201527f7300000000000000000000000000000000000000000000000000000000000000602082015250565b7f524f434e46543a2069647320616e6420616d6f756e7473206c656e677468206d60008201527f69736d6174636800000000000000000000000000000000000000000000000000602082015250565b7f206973206d697373696e6720726f6c6520000000000000000000000000000000600082015250565b7f416363657373436f6e74726f6c3a2063616e206f6e6c792072656e6f756e636560008201527f20726f6c657320666f722073656c660000000000000000000000000000000000602082015250565b600060443d101561528457615307565b61528c614714565b60043d036004823e80513d602482011167ffffffffffffffff821117156152b4575050615307565b808201805167ffffffffffffffff8111156152d25750505050615307565b80602083010160043d0385018111156152ef575050505050615307565b6152fe82602001850186614ac9565b82955050505050505b90565b615313816149a0565b811461531e57600080fd5b50565b61532a816149b2565b811461533557600080fd5b50565b615341816149be565b811461534c57600080fd5b50565b615358816149c8565b811461536357600080fd5b50565b61536f81614a14565b811461537a57600080fd5b5056fea26469706673582212204b8387d2a16b0857925ecdbc5a41d640039a1ad2092629a15e2ce10f27dee3ed64736f6c63430008040033",
  "immutableReferences": {},
  "source": "// SPDX-License-Identifier: MIT\r\npragma solidity ^0.8.0;\r\n\r\nimport \"@openzeppelin/contracts/token/ERC1155/ERC1155.sol\";\r\nimport \"@openzeppelin/contracts/access/AccessControl.sol\";\r\nimport \"@openzeppelin/contracts/access/Ownable.sol\";\r\nimport \"@openzeppelin/contracts/security/Pausable.sol\";\r\nimport \"@openzeppelin/contracts/token/ERC1155/extensions/ERC1155Burnable.sol\";\r\nimport \"./IROCNFTMint.sol\";\r\n\r\ncontract ROCNFT is ERC1155, IROCNFTMint, Ownable, AccessControl, Pausable, ERC1155Burnable {\r\n    bytes32 public constant URI_SETTER_ROLE = keccak256(\"URI_SETTER_ROLE\");\r\n    bytes32 public constant MINTER_ROLE = keccak256(\"MINTER_ROLE\");\r\n    string public name = \"Rise of Cats\";\r\n\r\n    constructor() ERC1155(\"https://nft.riseofcats.com/cat/\") {\r\n        _setupRole(DEFAULT_ADMIN_ROLE, msg.sender);\r\n        _setupRole(URI_SETTER_ROLE, msg.sender);\r\n        _setupRole(MINTER_ROLE, msg.sender);\r\n    }\r\n\r\n\r\n    function uri(uint256 _id)public override  view returns (string memory) {\r\n        string memory id = uint2str(_id);\r\n        string memory baseURI = super.uri(_id);\r\n        return string(abi.encodePacked(baseURI,id));\r\n    }\r\n    function uint2str(uint _i) internal pure returns (string memory _uintAsString) {\r\n        if (_i == 0) {\r\n            return \"0\";\r\n        }\r\n        uint j = _i;\r\n        uint len;\r\n        while (j != 0) {\r\n            len++;\r\n            j /= 10;\r\n        }\r\n        bytes memory bstr = new bytes(len);\r\n        uint k = len;\r\n        while (_i != 0) {\r\n            k = k-1;\r\n            uint8 temp = (48 + uint8(_i - _i / 10 * 10));\r\n            bytes1 b1 = bytes1(temp);\r\n            bstr[k] = b1;\r\n            _i /= 10;\r\n        }\r\n        return string(bstr);\r\n    }\r\n\r\n\r\n    function setURI(string memory newuri) public onlyRole(URI_SETTER_ROLE) {\r\n        _setURI(newuri);\r\n    }\r\n\r\n    function pause() public onlyOwner {\r\n        _pause();\r\n    }\r\n\r\n    function unpause() public onlyOwner {\r\n        _unpause();\r\n    }\r\n\r\n    // Admin use only, ERC1155 allow user own same nft\r\n    function mint(address account, uint256 id, uint256 amount, bytes memory data)\r\n    public\r\n    onlyRole(MINTER_ROLE)\r\n    override\r\n    {\r\n        _mint(account, id, amount, data);\r\n    }\r\n\r\n    // Admin use onlyERC1155 allow user own same nft, and admin call with limited gas\r\n    function mintBatch(address to, uint256[] memory ids, uint256[] memory amounts, bytes memory data)\r\n    public\r\n    onlyRole(MINTER_ROLE)\r\n    override\r\n    {\r\n        _mintBatch(to, ids, amounts, data);\r\n    }\r\n\r\n    // Admin use onlyERC1155 allow user own same nft, and admin call with limited gas\r\n    function mintBatch(address[] memory accounts, uint256[] memory ids, uint256[] memory amounts, bytes memory data)\r\n    public\r\n    onlyRole(MINTER_ROLE)\r\n    override\r\n    {\r\n        require(accounts.length == ids.length, \"ROCNFT: accounts and amounts length mismatch\");\r\n        require(ids.length == amounts.length, \"ROCNFT: ids and amounts length mismatch\");\r\n        \r\n        for (uint256 i = 0; i < accounts.length; i++) {\r\n            _mint(accounts[i], ids[i], amounts[i], data);\r\n        }\r\n    }\r\n\r\n\r\n    function _beforeTokenTransfer(address operator, address from, address to, uint256[] memory ids, uint256[] memory amounts, bytes memory data)\r\n    internal\r\n    whenNotPaused\r\n    override\r\n    {\r\n        super._beforeTokenTransfer(operator, from, to, ids, amounts, data);\r\n    }\r\n\r\n    function supportsInterface(bytes4 interfaceId)\r\n    public\r\n    view\r\n    override(ERC1155, AccessControl)\r\n    returns (bool)\r\n    {\r\n        return ERC1155.supportsInterface(interfaceId) || AccessControl.supportsInterface(interfaceId);\r\n    }\r\n}\r\n\r\n",
  "sourcePath": "C:/Users/quan/Work/WorkSpace/JoyGame/JoyTD/web/contracts/contracts/ROCNFT.sol",
  "compiler": {
    "name": "solc",
    "version": "0.8.4+commit.c7e474f2.Emscripten.clang"
  },
  "schemaVersion": "3.3.4",
  "updatedAt": "2021-11-16T19:36:13.631Z",
  "networkType": "ethereum",
  "devdoc": {
    "kind": "dev",
    "methods": {
      "balanceOf(address,uint256)": {
        "details": "See {IERC1155-balanceOf}. Requirements: - `account` cannot be the zero address."
      },
      "balanceOfBatch(address[],uint256[])": {
        "details": "See {IERC1155-balanceOfBatch}. Requirements: - `accounts` and `ids` must have the same length."
      },
      "getRoleAdmin(bytes32)": {
        "details": "Returns the admin role that controls `role`. See {grantRole} and {revokeRole}. To change a role's admin, use {_setRoleAdmin}."
      },
      "grantRole(bytes32,address)": {
        "details": "Grants `role` to `account`. If `account` had not been already granted `role`, emits a {RoleGranted} event. Requirements: - the caller must have ``role``'s admin role."
      },
      "hasRole(bytes32,address)": {
        "details": "Returns `true` if `account` has been granted `role`."
      },
      "isApprovedForAll(address,address)": {
        "details": "See {IERC1155-isApprovedForAll}."
      },
      "owner()": {
        "details": "Returns the address of the current owner."
      },
      "paused()": {
        "details": "Returns true if the contract is paused, and false otherwise."
      },
      "renounceOwnership()": {
        "details": "Leaves the contract without owner. It will not be possible to call `onlyOwner` functions anymore. Can only be called by the current owner. NOTE: Renouncing ownership will leave the contract without an owner, thereby removing any functionality that is only available to the owner."
      },
      "renounceRole(bytes32,address)": {
        "details": "Revokes `role` from the calling account. Roles are often managed via {grantRole} and {revokeRole}: this function's purpose is to provide a mechanism for accounts to lose their privileges if they are compromised (such as when a trusted device is misplaced). If the calling account had been granted `role`, emits a {RoleRevoked} event. Requirements: - the caller must be `account`."
      },
      "revokeRole(bytes32,address)": {
        "details": "Revokes `role` from `account`. If `account` had been granted `role`, emits a {RoleRevoked} event. Requirements: - the caller must have ``role``'s admin role."
      },
      "safeBatchTransferFrom(address,address,uint256[],uint256[],bytes)": {
        "details": "See {IERC1155-safeBatchTransferFrom}."
      },
      "safeTransferFrom(address,address,uint256,uint256,bytes)": {
        "details": "See {IERC1155-safeTransferFrom}."
      },
      "setApprovalForAll(address,bool)": {
        "details": "See {IERC1155-setApprovalForAll}."
      },
      "transferOwnership(address)": {
        "details": "Transfers ownership of the contract to a new account (`newOwner`). Can only be called by the current owner."
      }
    },
    "version": 1
  },
  "userdoc": {
    "kind": "user",
    "methods": {},
    "version": 1
  }
}